:020000040800F2
:10000000005000209D3D00085D3A0008653A000858
:100010006D3A0008753A00087D3A000800000000BB
:10002000000000000000000000000000853A000809
:10003000913A0008000000009D3A0008A93A000823
:10004000E53D0008E53D0008E53D0008E53D000808
:10005000E53D0008E53D0008E53D0008E53D0008F8
:10006000E53D0008E53D0008E53D0008B53A00081B
:10007000E53D0008E53D0008E53D0008E53D0008D8
:10008000E53D0008E53D0008E53D0008E53D0008C8
:10009000E53D0008E53D0008E53D0008E53D0008B8
:1000A000E53D0008C93A0008E53D0008E53D0008C7
:1000B000E53D0008E53D0008DD3A0008E53D0008A3
:1000C000E53D0008E53D0008E53D0008E53D000888
:1000D000E53D0008E53D0008E53D0008E53D000878
:1000E000E53D0008E53D0008E53D00080000000092
:1000F0000000000000000000000000000000000000
:0C01000000000000000000005FF808F1A3
:1001100010B5054C237833B9044B13B10448AFF341
:1001200000800123237010BD980000200000000013
:10013000ECAA000808B5034B1BB103490348AFF311
:10014000008008BD000000009C000020ECAA000810
:1001500081F0004102E000BF83F0004330B54FEA78
:1001600041044FEA430594EA050F08BF90EA020FE5
:100170001FBF54EA000C55EA020C7FEA645C7FEA78
:10018000655C00F0E2804FEA5454D4EB5555B8BF9B
:100190006D420CDD2C4480EA020281EA030382EA0C
:1001A000000083EA010180EA020281EA0303362D9E
:1001B00088BF30BD11F0004F4FEA01314FF4801C71
:1001C0004CEA113102D0404261EB410113F0004F83
:1001D0004FEA03334CEA133302D0524263EB43033A
:1001E00094EA050F00F0A780A4F10104D5F1200ED8
:1001F0000DDB02FA0EFC22FA05F2801841F1000133
:1002000003FA0EF2801843FA05F359410EE0A5F106
:1002100020050EF1200E012A03FA0EFC28BF4CF037
:10022000020C43FA05F3C01851EBE37101F00045ED
:1002300007D54FF0000EDCF1000C7EEB00006EEBFA
:100240000101B1F5801F1BD3B1F5001F0CD3490884
:100250005FEA30004FEA3C0C04F101044FEA4452DB
:1002600012F5800F80F09A80BCF1004F08BF5FEA62
:10027000500C50F1000041EB045141EA050130BD42
:100280005FEA4C0C404141EB0101013C28BFB1F554
:10029000801FE9D291F0000F04BF01460020B1FA9F
:1002A00081F308BF2033A3F10B03B3F120020CDA72
:1002B0000C3208DD02F1140CC2F10C0201FA0CF050
:1002C00021FA02F10CE002F11402D8BFC2F1200CB5
:1002D00001FA02F120FA0CFCDCBF41EA0C0190406B
:1002E000E41AA2BF01EB0451294330BD6FEA0404B4
:1002F0001F3C1CDA0C340EDC04F11404C4F120029F
:1003000020FA04F001FA02F340EA030021FA04F3B0
:1003100045EA030130BDC4F10C04C4F1200220FA07
:1003200002F001FA04F340EA0300294630BD21FA45
:1003300004F0294630BD94F0000F83F4801306BF0B
:1003400081F480110134013D4EE77FEA645C18BFFF
:100350007FEA655C29D094EA050F08BF90EA020F96
:1003600005D054EA000C04BF1946104630BD91EA8E
:10037000030F1EBF0021002030BD5FEA545C05D191
:100380004000494128BF41F0004130BD14F58004D0
:100390003CBF01F5801130BD01F0004545F0FE4144
:1003A00041F470014FF0000030BD7FEA645C1ABF79
:1003B000194610467FEA655C1CBF0B46024650EAB0
:1003C000013406BF52EA033591EA030F41F40021DC
:1003D00030BD00BF90F0000F04BF0021704730B562
:1003E0004FF4806404F132044FF000054FF0000137
:1003F00050E700BF90F0000F04BF0021704730B5F8
:100400004FF4806404F1320410F0004548BF4042CC
:100410004FF000013EE700BF42004FEAE2014FEA21
:1004200031014FEA02701FBF12F07F4393F07F4FFC
:1004300081F06051704732F07F4208BF704793F0FF
:100440007F4F04BF41F40021704730B54FF4607412
:1004500001F0004521F000411CE700BF50EA010215
:1004600008BF704730B54FF000050AE050EA0102BE
:1004700008BF704730B511F0004502D5404261EB2E
:1004800041014FF4806404F132045FEA915C3FF46F
:10049000D8AE4FF003025FEADC0C18BF03325FEA0C
:1004A000DC0C18BF033202EBDC02C2F1200300FABD
:1004B00003FC20FA02F001FA03FE40EA0E0021FAE2
:1004C00002F11444BDE600BF70B54FF0FF0C4CF4D0
:1004D000E06C1CEA11541DBF1CEA135594EA0C0F82
:1004E00095EA0C0F00F0DEF82C4481EA030621EABD
:1004F0004C5123EA4C5350EA013518BF52EA0335F8
:1005000041F4801143F4801338D0A0FB02CE4FF0A9
:100510000005E1FB02E506F00042E0FB03E54FF0D9
:100520000006E1FB03569CF0000F18BF4EF0010ED1
:10053000A4F1FF04B6F5007F64F5407404D25FEACD
:100540004E0E6D4146EB060642EAC62141EA555180
:100550004FEAC52040EA5E504FEACE2EB4F1FD0CC2
:1005600088BFBCF5E06F1ED8BEF1004F08BF5FEA40
:10057000500E50F1000041EB045170BD06F00046F2
:1005800046EA010140EA020081EA0301B4EB5C049F
:10059000C2BFD4EB0C0541EA045170BD41F4801197
:1005A0004FF0000E013C00F3AB8014F1360FDEBFBC
:1005B000002001F0004170BDC4F10004203C35DA98
:1005C0000C341BDC04F11404C4F1200500FA05F31B
:1005D00020FA04F001FA05F240EA020001F00042BC
:1005E00021F0004110EBD37021FA04F642EB060132
:1005F0005EEA430E08BF20EAD37070BDC4F10C045C
:10060000C4F1200500FA04F320FA05F001FA04F21F
:1006100040EA020001F0004110EBD37041F100010B
:100620005EEA430E08BF20EAD37070BDC4F1200516
:1006300000FA05F24EEA020E20FA04F301FA05F27E
:1006400043EA020321FA04F001F0004121FA04F226
:1006500020EA020000EBD3705EEA430E08BF20EAF6
:10066000D37070BD94F0000F0FD101F00046400030
:1006700041EB010111F4801F08BF013CF7D041EAB2
:10068000060195F0000F18BF704703F000465200B6
:1006900043EB030313F4801F08BF013DF7D043EA87
:1006A0000603704794EA0C0F0CEA135518BF95EA3D
:1006B0000C0F0CD050EA410618BF52EA4306D1D1C4
:1006C00081EA030101F000414FF0000070BD50EAE3
:1006D000410606BF1046194652EA430619D094EA6D
:1006E0000C0F02D150EA013613D195EA0C0F05D157
:1006F00052EA03361CBF104619460AD181EA0301AB
:1007000001F0004141F0FE4141F470014FF0000062
:1007100070BD41F0FE4141F4780170BD70B54FF0FD
:10072000FF0C4CF4E06C1CEA11541DBF1CEA13557D
:1007300094EA0C0F95EA0C0F00F0A7F8A4EB05045F
:1007400081EA030E52EA03354FEA013100F0888056
:100750004FEA03334FF0805545EA131343EA12631F
:100760004FEA022245EA111545EA10654FEA0026D4
:100770000EF000419D4208BF964244F1FD0404F58D
:10078000407402D25B084FEA3202B61A65EB0305E9
:100790005B084FEA32024FF480104FF4002CB6EBA6
:1007A000020E75EB030E22BFB61A754640EA0C0026
:1007B0005B084FEA3202B6EB020E75EB030E22BF66
:1007C000B61A754640EA5C005B084FEA3202B6EBA7
:1007D000020E75EB030E22BFB61A754640EA9C0066
:1007E0005B084FEA3202B6EB020E75EB030E22BF36
:1007F000B61A754640EADC0055EA060E18D04FEAF4
:10080000051545EA16754FEA06164FEAC30343EA93
:1008100052734FEAC2025FEA1C1CC0D111F4801F60
:100820000BD141EA00014FF000004FF0004CB6E759
:1008300011F4801F04BF01430020B4F1FD0C88BFF8
:10084000BCF5E06F3FF6AFAEB5EB030C04BFB6EB03
:10085000020C5FEA500C50F1000041EB045170BDF6
:100860000EF0004E4EEA113114EB5C04C2BFD4EB23
:100870000C0541EA045170BD41F480114FF0000EA7
:10088000013C90E645EA060E8DE60CEA135594EA23
:100890000C0F08BF95EA0C0F3FF43BAF94EA0C0F26
:1008A0000AD150EA01347FF434AF95EA0C0F7FF49B
:1008B00025AF104619462CE795EA0C0F06D152EAEF
:1008C00003353FF4FDAE1046194622E750EA4106D3
:1008D00018BF52EA43067FF4C5AE50EA41047FF4E4
:1008E0000DAF52EA43057FF4EBAE12E74FF0FF3C49
:1008F00006E000BF4FF0010C02E000BF4FF0010C1A
:100900004DF804CD4FEA410C7FEA6C5C4FEA430C92
:1009100018BF7FEA6C5C1BD001B050EA410C0CBFE1
:1009200052EA430C91EA030F02BF90EA020F002043
:10093000704710F1000F91EA030F58BF994208BFAA
:1009400090422CBFD8176FEAE37040F00100704767
:100950004FEA410C7FEA6C5C02D150EA013C07D1BE
:100960004FEA430C7FEA6C5CD6D152EA033CD3D009
:100970005DF8040B704700BF8446104662468C4603
:100980001946634600E000BF01B5FFF7B7FF002836
:1009900048BF10F1000F01BD4DF808EDFFF7F4FF5F
:1009A0000CBF012000205DF808FB00BF4DF808EDEA
:1009B000FFF7EAFF34BF012000205DF808FB00BF0D
:1009C0004DF808EDFFF7E0FF94BF012000205DF82F
:1009D00008FB00BF4DF808EDFFF7CEFF94BF0120E4
:1009E00000205DF808FB00BF4DF808EDFFF7C4FFDD
:1009F00034BF012000205DF808FB00BF4FEA410C26
:100A00007FEA6C5C02D150EA013C0AD14FEA430C08
:100A10007FEA6C5C02D152EA033C02D14FF0000045
:100A200070474FF0010070474FEA410212F5001283
:100A300015D211D56FF47873B3EB625212D94FEA25
:100A4000C12343F0004343EA505311F0004F23FA0F
:100A500002F018BF404270474FF00000704750EA64
:100A6000013005D111F0004008BF6FF00040704721
:100A70004FF00000704700BF4FEA4102B2F1E0437F
:100A800024BFB3F5001CDCF1FE5C0DD901F0004C75
:100A90004FEAC0024CEA5070B2F1004F40EB8300C5
:100AA00008BF20F00100704711F0804F21D113F1F1
:100AB0003872BCBF01F00040704741F480114FEA2A
:100AC0005252C2F11802C2F1200C10FA0CF320FAB3
:100AD00002F018BF40F001004FEAC1234FEAD323D0
:100AE00003FA0CFC40EA0C0023FA02F34FEA43033A
:100AF000CCE77FEA625307D150EA01331EBF4FF0C3
:100B0000FE4040F44000704701F0004040F0FE40DD
:100B100040F40000704700BF80F0004002E000BFDA
:100B200081F0004142001FBF5FEA410392EA030FD8
:100B30007FEA226C7FEA236C6AD04FEA1262D2EB22
:100B40001363C1BFD218414048404140B8BF5B4227
:100B5000192B88BF704710F0004F40F4000020F0C0
:100B60007F4018BF404211F0004F41F4000121F0D6
:100B70007F4118BF494292EA030F3FD0A2F1010220
:100B800041FA03FC10EB0C00C3F1200301FA03F15E
:100B900000F0004302D5494260EB4000B0F5000F81
:100BA00013D3B0F1807F06D340084FEA310102F140
:100BB0000102FE2A51D2B1F1004F40EBC25008BFF2
:100BC00020F0010040EA03007047490040EB0000BC
:100BD000013A28BFB0F5000FEDD2B0FA80FCACF1BD
:100BE000080CB2EB0C0200FA0CF0AABF00EBC250EA
:100BF00052421843BCBFD0401843704792F0000FD8
:100C000081F4000106BF80F400000132013BB5E72A
:100C10004FEA41037FEA226C18BF7FEA236C21D0A0
:100C200092EA030F04D092F0000F08BF0846704705
:100C300090EA010F1CBF0020704712F07F4F04D1D3
:100C4000400028BF40F00040704712F100723CBFE6
:100C500000F50000704700F0004343F0FE4040F410
:100C6000000070477FEA226216BF08467FEA2363CE
:100C70000146420206BF5FEA412390EA010F40F4B9
:100C8000800070474FF0000304E000BF10F0004305
:100C900048BF40425FEA000C08BF704743F09643EC
:100CA00001464FF000001CE050EA010208BF704707
:100CB0004FF000030AE000BF50EA010208BF70478E
:100CC00011F0004302D5404261EB41015FEA010CA3
:100CD00002BF84460146002043F0B64308BFA3F19B
:100CE0008053A3F50003BCFA8CF2083AA3EBC2537D
:100CF00010DB01FA02FC634400FA02FCC2F120029C
:100D0000BCF1004F20FA02F243EB020008BF20F0D2
:100D10000100704702F1200201FA02FCC2F1200238
:100D200050EA4C0021FA02F243EB020008BF20EA2D
:100D3000DC7070474FF0FF0C1CEAD0521EBF1CEA5B
:100D4000D15392EA0C0F93EA0C0F6FD01A4480EA49
:100D5000010C400218BF5FEA41211ED04FF0006332
:100D600043EA501043EA5111A0FB01310CF000405E
:100D7000B1F5000F3EBF490041EAD3715B0040EA84
:100D8000010062F17F02FD2A1DD8B3F1004F40EB54
:100D9000C25008BF20F00100704790F0000F0CF027
:100DA000004C08BF49024CEA502040EA51207F3AEB
:100DB000C2BFD2F1FF0340EAC250704740F40000C6
:100DC0004FF00003013A5DDC12F1190FDCBF00F0B7
:100DD00000407047C2F10002410021FA02F1C2F165
:100DE000200200FA02FC5FEA310040F1000053EA01
:100DF0004C0308BF20EADC70704792F0000F00F04F
:100E0000004C02BF400010F4000F013AF9D040EA54
:100E10000C0093F0000F01F0004C02BF490011F4E8
:100E2000000F013BF9D041EA0C018FE70CEAD153E6
:100E300092EA0C0F18BF93EA0C0F0AD030F0004C66
:100E400018BF31F0004CD8D180EA010000F000401A
:100E5000704790F0000F17BF90F0004F084691F0D8
:100E6000000F91F0004F14D092EA0C0F01D1420212
:100E70000FD193EA0C0F03D14B0218BF084608D1DB
:100E800080EA010000F0004040F0FE4040F4000025
:100E9000704740F0FE4040F4400070474FF0FF0CB8
:100EA0001CEAD0521EBF1CEAD15392EA0C0F93EAFF
:100EB0000C0F69D0A2EB030280EA010C49024FEA51
:100EC000402037D04FF0805343EA111143EA10130A
:100ED0000CF000408B4238BF5B0042F17D024FF4C2
:100EE000000C8B4224BF5B1A40EA0C00B3EB510F9D
:100EF00024BFA3EB510340EA5C00B3EB910F24BF86
:100F0000A3EB910340EA9C00B3EBD10F24BFA3EB0A
:100F1000D10340EADC001B0118BF5FEA1C1CE0D1D2
:100F2000FD2A3FF650AF8B4240EBC25008BF20F085
:100F3000010070470CF0004C4CEA50207F32C2BFD9
:100F4000D2F1FF0340EAC250704740F400004FF076
:100F50000003013A37E792F0000F00F0004C02BFA7
:100F6000400010F4000F013AF9D040EA0C0093F071
:100F7000000F01F0004C02BF490011F4000F013BCB
:100F8000F9D041EA0C0195E70CEAD15392EA0C0F33
:100F900008D142027FF47DAF93EA0C0F7FF470AF6B
:100FA000084676E793EA0C0F04D14B023FF44CAFAE
:100FB00008466EE730F0004C18BF31F0004CCAD143
:100FC00030F000427FF45CAF31F000437FF43CAF7F
:100FD0005FE700BF4FF0FF3C06E000BF4FF0010CA1
:100FE00002E000BF4FF0010C4DF804CD4FEA400283
:100FF0004FEA41037FEA226C18BF7FEA236C11D0CD
:1010000001B052EA530C18BF90EA010F58BFB2EB7F
:10101000030088BFC81738BF6FEAE17018BF40F0FF
:10102000010070477FEA226C02D15FEA402C05D1B3
:101030007FEA236CE4D15FEA412CE1D05DF8040B38
:10104000704700BF844608466146FFE70FB5FFF7CB
:10105000C9FF002848BF10F1000F0FBD4DF808ED83
:10106000FFF7F4FF0CBF012000205DF808FB00BF74
:101070004DF808EDFFF7EAFF34BF012000205DF8CE
:1010800008FB00BF4DF808EDFFF7E0FF94BF01201B
:1010900000205DF808FB00BF4DF808EDFFF7D2FF18
:1010A00094BF012000205DF808FB00BF4DF808ED5B
:1010B000FFF7C8FF34BF012000205DF808FB00BF28
:1010C0004FEA4002B2F1FE4F0FD34FF09E03B3EB55
:1010D00012620DD94FEA002343F0004310F0004F95
:1010E00023FA02F018BF404270474FF000007047EB
:1010F00012F1610F01D1420205D110F0004008BF8A
:101100006FF0004070474FF00000704742000ED271
:10111000B2F1FE4F0BD34FF09E03B3EB126209D432
:101120004FEA002343F0004323FA02F070474FF0E8
:101130000000704712F1610F01D1420202D14FF05D
:10114000FF3070474FF00000704700BF80B582B09D
:1011500000AF78608021404803F0D4FF3F4B1B78FC
:101160000133DAB23D4B1A703D4B1B889BB21A46D5
:101170003C4B1B6813443B4A1360394B5B889BB262
:101180001A46394B1B681344374A1360344BDB88CB
:101190009BB21A46354B1B681344344A1360304BDC
:1011A0009B889BB21A46324B1B681344304A13602B
:1011B0002B4B1B899BB21A462E4B1B6813442D4A9E
:1011C0001360264B1B78092B41D9264B1B682A4AF2
:1011D000A2FB0323DB089AB2284B1A80224B1B6820
:1011E000254AA2FB0323DB089AB2254B1A801F4B2A
:1011F0001B68214AA2FB0323DB089AB2214B1A8009
:101200001B4B1B681C4AA2FB0323DB089AB21E4B34
:101210001A80184B1B68184AA2FB0323DB089AB2FA
:101220001A4B1A801A4B01221A700E4B00221A60B8
:101230000D4B00221A600D4B00221A600C4B00224D
:101240001A600C4B00221A60044B00221A7000BF77
:101250000837BD4680BD00BF0008014004010020E2
:10126000B4000020C0000020C4000020C8000020FE
:10127000CC000020D0000020CDCCCCCCD40000206D
:10128000D6000020D8000020DA000020DC0000207A
:10129000050100200000000080B582B000AF8C4B3B
:1012A0001B78002B00F0FC808A4B1B881846FFF748
:1012B000EDFC034688491846FFF7F0FD0346184643
:1012C000FFF724FF03469AB2844B1A80834B1B8896
:1012D0007B607B685B027B607B685B0A7B607B6812
:1012E0009AB27F4B1A807F4B1B881846FFF7CEFCC3
:1012F00003467D491846FFF7D1FD03461846FFF720
:1013000005FF03469AB2794B1A80784B1B887B60A5
:101310007B685B027B607B685B0A7B607B689AB260
:10132000734B1A80734B1B881846FFF7AFFC0346BC
:1013300071491846FFF7B2FD03461846FFF7E6FE6F
:1013400003469AB26D4B1A806C4B1B887B607B689E
:101350005B027B607B685B0A7B607B689AB2684B50
:101360001A80684B1B881846FFF790FC03466649B5
:101370001846FFF793FD03461846FFF7C7FE0346DE
:101380009AB2624B1A80614B1B887B607B685B0260
:101390007B607B685B0A7B607B689AB25C4B1A80DF
:1013A0005C4B1B881846FFF725F83FA3D3E90023C1
:1013B000FFF78AF802460B4610461946FFF75CFB1A
:1013C0000346554A1360544B1B6819465348FFF7B0
:1013D00065FD034652491846FFF7A2FB03461A462D
:1013E000504B1A604F4B1B684F491846FFF756FD8C
:1013F00003461846FFF710F802460B4610461946FA
:1014000009F048F92AA3D3E90023FFF75DF8024663
:101410000B461046194628A3D3E90023FEF79EFE8B
:1014200002460B4626A1D1E90001FFF777F90246F3
:101430000B461046194624A3D3E90023FEF78CFE81
:1014400002460B4610461946FFF7EEFA0346374AA6
:1014500013602B4B1B88224A128802FB03F39AB2BB
:10146000334B1A802A4B1B88214A128802FB03F354
:101470009AB2304B1A801E4B1B881A46642302FB1B
:1014800003F32D4A82FB03129211DB17D31A9AB28F
:101490002A4B1A800E4B00221A70294B01221A7017
:1014A00000BF0837BD4680BDB4D934E70C684A3F59
:1014B0000000006066A272400000000000DCAE4048
:1014C000000000805CF8314100000060661271404D
:1014D00005010020D40000209A991941E000002065
:1014E000EE000020D600002000001841DE000020A1
:1014F000EC000020D8000020CDCC8041E40000208A
:10150000F2000020DA0000209A995141E200002008
:10151000F0000020DC000020E800002000B0FD46C4
:1015200000C019460001002000401C46F8000020C1
:10153000F6000020F4000020398EE338FC00002083
:101540003803002080B584B000AFF8607B600B46A4
:10155000FB721346BB72FB7A292B04D1BB7A184667
:1015600002F0A4FC00BF012318461037BD4680BD21
:1015700080B588B002AFF8607B600B46FB72134603
:10158000BB72FB7A192B2ED0192B39DC172B02D00A
:10159000182B18D034E07B687B6110E01C4B1B7863
:1015A0005A1CD1B21A4A11701A467B691978194B24
:1015B00099547B6901337B61BB7A013BBB72BB7A77
:1015C000002BEBD11EE0124B00221A70104B1B783F
:1015D0001A464FF47A73009313460E4A78210E4848
:1015E00003F0EEFE0EE00A4B1B781A464FF47A73B6
:1015F00000931346074A7821074803F0E1FE01E013
:10160000002300E0012318461837BD4680BD00BF07
:10161000180100201C010020B001002080B582B01C
:1016200002AF354B354A3649364806F011F90A20E3
:1016300002F03CFC334807F0E2FD0A2002F036FCE1
:101640000021304807F0EAFD402300938023002268
:1016500000212C4806F00DF801212A4806F055FD1E
:101660002949284806F0ACFE284B0A2203212548C8
:1016700006F008FE264B14220321224806F002FE43
:101680002449204806F09CFE234B1B6899B2234B4B
:101690003C221C4806F0F6FD21491A4806F090FE4F
:1016A000204B3A220321174806F0ECFD3823009323
:1016B000252338221021134807F026F81A4B0193EE
:1016C000182300931823002268210E4805F08EFF8E
:1016D0000C4806F09EF840F2DC5002F0E7FB13499C
:1016E000084806F06DFE124B39223B21054806F0F2
:1016F000C9FD00BFBD4680BD451500087115000835
:10170000F0CE00089402002048CB000804AB00088B
:1017100018AB00081CC700080000002030AB000810
:10172000ACB8000840AB000824AC000850C3000867
:1017300044AB000880B584B002AF00237B603FE07B
:1017400000233B6036E0224805F0F0FF01212048ED
:1017500005F0ADFE01211E4806F0D7FC1D4A3B688E
:1017600052F82330019340230093402300220021AC
:10177000174805F03BFF1849154806F021FE174BA6
:101780001B223D21124806F07DFD154B26223D21EE
:101790000F4806F077FD134B30223D210C4806F030
:1017A00071FD0B4806F035F8192002F07FFB3B680D
:1017B00001333B603B68052BC5DD7B6801337B60F3
:1017C0007B68032BBCDD00BF00BF0837BD4680BD72
:1017D000940200200400002050C3000850AB000811
:1017E00058AB000864AB000890B583B000AF044666
:1017F000084611461A462346FB710346BB710B4649
:10180000BB801346FB70FB78042B61D801A252F811
:1018100023F000BF2918000859180008891800088B
:1018200097180008A5180008BB88304AA2FB0323BC
:10183000DB089BB21846BA882C4BA3FB0213D908CD
:101840000B469B000B445B00D31A9BB2024628490F
:10185000284807F061FE3CE0BB88244AA2FB032332
:10186000DB089BB21846BA88204BA3FB0213D908A9
:101870000B469B000B445B00D31A9BB202461E49E9
:101880001C4807F049FE24E0BA88B0231B491948D8
:1018900007F042FE1DE0BB881A461949154807F0BB
:1018A0003BFE16E0BB88174AA2FB03235B099BB2F1
:1018B0001846BB88134AA2FB03125209642101FB9C
:1018C00002F29B1A9BB202460F490A4807F024FE17
:1018D00000BFFB7999B2BB799AB2064B0B4806F070
:1018E000D1FC00BF0C37BD4690BD00BFCDCCCCCCE9
:1018F00068AB00080801002074AB000880AB00084A
:1019000088AB00081F85EB5190AB000894020020C3
:1019100080B582B002AF4D4805F008FF4023009328
:10192000802300220021494805F0A3FE484B019383
:101930000C2300930F2302220A21444805F056FE8F
:10194000444B01930C2300931023022238213F487B
:1019500005F04CFE404B01930C2300930F23022211
:1019600067213A4805F042FE3C49384806F028FD18
:101970003B4B1A88002317210220FFF735FF394B14
:101980001A88002317216120FFF72EFF364B1A8893
:10199000012322210220FFF727FF344B1A8801235D
:1019A00022216120FFF720FF314B1B689AB20223EE
:1019B00017213520FFF718FF2E4B1B689AB203231F
:1019C00022213520FFF710FF2B4B1A8804232D21ED
:1019D0000220FFF709FF294B1A8804232D215B20E1
:1019E000FFF702FF264B1A88032338216120FFF7F7
:1019F000FBFE244B1B78002B06D0234B3822022100
:101A0000124806F03FFC1BE0204B1B78002B06D051
:101A10001F4B382202210D4806F034FC10E01D4B0C
:101A20001B78002B06D01C4B38220221074806F0F9
:101A300029FC05E0194B38220221044806F022FC5B
:101A4000024805F0E6FE00BFBD4680BD94020020BE
:101A5000DCAB0008F4AB00080CAC000880BB00084D
:101A6000EE000020EC000020F2000020F00000203A
:101A7000F8000020F4030020F6000020F40000200D
:101A8000FC0000203A0300209CAB00083B03002030
:101A9000ACAB000837030020BCAB0008CCAB00089F
:101AA00080B500AF02F0A0F900F08CF800F08CFADD
:101AB00000F074FA00F066F900F0ECF800F020FA9B
:101AC00000F08EF900F0D9F802F0E6F90346184666
:101AD00007F032FCFFF7A2FDFFF72CFE01224FF4C6
:101AE0000051324803F0F6FA314804F08DFD3148D8
:101AF00004F08AFD08212F4804F028FE04212D4817
:101B000004F024FE2C4802F0B7FD4FF4FA7002F006
:101B1000CDF905222949284802F0C4FA4FF4FA7099
:101B200002F0C4F900224FF40051204803F0D2FA29
:101B3000234B1B78002B04D0214B00221A70FFF797
:101B4000ABFB1F4B5B78002B02D01D4B00225A7061
:101B50001B4B9B78002B04D0194B00229A7001F08C
:101B6000C7FB174BDB78002B04D0154B0022DA7033
:101B7000FFF7CEFE124B1B79002B04D0104B002236
:101B80001A7102F07DF80E4B5B79002B06D00C4BDE
:101B900000225A710421054803F0B4FA084B9B79DE
:101BA000002BC5D0064B00229A71C1E7000C014002
:101BB0004C020020040200203C010020B400002060
:101BC0003003002080B594B000AF07F1280328222D
:101BD0000021184607F005FD07F1140300221A60E2
:101BE0005A609A60DA601A613B1D00221A605A60DE
:101BF0009A60DA600123BB624FF48033FB620023FA
:101C00003B630123BB6302237B644FF48033BB64DB
:101C10004FF4E013FB6407F12803184603F028FF94
:101C20000346002B01D000F0EFFA0F237B61022363
:101C3000BB610023FB614FF480633B6200237B6246
:101C400007F114030221184604F094F90346002B0F
:101C500001D000F0D9FA02237B604FF40043FB600F
:101C60003B1D184604F014FB0346002B01D000F086
:101C7000CBFA00BF5037BD4680BD80B500AF022211
:101C800000210B2002F07DFE0B2002F096FE00BF2B
:101C900080BD000080B584B000AF3B1D00221A60FB
:101CA0005A609A60354B364A1A60344B4FF4807252
:101CB0009A60324B01221A73304B00221A752F4B57
:101CC0004FF46022DA612D4B00225A602B4B052223
:101CD0001A612A4802F00EF90346002B01D000F0E9
:101CE00093FA00237B600123BB600623FB603B1D4E
:101CF0001946224802F0C6FA0346002B01D000F034
:101D000083FA01237B600223BB603B1D19461B48FD
:101D100002F0B8FA0346002B01D000F075FA042354
:101D20007B600323BB603B1D1946144802F0AAFAEE
:101D30000346002B01D000F067FA08237B600423E0
:101D4000BB603B1D19460D4802F09CFA0346002B70
:101D500001D000F059FA09237B600523BB603B1DCD
:101D60001946064802F08EFA0346002B01D000F017
:101D70004BFA00BF1037BD4680BD00BF3C010020BC
:101D80000024014080B500AF124B134A1A60114B7A
:101D9000124A5A600F4B00229A600E4B0022DA6002
:101DA0000C4B4FF480421A610A4B00225A61094BD6
:101DB00000229A61074B0022DA61064B00221A6268
:101DC000044803F0B9F90346002B01D000F01CFAD7
:101DD00000BF80BDB001002000540040A08601007B
:101DE00080B592B000AF07F1400300221A605A603C
:101DF00007F1240300221A605A609A60DA601A61BF
:101E00005A619A613B1D20220021184607F0E9FB28
:101E1000394B3A4A1A60384B03225A60364B00223B
:101E20009A60354B40F22B12DA60334B00221A6174
:101E3000314B00225A61304B00229A612E4804F047
:101E400035FC0346002B01D000F0DEF900233B6493
:101E500000237B6407F140031946274805F066FA22
:101E60000346002B01D000F0CFF960237B620023F2
:101E7000BB620023FB6200233B6304237B630023DC
:101E8000BB630023FB6307F12403042219461A48AD
:101E900004F0EEFD0346002B01D000F0B5F907F188
:101EA000240308221946144804F0E2FD0346002BDF
:101EB00001D000F0A9F900237B600023BB60002360
:101EC000FB6000233B6100237B614FF40053BB6147
:101ED0004FF480433B623B1D1946074805F084FAE6
:101EE0000346002B01D000F08FF9034801F082FD7A
:101EF00000BF4837BD4680BD04020020002C0140D1
:101F000080B586B000AF07F1080300221A605A605E
:101F10009A60DA603B4600221A605A601D4B1E4AE6
:101F20001A601C4B47225A601A4B00229A60194BC8
:101F300040F2E732DA60174B00221A61154B00229B
:101F40009A61144804F010FB0346002B01D000F006
:101F50005BF94FF48053BB6007F1080319460D4845
:101F600004F048FE0346002B01D000F04DF9002399
:101F70003B6000237B603B461946064805F0D6F9D6
:101F80000346002B01D000F03FF900BF1837BD46D3
:101F900080BD00BF4C0200200008004080B483B028
:101FA00000AF084B5B69074A43F001035361054BDF
:101FB0005B6903F001037B607B6800BF0C37BD46A3
:101FC00080BC70470010024080B588B000AF07F1B8
:101FD000100300221A605A609A60DA602E4B9B69E7
:101FE0002D4A43F0200393612B4B9B6903F02003A0
:101FF000FB60FB68284B9B69274A43F0040393610D
:10200000254B9B6903F00403BB60BB68224B9B69B3
:10201000214A43F0080393611F4B9B6903F00803B7
:102020007B607B68002280211C4803F053F800226B
:102030004EF204011A4803F04DF880233B6101235E
:102040007B610023BB610223FB6107F1100319468A
:10205000124802F0BBFE04233B6101237B61002395
:10206000BB610223FB6107F1100319460C4802F023
:10207000ADFE4FF460433B6101237B610023BB61F4
:102080000323FB6107F110031946054802F09EFE89
:1020900000BF2037BD4680BD00100240000801404F
:1020A000000C014080B582B000AF78607B68494A7F
:1020B000934224D1484B1B78002B15D0474B1B78FB
:1020C0000133DAB2454B1A70444B1B78022B02D90C
:1020D000424B01221A70414B1B78414A128811462B
:1020E000184601F099FA0AE03C4B00221A703D4B69
:1020F00000221A803A4B00221A8001F00DFB7B6807
:10210000394A934262D1394B01221A70384B1B78FD
:102110000133DAB2364B1A70364B1B780133DAB220
:10212000344B1A70324B1B78042B05D92F4B0122EC
:102130005A702F4B00221A702E4B1B78092B0BD98B
:102140002A4B01229A702C4B1B780133DAB22A4BAE
:102150001A70284B00221A70274B1B78092B0BD9B9
:10216000224B0122DA70254B1B780133DAB2234B64
:102170001A70214B00221A70204B1B78042B0BD9AC
:102180001A4B01221A711E4B1B780133DAB21C4B19
:102190001A701A4B00221A70194B1B78012B0BD99D
:1021A000124B01225A71174B1B780133DAB2154BCF
:1021B0001A70134B00221A70124B1B78012B05D991
:1021C0000A4B01229A710F4B00221A7000BF083788
:1021D000BD4680BD0402002039030020EA03002030
:1021E000F0030020EC0300204C020020300300200C
:1021F00028030020290300202A0300202B030020AD
:102200002C0300202D03002080B400AF72B600BF65
:1022100000BFFDE780B483B000AF0346FB800B46F0
:10222000BB8013467B80FA88BB889A4201D2BB8868
:1022300006E0FA887B889A4201D97B8800E0FB8817
:1022400018460C37BD4680BC7047000080B500AF13
:102250000C4B1B680C4A03FB02F20C4B1344094A5B
:102260001360084B1B6823F07F431846FEF70AFDF6
:1022700003464FF097411846FEF710FE03461846F6
:1022800080BD00BF2C0000200D6619005FF36E3C7E
:1022900080B584B000AFFFF7D9FFF860FFF7D6FF35
:1022A000B860FFF7D3FF7860B968F868FEF73AFCCA
:1022B000034679681846FEF735FC03464FF07F5118
:1022C0001846FEF72DFC034604491846FEF732FD7A
:1022D000034618461037BD4680BD00BF36CD933F3C
:1022E00080B400AF184B00221A70184B01221A70EC
:1022F000174B00221A80174B00221A80164B01221E
:102300001A70164B01221A70154B00221A70154BC9
:1023100000221A80144B01221A70144B00221A70EA
:10232000134B00221A70134B00221A70124B00221A
:102330001A60124B4FF000021A60114B114A1A60DA
:1023400000BFBD4680BC7047400300201C00002039
:102350004203002044030020280000202900002020
:10236000D4030020D60300202A000020D803002038
:10237000D9030020DA030020DC030020CC03002076
:1023800020000020CDCCCC3D90B5AFB000AFA14B2C
:102390001B78002B03D0A04B1B78002B03D1FFF739
:1023A0009FFF00F0B2BE9D4B1B88A7F850309C4B9E
:1023B0001B88A7F84E309B4B1B88A7F84C309A4BD4
:1023C0001B88A7F84A30B7F85030B7F84E2002FB08
:1023D00003F37B64B7F85030052B05D8B7F84E30BF
:1023E000012B01D8012300E0002387F8433097F840
:1023F0004330002B0AD08D4B1B88312B09D88B4BD7
:102400001B8801339AB2894B1A8002E0874B002265
:102410001A80864B1B88312B0FD9854B00221A80DE
:10242000844B00221A80844B00221A60FFF758FF69
:102430007E4B00221A8000F068BE7D4B1A887D4BCF
:102440001A80794B1B88162B1ED97A4B1B88002BC0
:1024500005D0784B1B88013B9AB2764B1A80754B9E
:102460001A88734B1A80724B1B88744A82FB0312C2
:10247000DB17D31A704A1360714B01221A70714B2B
:1024800000221A8000F041BE664B1B88B3F5907F96
:102490001ED9684B1B88002B05D0664B1B88013B5F
:1024A0009AB2644B1A80634B1A88614B1A80604B56
:1024B0001B88624A82FB0312DB17D31A5E4A136041
:1024C0005F4B01221A705F4B00221A8000F01DBE84
:1024D0005D4B1B78002B40F085803C23A7F84030F3
:1024E0004FF4B473FB87524B1B88B7F840209A42D5
:1024F00007D94F4AB7F8403013804E4AB7F84030FA
:1025000013804B4B1A88514B1A800023C7F8B43004
:102510002CE0FFF79BFE03464FF07C511846FEF778
:1025200009FC03464A491846FEF7FCFA03461946D9
:10253000484AD7F8B43042F82310474AD7F8B430A5
:102540004FF0000142F82310444AD7F8B4304FF05E
:10255000000142F82310424AD7F8B4301344002255
:102560001A70D7F8B4300133C7F8B430D7F8B430A4
:10257000092BCEDD2E4B1B881846FEF783FB034646
:1025800038491846FEF78AFC03461A46364B1A604D
:10259000786CFEF777FB0346344A1360344B012214
:1025A0001A70344B01221A70334B00221A70334BCD
:1025B00000221A80324B01221A70324B00221A700C
:1025C000314B00221A70314B00221A70304B00221E
:1025D0001A601B4B01221A701A4B00221A801A4BE8
:1025E00001221A70B7F84A30002B14BF01230023D0
:1025F000DBB287F83D3097F83D30002B4AD0114BC5
:102600001B88092B49D80F4B1B8801339AB20D4BFD
:102610001A8042E0390300203A030020EE00002037
:10262000F2000020EC000020F00000204203002017
:10263000F0030020EC030020F4030020ABAAAA2A38
:102640001C0000204403002040030020E003002081
:10265000CDCCCC3D4803002070030020980300201F
:10266000C00300200000164420000020CC030020FE
:102670002800002029000020D4030020D6030020D9
:102680002A000020D8030020D9030020DA0300200C
:10269000DC0300208D4B00221A808D4B1B78002B11
:1026A00000F0B88000F056FD8A4B1B888A4A82FBF6
:1026B0000312DB17D31A894A1360844B1B88092B3A
:1026C00040F22085824B00221A70824B1B881846EC
:1026D000FEF7D8FA034682491846FEF7DFFB0346A9
:1026E0001A46804B1A60786CFEF7CCFA03467E4A95
:1026F00013607E4B3B607B4B1C684FF07C5138680D
:10270000FEF718FB034619462046FEF709FA034672
:10271000C7F8B0304FF07C513868FEF70BFB03462A
:102720001A46704B1B6819461046FEF7FBF9034624
:10273000C7F8AC306E49D7F8B000FEF799FC0346F5
:10274000002B02D06A4BC7F8B0306A49D7F8AC000A
:10275000FEF7ACFC0346002B02D0664BC7F8AC304A
:102760000023C7F8A83034E0D7F8B010D7F8AC0091
:10277000FEF7D6F903461C46FFF768FD03461946E7
:102780002046FEF7D7FA0346D7F8B0101846FEF7F2
:10279000C9F903461946584AD7F8A83042F8231019
:1027A000564AD7F8A8304FF0000142F82310544A97
:1027B000D7F8A8304FF0000142F82310514AD7F85B
:1027C000A830134400221A70D7F8A8300133C7F894
:1027D000A830D7F8A830092BC6DD4B4B01221A7060
:1027E0004A4B01221A704A4B00221A70494B0022B0
:1027F0001A80494B01221A70484B00221A70484B2C
:1028000000221A70474B00221A70474B00221A60B0
:1028100000F078BC3C237B874FF4B4733B873A4B82
:102820001B78012B40F00E813C4B1B78002B45D0D0
:102830003B4B1B78002B07D0394B1B78013BDAB29E
:10284000374B1A7000F060BC374B1A687B6C13442E
:10285000354A1360334B1B780133DAB2314B1A70AF
:10286000304B1B78022B40F24F842F4B1B681846CD
:10287000FEF708FA03462D491846FEF70FFB0346FC
:10288000FB62234B1B78002B0AD0214B1B780A2BB1
:1028900006D81F4B1B78013B1849FA6A41F82320E0
:1028A0001E4B00221A70204B00221A601D4B002282
:1028B0001A70174B00221A7000F026BC134B1B78BD
:1028C0000A2B35D9104B02221A70BBE044030020BA
:1028D0001C000020F0030020ABAAAA2AF403002069
:1028E0000000164420000020CC030020CDCC4C3E3C
:1028F000CDCCCC3D9A99193F4803002070030020AD
:1029000098030020C0030020280000202900002098
:10291000D4030020D60300202A000020D803002082
:10292000D9030020DA030020DC030020000040402F
:102930009D4B1B78013B9D4A52F82330C7F8A430C9
:102940009B49D7F8A400FEF793FB0346002B02D067
:10295000974BC7F8A4309749D7F8A400FEF7A6FB19
:102960000346002B02D0934BC7F8A4309249D7F806
:10297000A400FEF7DFF903464FF07C511846FEF73E
:10298000D1F803461846FEF7C1FB0346A7F8A2306C
:102990003A8F798FB7F8A2301846FFF73BFC034611
:1029A000A7F8A230B7F8A230844A12889B1A7B633A
:1029B000834B1B880E2B01D9012300E006237B8665
:1029C0007B8E7A6B9A4206DD7C4B1A887B8E134491
:1029D000A7F8A2300AE07B8E5B427A6B9A4205DA56
:1029E000764B1A887B8ED31AA7F8A230754AB7F8AF
:1029F000A2301380744AB7F8A2301380714B1B8841
:102A0000724A82FB0312DB17D31A714A13606B4AB6
:102A1000B7F8A2301380644B1A786E4B1A70624B71
:102A20001B780133DAB2604B1A706B4B01221A70BB
:102A30006A4B01221A706A4B00221A70694B0022FD
:102A40001A6062E3684B1B78022B40F05783674B98
:102A50001B68674A1360554B1B68664A1360012365
:102A6000C7F89C3020E0614AD7F89C3052F82330F8
:102A70005F4A126811461846FEF718FB0346002B02
:102A80000DD05A4AD7F89C3052F82330584A136078
:102A9000464AD7F89C3052F82330564A1360D7F88C
:102AA0009C300133C7F89C30D7F89C30092BDADD15
:102AB000514B1B684FF000011846FEF7F7FA03462A
:102AC000002B21D04A4B1B684B4A1268114618460E
:102AD000FEF726F803461A46474B1B681946104670
:102AE000FEF7DCF90346BB624449B86AFEF7DEFA3A
:102AF0000346002B10D03E4B1B683F4A13603D4BF2
:102B00001B683F4A136007E0394B1B683A4A136061
:102B1000384B1B683A4A1360012387F89B30002327
:102B2000C7F8943015E0374AD7F8943052F823307C
:102B30004FF000011846FEF791FA0346002B03D12F
:102B4000002387F89B3008E0D7F894300133C7F8AA
:102B50009430D7F89430092BE5DD97F89B30002BA3
:102B600016D00023C7F890300EE0204AD7F89030F6
:102B700052F823202349D7F8903041F82320D7F882
:102B800090300133C7F89030D7F89030092BECDD46
:102B9000064B1B68C7F88C30044B1B68C7F888309D
:102BA0000123C7F884305CE029000020480300209E
:102BB000CDCCCC3D9A99193F00001644E00300208B
:102BC000D6030020F0030020EC030020ABAAAA2AC1
:102BD000F4030020D4030020D8030020D9030020F0
:102BE000DA030020DC03002028000020700300200E
:102BF000D003002024000020CC0300200AD7A33CEF
:102C00002000002098030020504AD7F8843052F862
:102C100023301946D7F88C00FEF72AFA0346002B1A
:102C200006D04A4AD7F8843052F82330C7F88C309F
:102C3000464AD7F8843052F823301946D7F888002E
:102C4000FEF734FA0346002B06D0404AD7F884300A
:102C500052F82330C7F88830D7F884300133C7F8EA
:102C60008430D7F88430092BCEDDD7F88810D7F818
:102C70008C00FDF755FF03467B623549786AFEF705
:102C8000F7F90346002B06D0324B1B8801339AB26A
:102C9000304B1A8002E02F4B00221A802D4B1B88EC
:102CA0000E2B8CBF01230023DBB287F8233097F86B
:102CB0002330002B01D0284B00E0284BFB6197F814
:102CC0002330002B01D0264B00E0264BBB6197F848
:102CD0002330002B02D04FF0000300E0224B7B6139
:102CE000224B1B78042B01D8214B00E0214B3B6188
:102CF0004FF07C53FB600023C7F8803001E11E4A8F
:102D0000D7F8803052F823201C49D7F8803051F88A
:102D1000233019461046FEF7ABF90346002B31D09D
:102D2000174AD7F8803013441B78092B30D8144A3F
:102D3000D7F8803013441B780133D9B2104AD7F842
:102D4000803013440A461A7022E000BF4803002076
:102D50008FC2F53DD60300206F1283380AD7A33AFD
:102D600090C2753DCDCCCC3D9A99193E2A000020E9
:102D70006666E63E6666663F7003002098030020A4
:102D8000C00300208E4AD7F88030134400221A7006
:102D90008B4AD7F8803013441B781846FDF772FF32
:102DA000034688491846FEF779F80346FB674FF05B
:102DB0007E51F86FFEF77AF90346002B02D04FF0F0
:102DC0007E53FB674FF07C51F86FFDF7B3FF03466E
:102DD0001946B869FDF7A6FE0346BB677A49B86F86
:102DE000FEF764F90346002B01D0774BBB67774AA7
:102DF000D7F8803052F823307B67FFF727FA034675
:102E000039691846FDF796FF03461C46704B1B6850
:102E1000796F1846FDF784FE034619462046FDF7F4
:102E200089FF03461946786FFDF77CFE03467B67F2
:102E3000FFF72EFA0346F9691846FDF77BFF0346B4
:102E4000F9681846FDF776FF03461946786FFDF7D7
:102E500069FE03467B67FFF7F9F903461946B86F29
:102E6000FEF724F90346002B2ED0FFF7EFF90346B7
:102E700054491846FDF75EFF03461846FEF720F951
:102E800003463B673B6F092B01DD09233B67FFF7D7
:102E9000DDF904464D4A3B6F52F82330796F1846EE
:102EA000FDF73EFE034619462046FDF743FF034665
:102EB0001946786FFDF736FE03467B67404AD7F820
:102EC0008030134400221A704249786FFEF7D0F820
:102ED0000346002B01D03F4B7B673F49786FFEF7DD
:102EE000E5F80346002B01D03B4B7B673749D7F809
:102EF00080307A6F41F82320D7F880300133C7F84B
:102F00008030D7F88030092B7FF7F9AE4FF0000101
:102F10007869FEF7CBF80346002B4ED02949786933
:102F2000FDF708FF0346184607F0ECFB034618467A
:102F3000FEF7C6F80346FB66FB6E002B01DC01239F
:102F4000FB660023BB6634E000237B66234B1B68D3
:102F50003B660123FB6514E0204AFB6D52F82330E9
:102F60001946386EFEF7A2F80346002B06D01B4A1E
:102F7000FB6D52F823303B66FB6D7B66FB6D0133C6
:102F8000FB65FB6D092BE7DDFFF760F90346F96888
:102F90001846FDF7CFFE03460E491846FDF7C2FD61
:102FA00003461946094A7B6E42F82310BB6E013373
:102FB000BB66BA6EFB6E9A42C6DB0023BB651AE0A5
:102FC000C0030020000020416666663F48030020E1
:102FD00020000020CDCCCC3D9A99193F70030020F1
:102FE0004B4ABB6D52F823204A49BB6D41F8232060
:102FF000BB6D0133BB65BB6D092BF1DD464B1B7807
:103000000133DAB2444B1A70434B1B780A2B02D9B6
:10301000414B01221A70414B01221A70404B012290
:103020001A70404B00221A703F4B1B687B653F496A
:10303000786DFEF71DF80346002B01D03B4B7B65F6
:103040003B49786DFEF732F80346002B01D0384B30
:103050007B653849786DFDF76DFE03464FF07C5176
:103060001846FDF75FFD03461846FEF74FF8034686
:10307000A7F852303A8F798FB7F852301846FFF7D9
:10308000C9F80346A7F85230B7F852302A4A1288D6
:103090009B1ABB60294B1B880E2B01D9012300E032
:1030A0000623FB80FB88BA689A4206DD224B1A8809
:1030B000FB881344A7F852300AE0FB885B42BA68E9
:1030C0009A4205DA1C4B1A88FB88D31AA7F85230AB
:1030D0001B4AB7F8523013801A4AB7F8523013809F
:1030E000174B1B88184A82FB0312DB17D31A174AA7
:1030F0001360114AB7F85230138006E0144B0122D6
:103100001A7002E000BF00E000BFBC37BD4690BDB2
:1031100070030020980300202A00002028000020CF
:1031200029000020D403002020000020CDCCCC3D7D
:103130009A99193F00001644E0030020D6030020AE
:10314000F0030020EC030020ABAAAA2AF40300201D
:103150001C00002080B400AF4B4B1B88162B06D9F7
:103160004A4B1B88013B9AB2484B1A806AE0484B95
:103170001B88B3F5907F06D9444B1B88013B9AB25C
:10318000424B1A805EE0434B1A88434B1B889A429D
:103190000CD9424B1A88424B1B889A4206D93B4BAA
:1031A0001B88013B9AB2394B1A8043E0394B1A888D
:1031B000394B1B889A420CD9384B1A88384B1B88DC
:1031C0009A4206D2314B1B8801339AB22F4B1A8098
:1031D00030E0304B1A88304B1B889A420CD22F4B70
:1031E0001A882F4B1B889A4206D9284B1B8801331B
:1031F0009AB2264B1A801DE0264B1A88264B1B8854
:103200009A420CD2254B1A88254B1B889A4206D22B
:103210001E4B1B88013B9AB21C4B1A800AE01C4BC8
:103220001B88B3F5907F05D2184B1B8801339AB2E7
:10323000164B1A80174B1A88174B1A80174B1A888F
:10324000174B1A80114B1B88B3F5167F04D30F4B15
:103250004FF416721A8006E00C4B1B88002B02D12B
:103260000A4B00221A80094B1A880E4B1A800D4B0C
:103270001B880D4A82FB0312DB17D31A0B4A13601B
:1032800000BFBD4680BC7047F0000020EC0300206A
:10329000EC000020F60000203C030020EE0000209F
:1032A0003E030020F0030020ABAAAA2AF40300206A
:1032B00080B483B000AF0346FB800B467B7113469E
:1032C0007B807B79002B07D0FA887B889A4209D2D1
:1032D000FB880133FB8005E0FB88002B02D0FB88D4
:1032E000013BFB80FB8818460C37BD4680BC70470D
:1032F00080B582B000AF7C4B1B78002B00F06E8154
:103300007A4B1B78002B00F06981794B1B88FB807E
:10331000784B1B88BB80784B1B78002B67D0FFF75E
:1033200033F8FB88B3F58E7F04D3BB88022B01D919
:10333000012300E000237B70704B1B8879786422A6
:103340001846FFF7B5FF03461A466C4B1A806B4BC5
:103350001B88632B16D9684B00221A70684B012218
:103360001A70684B00221A70644B00221A80664B58
:1033700000221A80654B00221A80654B00221A80B9
:10338000FEF7AEFFFB88B3F5897F04D3BB88012B22
:1033900001D8012300E000233B705C4B1B88397887
:1033A0004FF496721846FFF783FF03461A46574BB1
:1033B0001A80564B1B88B3F5967FC0F00B814E4B9D
:1033C00000221A704E4B00221A704E4B01221A70C6
:1033D0004E4B00221A80494B00221A804A4B002291
:1033E0001A804B4B00221A80FEF77AFFF2E0444B22
:1033F0001B78002B63D0FB88B3F58E7F0BD2454B37
:103400001B88B3F5167F14D2424B1B8801339AB246
:10341000404B1A800DE0FB88B3F5927F09D93D4BF4
:103420001B88002B05D03B4B1B88013B9AB2394BC4
:103430001A80304B1B88162B09D9364B1B88002B62
:1034400005D0344B1B88013B9AB2324B1A80314B6A
:103450001A88314B1A802F4B1B88304A82FB03128B
:10346000DB17D31A2E4A1360FB88B3F58E7F04D383
:10347000BB88032B01D8012300E00023BB70224B43
:103480001B88B97864221846FFF712FF03461A46D4
:103490001D4B1A801C4B1B88632B40F29B80164BE4
:1034A00000221A70164B00221A70164B01221A7055
:1034B000154B00221A80164B00221A808AE0114B0D
:1034C0001B78002B00F08680FB88B3F5867F29D817
:1034D000104B1B88B3F5167F32D20E4B1B8801337D
:1034E0009AB20C4B1A802BE03803002039030020DD
:1034F000EC000020F00000203A030020E20300204E
:103500003B03002037030020E4030020E6030020F3
:10351000E8030020F0030020EC030020ABAAAA2A55
:10352000F4030020FB88B3F58A7F09D32D4B1B8859
:10353000002B05D02B4B1B88013B9AB2294B1A80DC
:10354000294B1B88162B09D9264B1B88002B05D02D
:10355000244B1B88013B9AB2224B1A80214B1A88BC
:10356000224B1A801F4B1B88214A82FB0312DB1758
:10357000D31A204A1360FB88FE2B94BF012300233B
:10358000DBB2FB701C4B1B88F9784FF4FA721846BB
:10359000FFF78EFE03461A46174B1A80164B1B8800
:1035A000B3F5FA7F16D3154B00221A70144B012283
:1035B0001A70144B00221A700F4B00221A80124B03
:1035C00000221A80114B00221A80114B00221A800F
:1035D000FEF786FE0F4B00221A7000E000BF08378E
:1035E000BD4680BDF0030020F0000020EC03002069
:1035F000ABAAAA2AF4030020E80300203703002026
:103600003A0300203B030020E2030020E4030020F3
:10361000E60300203803002080B483B000AF0346E7
:103620000A46FB711346BB80374B1B78002B15D124
:10363000354B01221A70354B00221A70344B1B682F
:103640009A69334B1B6842F400629A61304B1B68E5
:10365000DA692F4B1B6842F00802DA61BB88B3F5C8
:10366000167F02D34FF41673BB80FB79012B21D157
:10367000BB88B3F5167F08D3264B4FF49672DA63F6
:10368000244B4FF496729A6338E0BB88B3F5967F6B
:1036900009D3204B4FF49672DA63BB88A3F5967278
:1036A0001C4B9A632AE01B4ABB88D363194B002248
:1036B0009A6323E0FB79022B20D1BB88B3F5167FF8
:1036C00008D3144B4FF49672DA63124B4FF4967290
:1036D0009A6313E0BB88B3F5967F09D3BB88A3F543
:1036E00096720C4BDA630B4B4FF496729A6305E0BB
:1036F000084B0022DA63074ABB88936300BF0C378C
:10370000BD4680BC704700BFEF030020EE030020E1
:1037100004020020002C014080B400AF114B1B7844
:10372000002B15D1104B00221A700E4B01221A707B
:103730000E4B1B689A690D4B1B6822F400629A615C
:103740000A4B1B68DA69094B1B6822F00802DA6130
:10375000074B00229A63064B0022DA6300BFBD4686
:1037600080BC7047EE030020EF030020040200201D
:10377000002C014080B584B000AF164B9B69154A00
:1037800043F001039361134B9B6903F00103BB609A
:10379000BB68104BDB690F4A43F08053D3610D4B7C
:1037A000DB6903F080537B607B68052001F0DEF865
:1037B000094B5B68FB60FB6823F0E063FB60FB6820
:1037C00043F00073FB60044AFB68536000BF10378E
:1037D000BD4680BD001002400000014080B58AB0A7
:1037E00000AF786007F1180300221A605A609A60EF
:1037F000DA607B681B68344A934260D1334B9B6923
:10380000324A43F400739361304B9B6903F40073B5
:103810007B617B692D4B9B692C4A43F004039361C8
:103820002A4B9B6903F004033B613B69274B9B696F
:10383000264A43F008039361244B9B6903F0080375
:10384000FB60FB681323BB610323FB6107F11803D3
:1038500019461F4801F0BAFA0323BB610323FB6139
:1038600007F1180319461B4801F0B0FA1A4B1B4A1E
:103870001A60194B00225A60174B00229A60164BAF
:103880008022DA60144B4FF480721A61124B4FF4AD
:1038900080625A61104B20229A610F4B4FF4805284
:1038A000DA610D4801F0A4F80346002B01D0FEF7C1
:1038B000ABFC7B68084A1A62074A7B68536200BF08
:1038C0002837BD4680BD00BF0024014000100240E3
:1038D00000080140000C01406C010020080002407B
:1038E00080B588B000AF786007F1100300221A603D
:1038F0005A609A60DA607B681B68154A934223D14C
:10390000144B9B69134A43F008039361114B9B6965
:1039100003F00803FB60FB68C0233B6112237B615B
:103920000323FB6107F1100319460B4801F04EFA1F
:10393000084BDB69074A43F40013D361054BDB698D
:1039400003F40013BB60BB6800BF2037BD4680BDD9
:103950000054004000100240000C014080B584B0CB
:1039600000AF78607B681B680D4A934213D10D4B02
:103970009B690C4A43F4006393610A4B9B6903F40F
:103980000063FB60FB6800220021192000F0F9FFB2
:10399000192001F012F800BF1037BD4680BD00BFEE
:1039A000002C01400010024080B584B000AF786068
:1039B0007B681B680D4A934213D10D4BDB690C4A9F
:1039C00043F00403D3610A4BDB6903F00403FB609B
:1039D000FB68012200211E2000F0D3FF1E2000F012
:1039E000ECFF00BF1037BD4680BD00BF000800409F
:1039F0000010024080B588B000AF786007F1100376
:103A000000221A605A609A60DA607B681B68104A6C
:103A1000934218D10F4B9B690E4A43F00403936104
:103A20000C4B9B6903F00403FB60FB684FF4C0631D
:103A30003B6102237B610323FB6107F110031946FD
:103A4000054801F0C3F900BF2037BD4680BD00BF67
:103A5000002C0140001002400008014080B400AF7B
:103A600000BFFDE780B400AF00BFFDE780B400AF4A
:103A700000BFFDE780B400AF00BFFDE780B400AF3A
:103A800000BFFDE780B400AF00BFBD4680BC7047FB
:103A900080B400AF00BFBD4680BC704780B400AFAB
:103AA00000BFBD4680BC704780B500AF00F0E2F9B2
:103AB00000BF80BD80B500AF024801F053F800BFE1
:103AC00080BD00BF6C01002080B500AF024802F04D
:103AD000DFFE00BF80BD00BF0402002080B500AF44
:103AE000024802F0D5FE00BF80BD00BF4C0200209E
:103AF00080B400AF01231846BD4680BC704780B536
:103B000082B000AF7860396005F0BAFD0346162236
:103B10001A604FF0FF3318460837BD4680BD80B5A8
:103B200082B000AF78604FF0FF317868FFF7E7FFB1
:103B300000BFFDE780B586B000AFF860B9607A607D
:103B400000237B610AE0AFF300800146BB685A1C8A
:103B5000BA60CAB21A707B6901337B617A697B688B
:103B60009A42F0DB7B6818461837BD4680BD80B5A9
:103B700086B000AFF860B9607A6000237B6109E02D
:103B8000BB685A1CBA601B781846AFF300807B698B
:103B900001337B617A697B689A42F1DB7B68184666
:103BA0001837BD4680BD80B483B000AF78604FF059
:103BB000FF3318460C37BD4680BC704780B483B0D5
:103BC00000AF786039603B684FF400525A600023C0
:103BD00018460C37BD4680BC704780B483B000AF38
:103BE0007860012318460C37BD4680BC704780B40E
:103BF00085B000AFF860B9607A60002318461437CA
:103C0000BD4680BC7047000080B586B000AF7860CC
:103C1000144A154BD31A7B617B693B61134B1B68BC
:103C2000002B02D1114B124A1A60104B1A687B68A4
:103C300013443A699A4207D205F022FD03460C224A
:103C40001A604FF0FF3309E0084B1B68FB60074B1D
:103C50001A687B681344054A1360FB6818461837D6
:103C6000BD4680BD0050002000040000F803002085
:103C70005009002080B400AF00BFBD4680BC704733
:103C800080B500AF3B4B1B68192B06DD01224FF4BA
:103C90000051394801F01EFA09E0364B1B68222B0F
:103CA00005DC00224FF40051334801F013FA334B86
:103CB0001B88B3F5967F03D9314B01221A7012E0AD
:103CC000304B1B88462B03D92D4B04221A700AE077
:103CD0002D4B1B88FA2B03D9294B03221A7002E0C3
:103CE000274B00221A70284B1B884F2B27D9234BB8
:103CF0001B88632B23D9224B1B78002B1FD1012259
:103D00004FF480411C4801F0E5F9204B1B7801334A
:103D1000DAB21E4B1A701D4B1B78052B27D90122D6
:103D20004FF40041144801F0D5F9194B01221A70E3
:103D3000184B01221A70184B00221A7017E000224B
:103D40004FF480410C4801F0C5F900224FF40041C6
:103D5000094801F0BFF90E4B00221A700D4B0022EA
:103D60001A700D4B00221A70FEF7BAFA00BF00BF9E
:103D700080BD00BFF8000020000C0140EC000020D6
:103D8000FC030020F0000020EE000020FD030020D6
:103D9000390300203A0300203B030020FFF76AFFAD
:103DA0000B480C490C4A002302E0D458C450043399
:103DB000C4188C42F9D3094A094C002301E013606E
:103DC0000432A242FBD305F061FCFDF769FE7047A7
:103DD000000000209800002048D000089800002033
:103DE00050090020FEE7000080B500AF084B1B68BB
:103DF000074A43F010031360032000F0B7FD0020D2
:103E000000F008F8FFF7B6FC0023184680BD00BF9D
:103E10000020024080B582B000AF7860124B1A6873
:103E2000124B1B7819464FF47A73B3FBF1F3B2FBD4
:103E3000F3F3184600F0CFFD0346002B01D0012319
:103E40000EE07B680F2B0AD8002279684FF0FF3014
:103E500000F097FD064A7B681360002300E0012311
:103E600018460837BD4680BD3000002038000020CD
:103E70003400002080B400AF054B1B781A46054B78
:103E80001B681344034A136000BFBD4680BC7047E3
:103E9000380000200004002080B400AF024B1B68F3
:103EA0001846BD4680BC70470004002080B584B031
:103EB00000AF7860FFF7F0FFB8607B68FB60FB68DD
:103EC000B3F1FF3F05D00A4B1B781A46FB68134439
:103ED000FB6000BFFFF7E0FF0246BB68D31AFA6839
:103EE0009A42F7D800BF00BF1037BD4680BD00BF63
:103EF0003800002080B586B000AF78600023FB75E5
:103F000000233B610023BB600023FB607B68002B28
:103F100001D10123BEE07B689B68002B7B689B6A14
:103F2000002B09D17B680022DA627B68002283F8CB
:103F300024207868FFF752FC786800F0F5FA034611
:103F4000FB757B689B6A03F01003002B40F099809F
:103F5000FB7D002B40F095807B689B6A23F488539F
:103F600023F0020343F002027B689A627B685A687E
:103F70007B68DB691A437B681B7B5B001343BA6871
:103F80001343BB607B689B68B3F5807F03D07B687D
:103F90009B68012B02D14FF4807300E000233A6943
:103FA00013433B617B681B7D012B19D17B681B7B15
:103FB000002B09D17B689B69013B5A033B69134382
:103FC00043F400633B610BE07B689B6A43F0200293
:103FD0007B689A627B68DB6A43F001027B68DA6285
:103FE0007B681B685B6823F469417B681B683A69DE
:103FF0000A435A607B681B689A68284B13407A68AA
:104000001268B9680B4393607B689B68B3F5807F47
:1040100003D07B689B68012B04D17B681B69013B43
:104020001B05FB607B681B68DB6A23F470017B68FF
:104030001B68FA680A43DA627B681B689A68184B47
:104040001340BA689A420BD17B680022DA627B681F
:104050009B6A23F0030343F001027B689A6218E035
:104060007B689B6A23F0120343F010027B689A621C
:104070007B68DB6A43F001027B68DA620123FB752F
:1040800007E07B689B6A43F010027B689A62012319
:10409000FB75FB7D18461837BD4680BDFDF7E1FF77
:1040A000FE0E1FFF80B586B000AFF860B9607A6081
:1040B0000023FB75FB681B68644A934204D0FB68CD
:1040C0001B68634A934206D1604B5B6803F470231C
:1040D000002B40F0B380FB6893F82430012B01D112
:1040E0000223AEE0FB68012283F82420F86800F088
:1040F000C1F90346FB75FB7D002B40F09A80FB68FD
:104100009B6A23F4706323F0010343F48072FB681D
:104110009A62FB681B684E4A934205D14B4B5B6821
:1041200003F47023002B15D1FB689B6A23F48012E3
:10413000FB689A62FB681B685B6803F48063002B72
:1041400026D0FB689B6A23F4405343F48052FB68FB
:104150009A621DE0FB689B6A43F48012FB689A62D6
:10416000FB681B68394A934204D0FB681B68384AD5
:1041700093420DD1354B5B6803F48063002B07D06D
:10418000FB689B6A23F4405343F48052FB689A62B5
:10419000FB689B6A03F48053002B06D0FB68DB6A44
:1041A00023F00602FB68DA6202E0FB680022DA62B2
:1041B000FB68002283F82420FB681B6A254A9A6268
:1041C000FB681B6A244ADA62FB681B6A234A1A638B
:1041D000FB681B686FF002021A60FB681B689A6834
:1041E000FB681B6842F480729A60FB68186AFB687F
:1041F0001B684C331946BA687B6800F053FCFB68B7
:104200001B689B6803F46023B3F5602F08D1FB683B
:104210001B689A68FB681B6842F4A0029A600FE072
:10422000FB681B689A68FB681B6842F480129A60FE
:1042300006E0FB68002283F8242001E00123FB75DF
:10424000FB7D18461837BD4680BD00BF00240140E5
:1042500000280140AB4500082746000843460008F7
:1042600080B483B000AF786000BF0C37BD4680BC1F
:10427000704780B483B000AF786000BF0C37BD4694
:1042800080BC704780B485B000AF7860396000238F
:10429000FB730023BB607B6893F82430012B01D1B2
:1042A0000223DCE07B68012283F824203B685B6802
:1042B000062B1CD87B681B68596B3B685A681346F1
:1042C0009B001344053B1F2202FA03F3DB43194012
:1042D0003B6818683B685A6813469B001344053BCB
:1042E00000FA03F27B681B680A435A633CE03B68B0
:1042F0005B680C2B1CD87B681B68196B3B685A6881
:1043000013469B001344233B1F2202FA03F3DB43B3
:1043100019403B6818683B685A6813469B00134471
:10432000233B00FA03F27B681B680A431A631BE015
:104330007B681B68D96A3B685A6813469B00134424
:10434000413B1F2202FA03F3DB4319403B68186824
:104350003B685A6813469B001344413B00FA03F242
:104360007B681B680A43DA623B681B68092B1CD90F
:104370007B681B68D9683B681A6813465B00134466
:104380001E3B072202FA03F3DB4319403B6898689F
:104390003B681A6813465B0013441E3B00FA03F2A5
:1043A0007B681B680A43DA6019E07B681B6819693F
:1043B0003B681A6813465B001344072202FA03F3B2
:1043C000DB4319403B6898683B681A6813465B00FA
:1043D000134400FA03F27B681B680A431A613B68C6
:1043E0001B68102B03D03B681B68112B32D17B68F4
:1043F0001B681D4A934225D17B681B689B6803F4A8
:104400000003002B26D17B681B689A687B681B68B9
:1044100042F400029A603B681B68102B1AD1134BC0
:104420001B68134AA2FB03239A0C13469B001344F8
:104430005B00BB6002E0BB68013BBB60BB68002B5C
:10444000F9D107E07B689B6A43F020027B689A629F
:104450000123FB737B68002283F82420FB7B184632
:104460001437BD4680BC7047002401403000002056
:1044700083DE1B4380B584B000AF78600023FB600F
:104480000023BB607B681B689B6803F00103012B62
:1044900040D07B681B689A687B681B6842F0010209
:1044A0009A601F4B1B681F4AA2FB03239B0CBB6037
:1044B00002E0BB68013BBB60BB68002BF9D1FFF792
:1044C000EBFCF8601FE0FFF7E7FC0246FB68D31A3D
:1044D000022B18D97B681B689B6803F00103012B32
:1044E00011D07B689B6A43F010027B689A627B68FC
:1044F000DB6A43F001027B68DA627B68002283F8A2
:104500002420012307E07B681B689B6803F00103FC
:10451000012BD8D1002318461037BD4680BD00BFFF
:104520003000002083DE1B4380B584B000AF78608C
:104530000023FB607B681B689B6803F00103012B71
:104540002ED17B681B689A687B681B6822F0010289
:104550009A60FFF7A1FCF8601BE0FFF79DFC0246A4
:10456000FB68D31A022B14D97B681B689B6803F085
:104570000103012B0DD17B689B6A43F010027B681D
:104580009A627B68DB6A43F001027B68DA6201238E
:1045900007E07B681B689B6803F00103012BDCD0FC
:1045A000002318461037BD4680BD80B584B000AFEB
:1045B00078607B685B6AFB60FB689B6A03F0500372
:1045C000002B27D1FB689B6A43F40072FB689A6258
:1045D000FB681B689B6803F46023B3F5602F15D15B
:1045E000FB681B7B002B11D1FB689B6A23F4807254
:1045F000FB689A62FB689B6A03F48053002B05D129
:10460000FB689B6A43F00102FB689A62F868FCF75A
:104610009DFD04E0FB681B6A1B6B7868984700BF30
:104620001037BD4680BD80B584B000AF78607B6830
:104630005B6AFB60F868FFF713FE00BF1037BD46EA
:1046400080BD80B584B000AF78607B685B6AFB603A
:10465000FB689B6A43F04002FB689A62FB68DB6A76
:1046600043F00402FB68DA62F868FFF702FE00BF5D
:104670001037BD4680BD000090B587B000AF7860B0
:104680000023FB750023FB607B6893F82430012B2B
:1046900001D1022397E07B68012283F82420786807
:1046A000FFF742FF0346FB757868FFF7E3FE03461A
:1046B000FB75FB7D002B40F081807B689B6A23F4B7
:1046C000885323F0020343F002027B689A62404B56
:1046D0001C68022001F092FE0346B4FBF3F35B007A
:1046E000FB6002E0FB68013BFB60FB68002BF9D13B
:1046F0007B681B689A687B681B6842F008029A60B6
:10470000FFF7CAFB38611BE0FFF7C6FB02463B69B7
:10471000D31A0A2B14D97B681B689B6803F0080323
:10472000002B0DD07B689B6A23F0120343F010022C
:104730007B689A627B68002283F82420012342E090
:104740007B681B689B6803F00803002BDCD17B6847
:104750001B689A687B681B6842F004029A60FFF746
:104760009BFB38611BE0FFF797FB02463B69D31ABE
:104770000A2B14D97B681B689B6803F00403002B89
:104780000DD07B689B6A23F0120343F010027B6814
:104790009A627B68002283F82420012313E07B685F
:1047A0001B689B6803F00403002BDCD17B689B6AC9
:1047B00023F0030343F001027B689A627B680022C6
:1047C00083F82420FB7D18461C37BD4690BD00BFF2
:1047D0003000002080B485B000AF78607B6803F0C3
:1047E0000703FB600C4BDB68BB60BA684FF6FF0346
:1047F0001340BB60FB681A02BB68134343F0BF63FE
:1048000043F40033BB60044ABB68D36000BF143775
:10481000BD4680BC704700BF00ED00E080B400AF33
:10482000044BDB681B0A03F007031846BD4680BC37
:10483000704700BF00ED00E080B483B000AF0346D6
:10484000FB7197F90730002B0BDBFB7903F01F029C
:10485000064997F907305B09012000FA02F241F896
:10486000232000BF0C37BD4680BC704700E100E04C
:1048700080B483B000AF03463960FB7197F907300D
:10488000002B0ADB3B68DAB20C4997F907301201BA
:10489000D2B20B4483F800230AE03B68DAB208493D
:1048A000FB7903F00F03043B1201D2B20B441A76DA
:1048B00000BF0C37BD4680BC704700BF00E100E080
:1048C00000ED00E080B489B000AFF860B9607A60B4
:1048D000FB6803F00703FB61FB69C3F10703042BCB
:1048E00028BF0423BB61FB690433062B02D9FB6993
:1048F000033B00E000237B614FF0FF32BB6902FA0B
:1049000003F3DA43BB681A407B699A404FF0FF31EA
:104910007B6901FA03F3D9437B680B4013431846C4
:104920002437BD4680BC704780B582B000AF786048
:104930007B68013BB3F1807F01D301230FE00A4A7A
:104940007B68013B53600F214FF0FF30FFF790FF72
:10495000054B00229A60044B07221A600023184678
:104960000837BD4680BD00BF10E000E080B582B0D2
:1049700000AF78607868FFF72DFF00BF0837BD46AD
:1049800080BD80B586B000AF0346B9607A60FB7326
:1049900000237B61FFF742FF78617A68B968786924
:1049A000FFF790FF024697F90F3011461846FFF7C0
:1049B0005FFF00BF1837BD4680BD80B582B000AF35
:1049C0000346FB7197F907301846FFF735FF00BF24
:1049D0000837BD4680BD80B582B000AF786078688A
:1049E000FFF7A2FF034618460837BD4680BD00000A
:1049F00080B485B000AF78600023FB607B68002B3B
:104A000001D1012343E07B681B681A46224B134403
:104A1000224AA2FB03231B099A007B681A647B6865
:104A20001F4ADA637B68022283F821207B681B68B7
:104A30001B68FB60FB6823F47F5323F03003FB60AB
:104A40007B685A687B689B681A437B68DB681A43FB
:104A50007B681B691A437B685B691A437B689B69A7
:104A60001A437B68DB691343FA681343FB607B6876
:104A70001B68FA681A607B6800229A637B680122CF
:104A800083F821207B68002283F820200023184629
:104A90001437BD4680BC7047F8FFFDBFCDCCCCCCF1
:104AA0000000024080B586B000AFF860B9607A605F
:104AB0003B600023FB75FB6893F82030012B01D18C
:104AC00002234BE0FB68012283F82020FB6893F867
:104AD0002130DBB2012B3AD1FB68022283F821207E
:104AE000FB6800229A63FB681B681A68FB681B68F6
:104AF00022F001021A603B687A68B968F86800F031
:104B000037F9FB68DB6A002B08D0FB681B681A6862
:104B1000FB681B6842F00E021A600FE0FB681B681E
:104B20001A68FB681B6822F004021A60FB681B68A5
:104B30001A68FB681B6842F00A021A60FB681B686F
:104B40001A68FB681B6842F001021A6005E0FB6806
:104B5000002283F820200223FB75FB7D18461837BE
:104B6000BD4680BD80B584B000AF78607B68DB6BEC
:104B70001B68FB607B681B681B68BB607B681B6CE9
:104B800004229A40FB681340002B4FD0BB6803F00F
:104B90000403002B4AD07B681B681B6803F02003CA
:104BA000002B07D17B681B681A687B681B6822F0A2
:104BB00004021A607B681B68664A934229D07B68AE
:104BC0001B68654A934222D07B681B68634A934204
:104BD0001AD07B681B68624A934212D07B681B68BC
:104BE000604A93420AD07B681B685F4A934202D1B5
:104BF0004FF480030EE04FF080630BE04FF480230E
:104C000008E04FF4804305E04FF4806302E0402366
:104C100000E00423554A53607B68DB6A002B00F0F8
:104C200094807B68DB6A786898478EE07B681B6CB1
:104C300002229A40FB681340002B56D0BB6803F059
:104C40000203002B51D07B681B681B6803F0200314
:104C5000002B0BD17B681B681A687B681B6822F0ED
:104C60000A021A607B68012283F821207B681B6896
:104C7000384A934229D07B681B68374A934222D036
:104C80007B681B68354A93421AD07B681B68344A9C
:104C9000934212D07B681B68324A93420AD07B68E9
:104CA0001B68314A934202D14FF400130EE04FF0DB
:104CB00000730BE04FF4003308E04FF4005305E0BD
:104CC0004FF4007302E0202300E00223274A5360E0
:104CD0007B68002283F820207B689B6A002B34D0FD
:104CE0007B689B6A786898472FE07B681B6C08227A
:104CF0009A40FB681340002B28D0BB6803F00803E0
:104D0000002B23D07B681B681A687B681B6822F025
:104D10000E021A607B681A6C7B68DB6B012101FA5A
:104D200002F25A607B6801229A637B68012283F851
:104D300021207B68002283F820207B681B6B002BDE
:104D400004D07B681B6B7868984700BF00BF1037A2
:104D5000BD4680BD080002401C00024030000240F9
:104D600044000240580002406C0002400000024033
:104D700080B485B000AFF860B9607A603B60FB68D2
:104D80001A6CFB68DB6B012101FA02F25A60FB68C6
:104D90001B683A685A60FB685B68102B08D1FB6897
:104DA0001B687A689A60FB681B68BA68DA6007E07B
:104DB000FB681B68BA689A60FB681B687A68DA60EF
:104DC00000BF1437BD4680BC7047000080B48BB074
:104DD00000AF7860396000237B6200233B6269E1A9
:104DE00001227B6A02FA03F3FB613B681B68FA69E4
:104DF0001340BB61BA69FB699A4240F058813B6835
:104E00005B689A4A93425ED0984A934275D8984A12
:104E1000934258D0964A93426FD8964A934252D0C2
:104E2000944A934269D8944A93424CD0924A93420E
:104E300063D8924A934246D0904A93425DD8122B4F
:104E40002AD8122B59D801A252F823F0C74E0008D5
:104E5000A14E0008B34E0008F54E0008FB4E0008B6
:104E6000FB4E0008FB4E0008FB4E0008FB4E0008FE
:104E7000FB4E0008FB4E0008FB4E0008FB4E0008EE
:104E8000FB4E0008FB4E0008FB4E0008FB4E0008DE
:104E9000A94E0008BD4E0008794A934213D02CE079
:104EA0003B68DB683B6229E03B68DB6804333B62BC
:104EB00024E03B68DB6808333B621FE03B68DB684B
:104EC0000C333B621AE03B689B68002B02D1042341
:104ED0003B6213E03B689B68012B05D108233B62D2
:104EE0007B68FA691A6109E008233B627B68FA690A
:104EF0005A6103E000233B6200E000BFBB69FF2B67
:104F000001D87B6801E07B6804337B61BB69FF2BC0
:104F100002D87B6A9B0002E07B6A083B9B003B61F6
:104F20007B691A680F213B6901FA03F3DB431A40DE
:104F3000396A3B6901FA03F31A437B691A603B68DB
:104F40005B6803F08053002B00F0B1804D4B9B69F0
:104F50004C4A43F0010393614A4B9B6903F0010300
:104F6000BB60BB68484A7B6A9B08023352F8233017
:104F7000FB607B6A03F003039B000F2202FA03F33A
:104F8000DB43FA681340FB607B68404A934213D0CE
:104F90007B683F4A93420DD07B683E4A934207D0DC
:104FA0007B683D4A934201D1032306E0042304E0D9
:104FB000022302E0012300E000237A6A02F00302E8
:104FC00092009340FA681343FB602F497B6A9B0869
:104FD0000233FA6841F823203B685B6803F48013CE
:104FE000002B06D02D4B9A682C49BB6913438B606C
:104FF00006E02A4B9A68BB69DB43284913408B6063
:105000003B685B6803F40013002B06D0234BDA687F
:105010002249BB691343CB6006E0204BDA68BB69C9
:10502000DB431E491340CB603B685B6803F40033ED
:10503000002B06D0194B5A681849BB6913434B60C3
:1050400006E0164B5A68BB69DB43144913404B60BA
:105050003B685B6803F48033002B21D00F4B1A6848
:105060000E49BB6913430B6021E000BF0000321002
:10507000000031100000221000002110000012106A
:105080000000111000100240000001400008014023
:10509000000C0140001001400014014000040140D8
:1050A0000B4B1A68BB69DB43094913400B607B6AF1
:1050B00001337B623B681A687B6A22FA03F3002B98
:1050C0007FF48EAE00BF00BF2C37BD4680BC70475A
:1050D0000004014080B483B000AF78600B467B8051
:1050E00013467B707B78002B03D07A887B681A612B
:1050F00003E07B881A047B681A6100BF0C37BD4649
:1051000080BC704780B485B000AF78600B467B8070
:105110007B68DB68FB607A88FB6813401A04FB68D5
:10512000D9437B880B401A437B681A6100BF143750
:10513000BD4680BC7047000080B584B000AF786089
:105140007B68002B01D101232BE17B6893F83D3074
:10515000DBB2002B06D17B68002283F83C20786804
:10516000FEF7BEFB7B68242283F83D207B681B682A
:105170001A687B681B6822F001021A607B681B6852
:105180001A687B681B6842F400421A607B681B68DF
:105190001A687B681B6822F400421A6001F032F83A
:1051A000F8607B685B68814A934207D8FB68804A55
:1051B000934294BF01230023DBB206E0FB687D4AE3
:1051C000934294BF01230023DBB2002B01D00123C3
:1051D000E7E0FB68784AA2FB03239B0CBB607B687B
:1051E0001B685B6823F03F017B681B68BA680A4351
:1051F0005A607B681B681B6A23F03F017B685B6811
:105200006A4A934202D8BB68013309E0BB684FF495
:10521000967202FB03F3694AA2FB03239B09013345
:105220007A6812680B4313627B681B68DB6923F49E
:105230004F4222F0FF027B685B685C498B4219D8C1
:10524000FB68591E7B685B685B00B1FBF3F3591C7C
:1052500040F6FC730B40002B0AD0FB68591E7B689C
:105260005B685B00B1FBF3F30133C3F30B0351E065
:1052700004234FE07B689B68002B11D1FB68581E0C
:105280007B6859680B465B000B44B0FBF3F30133BA
:10529000C3F30B03002B0CBF01230023DBB212E08E
:1052A000FB68581E7B6859680B469B000B449900AD
:1052B0000B44B0FBF3F30133C3F30B03002B0CBF20
:1052C00001230023DBB2002B01D0012322E07B6805
:1052D0009B68002B0ED1FB68581E7B6859680B46F3
:1052E0005B000B44B0FBF3F30133C3F30B0343F454
:1052F00000430FE0FB68581E7B6859680B469B0013
:105300000B4499000B44B0FBF3F30133C3F30B03DD
:1053100043F44043796809681343CB617B681B6899
:105320001B6823F0C0017B68DA697B681B6A1A433B
:105330007B681B680A431A607B681B689B6823F4C0
:10534000034323F0FF037A6811697A68D268114336
:105350007A6812680B4393607B681B68DB6823F0F4
:10536000FF017B685A697B689B691A437B681B68ED
:105370000A43DA607B681B681A687B681B6842F026
:1053800001021A607B6800221A647B68202283F87D
:105390003D207B6800221A637B68002283F83E2050
:1053A000002318461037BD4680BD00BFA08601000F
:1053B0007F841E00FF083D0083DE1B43D34D621037
:1053C00080B588B002AFF8607A601A460B467B81E0
:1053D00013463B81FEF760FD7861FB6893F83D3032
:1053E000DBB2202B40F0E0807B690093192301227F
:1053F0007049F86800F064F90346002B01D00223DD
:10540000D3E0FB6893F83C30012B01D10223CCE0C0
:10541000FB68012283F83C20FB681B681B6803F0D3
:105420000103012B07D0FB681B681A68FB681B6827
:1054300042F001021A60FB681B681A68FB681B686F
:1054400022F400621A60FB68212283F83D20FB6889
:10545000102283F83E20FB6800221A64FB687A68F9
:105460005A62FB683A895A85FB685B8D9AB2FB6881
:105470001A85FB68504ADA6279897B693A6AF8686A
:1054800000F09CF80346002B01D001238DE000239F
:105490003B61FB681B685B693B61FB681B689B6940
:1054A0003B613B6966E07A69396AF86800F022FA84
:1054B0000346002B0DD0FB681B6C042B07D1FB6847
:1054C0001B681A68FB681B6842F400721A600123AB
:1054D0006BE0FB685B6A1A78FB681B681A61FB6803
:1054E0005B6A5A1CFB685A62FB685B8D9BB2013B8E
:1054F0009AB2FB685A85FB681B8D013B9AB2FB6828
:105500001A85FB681B685B6903F00403042B1BD13D
:10551000FB681B8D002B17D0FB685B6A1A78FB6851
:105520001B681A61FB685B6A5A1CFB685A62FB685D
:105530005B8D9BB2013B9AB2FB685A85FB681B8D61
:10554000013B9AB2FB681A857A69396AF86800F0FB
:1055500019FA0346002B0DD0FB681B6C042B07D1F6
:10556000FB681B681A68FB681B6842F400721A60CB
:1055700001231AE0FB681B8D002B94D1FB681B688C
:105580001A68FB681B6842F400721A60FB682022EC
:1055900083F83D20FB68002283F83E20FB68002250
:1055A00083F83C20002300E0022318461837BD464C
:1055B00080BD00BF020010000000FFFF80B588B072
:1055C00002AFF8607A603B600B467B81FB68DB6A68
:1055D0007B617B69082B06D07B69012B03D07B693B
:1055E00013F5803F08D1FB681B681A68FB681B68CD
:1055F00042F480721A600BE0FB681B6B122B07D120
:10560000FB681B681A68FB681B6842F480721A60AA
:105610003B6800937B6800224FF00111F86800F0AE
:105620004FF80346002B0DD0FB681B681B6803F482
:105630008073B3F5807F03D1FB684FF400721A6466
:10564000032335E0FB681B69B3F5804F08D17B89E4
:10565000DBB21A46FB681B6802F0FE021A611BE00F
:105660007B89DB11DBB203F00603DBB263F00F03CF
:10567000DAB2FB681B681A613B687A680E49F86801
:1056800000F098F80346002B01D0012310E07B893D
:10569000DAB2FB681B681A613B687A680749F868E8
:1056A00000F088F80346002B01D0012300E000231E
:1056B00018461837BD4680BD0800010002000100F1
:1056C00080B584B000AFF860B9603B601346FB71F1
:1056D00048E03B68B3F1FF3F44D0FEF7DDFB0246F4
:1056E000BB69D31A3A689A4202D33B68002B39D17E
:1056F000BB681B0CDBB2012B0DD1FB681B685B691F
:10570000DA43BB6813409BB2002B0CBF012300237C
:10571000DBB21A460CE0FB681B689B69DA43BB6886
:1057200013409BB2002B0CBF01230023DBB21A46AF
:10573000FB799A4216D1FB6800221A63FB6820228B
:1057400083F83D20FB68002283F83E20FB681B6C39
:1057500043F02002FB681A64FB68002283F83C20B7
:10576000012323E0BB681B0CDBB2012B0DD1FB68CE
:105770001B685B69DA43BB6813409BB2002B0CBF0C
:1057800001230023DBB21A460CE0FB681B689B690F
:10579000DA43BB6813409BB2002B0CBF01230023EC
:1057A000DBB21A46FB799A4293D000231846103791
:1057B000BD4680BD80B584B000AFF860B9607A6046
:1057C0003B6071E0FB681B685B6903F48063B3F5C1
:1057D000806F23D1FB681B681A68FB681B6842F462
:1057E00000721A60FB681B686FF480625A61FB6884
:1057F00000221A63FB68202283F83D20FB68002208
:1058000083F83E20FB681B6C43F00402FB681A64BB
:10581000FB68002283F83C20012367E07B68B3F13A
:10582000FF3F41D0FEF738FB02463B68D31A7A6847
:105830009A4202D37B68002B36D1BB681B0CDBB2CB
:10584000012B0CD1FB681B685B69DA43BB68134012
:105850009BB2002B14BF01230023DBB20BE0FB68DB
:105860001B689B69DA43BB6813409BB2002B14BFD3
:1058700001230023DBB2002B16D0FB6800221A6341
:10588000FB68202283F83D20FB68002283F83E203D
:10589000FB681B6C43F02002FB681A64FB68002263
:1058A00083F83C20012321E0BB681B0CDBB2012BF9
:1058B0000CD1FB681B685B69DA43BB6813409BB281
:1058C000002B14BF01230023DBB20BE0FB681B6835
:1058D0009B69DA43BB6813409BB2002B14BF0123C2
:1058E0000023DBB2002B7FF46DAF00231846103786
:1058F000BD4680BD80B584B000AFF860B9607A6005
:1059000034E0F86800F086F80346002B01D001234C
:1059100034E0BB68B3F1FF3F28D0FEF7BDFA024682
:105920007B68D31ABA689A4202D3BB68002B1DD198
:10593000FB681B685B6903F08003802B16D0FB6853
:1059400000221A63FB68202283F83D20FB680022B6
:1059500083F83E20FB681B6C43F02002FB681A644E
:10596000FB68002283F83C20012307E0FB681B68EA
:105970005B6903F08003802BC3D1002318461037E6
:10598000BD4680BD80B584B000AFF860B9607A6074
:1059900034E0F86800F03EF80346002B01D0012304
:1059A00034E0BB68B3F1FF3F28D0FEF775FA02463A
:1059B0007B68D31ABA689A4202D3BB68002B1DD108
:1059C000FB681B685B6903F00403042B16D0FB68BB
:1059D00000221A63FB68202283F83D20FB68002226
:1059E00083F83E20FB681B6C43F02002FB681A64BE
:1059F000FB68002283F83C20012307E0FB681B685A
:105A00005B6903F00403042BC3D10023184610374D
:105A1000BD4680BD80B483B000AF78607B681B68F2
:105A20005B6903F48063B3F5806F1BD17B681B68EF
:105A30006FF480625A617B6800221A637B682022BF
:105A400083F83D207B68002283F83E207B681B6C36
:105A500043F004027B681A647B68002283F83C20D0
:105A6000012300E0002318460C37BD4680BC704778
:105A700080B586B000AF78607B68002B01D1012330
:105A800072E27B681B6803F00103002B00F0878043
:105A9000924B5B6803F00C03042B0CD08F4B5B68BC
:105AA00003F00C03082B12D18C4B5B6803F480339A
:105AB000B3F5803F0BD1894B1B6803F40033002BF7
:105AC0006CD07B685B68002B68D101234CE27B685B
:105AD0005B68B3F5803F06D1804B1B687F4A43F477
