:020000040800F2
:10000000005000203D430008DD3F0008E53F0008A8
:10001000ED3F0008F53F0008FD3F0008000000002C
:100020000000000000000000000000000540000883
:1000300011400008000000001D4000082940000891
:100040008543000885430008854300088543000870
:100050008543000885430008854300088543000860
:1000600085430008854300088543000835400008A3
:100070008543000885430008854300088543000840
:100080008543000885430008854300088543000830
:100090008543000885430008854300088543000820
:1000A000854300084940000885430008854300084F
:1000B00085430008854300085D400008854300082B
:1000C00085430008854300088543000885430008F0
:1000D00085430008854300088543000885430008E0
:1000E00085430008854300088543000800000000A0
:1000F0000000000000000000000000000000000000
:0C01000000000000000000005FF808F1A3
:1001100010B5054C237833B9044B13B10448AFF341
:1001200000800123237010BD980000200000000013
:100130008CB0000808B5034B1BB103490348AFF36B
:10014000008008BD000000009C0000208CB000086A
:1001500081F0004102E000BF83F0004330B54FEA78
:1001600041044FEA430594EA050F08BF90EA020FE5
:100170001FBF54EA000C55EA020C7FEA645C7FEA78
:10018000655C00F0E2804FEA5454D4EB5555B8BF9B
:100190006D420CDD2C4480EA020281EA030382EA0C
:1001A000000083EA010180EA020281EA0303362D9E
:1001B00088BF30BD11F0004F4FEA01314FF4801C71
:1001C0004CEA113102D0404261EB410113F0004F83
:1001D0004FEA03334CEA133302D0524263EB43033A
:1001E00094EA050F00F0A780A4F10104D5F1200ED8
:1001F0000DDB02FA0EFC22FA05F2801841F1000133
:1002000003FA0EF2801843FA05F359410EE0A5F106
:1002100020050EF1200E012A03FA0EFC28BF4CF037
:10022000020C43FA05F3C01851EBE37101F00045ED
:1002300007D54FF0000EDCF1000C7EEB00006EEBFA
:100240000101B1F5801F1BD3B1F5001F0CD3490884
:100250005FEA30004FEA3C0C04F101044FEA4452DB
:1002600012F5800F80F09A80BCF1004F08BF5FEA62
:10027000500C50F1000041EB045141EA050130BD42
:100280005FEA4C0C404141EB0101013C28BFB1F554
:10029000801FE9D291F0000F04BF01460020B1FA9F
:1002A00081F308BF2033A3F10B03B3F120020CDA72
:1002B0000C3208DD02F1140CC2F10C0201FA0CF050
:1002C00021FA02F10CE002F11402D8BFC2F1200CB5
:1002D00001FA02F120FA0CFCDCBF41EA0C0190406B
:1002E000E41AA2BF01EB0451294330BD6FEA0404B4
:1002F0001F3C1CDA0C340EDC04F11404C4F120029F
:1003000020FA04F001FA02F340EA030021FA04F3B0
:1003100045EA030130BDC4F10C04C4F1200220FA07
:1003200002F001FA04F340EA0300294630BD21FA45
:1003300004F0294630BD94F0000F83F4801306BF0B
:1003400081F480110134013D4EE77FEA645C18BFFF
:100350007FEA655C29D094EA050F08BF90EA020F96
:1003600005D054EA000C04BF1946104630BD91EA8E
:10037000030F1EBF0021002030BD5FEA545C05D191
:100380004000494128BF41F0004130BD14F58004D0
:100390003CBF01F5801130BD01F0004545F0FE4144
:1003A00041F470014FF0000030BD7FEA645C1ABF79
:1003B000194610467FEA655C1CBF0B46024650EAB0
:1003C000013406BF52EA033591EA030F41F40021DC
:1003D00030BD00BF90F0000F04BF0021704730B562
:1003E0004FF4806404F132044FF000054FF0000137
:1003F00050E700BF90F0000F04BF0021704730B5F8
:100400004FF4806404F1320410F0004548BF4042CC
:100410004FF000013EE700BF42004FEAE2014FEA21
:1004200031014FEA02701FBF12F07F4393F07F4FFC
:1004300081F06051704732F07F4208BF704793F0FF
:100440007F4F04BF41F40021704730B54FF4607412
:1004500001F0004521F000411CE700BF50EA010215
:1004600008BF704730B54FF000050AE050EA0102BE
:1004700008BF704730B511F0004502D5404261EB2E
:1004800041014FF4806404F132045FEA915C3FF46F
:10049000D8AE4FF003025FEADC0C18BF03325FEA0C
:1004A000DC0C18BF033202EBDC02C2F1200300FABD
:1004B00003FC20FA02F001FA03FE40EA0E0021FAE2
:1004C00002F11444BDE600BF70B54FF0FF0C4CF4D0
:1004D000E06C1CEA11541DBF1CEA135594EA0C0F82
:1004E00095EA0C0F00F0DEF82C4481EA030621EABD
:1004F0004C5123EA4C5350EA013518BF52EA0335F8
:1005000041F4801143F4801338D0A0FB02CE4FF0A9
:100510000005E1FB02E506F00042E0FB03E54FF0D9
:100520000006E1FB03569CF0000F18BF4EF0010ED1
:10053000A4F1FF04B6F5007F64F5407404D25FEACD
:100540004E0E6D4146EB060642EAC62141EA555180
:100550004FEAC52040EA5E504FEACE2EB4F1FD0CC2
:1005600088BFBCF5E06F1ED8BEF1004F08BF5FEA40
:10057000500E50F1000041EB045170BD06F00046F2
:1005800046EA010140EA020081EA0301B4EB5C049F
:10059000C2BFD4EB0C0541EA045170BD41F4801197
:1005A0004FF0000E013C00F3AB8014F1360FDEBFBC
:1005B000002001F0004170BDC4F10004203C35DA98
:1005C0000C341BDC04F11404C4F1200500FA05F31B
:1005D00020FA04F001FA05F240EA020001F00042BC
:1005E00021F0004110EBD37021FA04F642EB060132
:1005F0005EEA430E08BF20EAD37070BDC4F10C045C
:10060000C4F1200500FA04F320FA05F001FA04F21F
:1006100040EA020001F0004110EBD37041F100010B
:100620005EEA430E08BF20EAD37070BDC4F1200516
:1006300000FA05F24EEA020E20FA04F301FA05F27E
:1006400043EA020321FA04F001F0004121FA04F226
:1006500020EA020000EBD3705EEA430E08BF20EAF6
:10066000D37070BD94F0000F0FD101F00046400030
:1006700041EB010111F4801F08BF013CF7D041EAB2
:10068000060195F0000F18BF704703F000465200B6
:1006900043EB030313F4801F08BF013DF7D043EA87
:1006A0000603704794EA0C0F0CEA135518BF95EA3D
:1006B0000C0F0CD050EA410618BF52EA4306D1D1C4
:1006C00081EA030101F000414FF0000070BD50EAE3
:1006D000410606BF1046194652EA430619D094EA6D
:1006E0000C0F02D150EA013613D195EA0C0F05D157
:1006F00052EA03361CBF104619460AD181EA0301AB
:1007000001F0004141F0FE4141F470014FF0000062
:1007100070BD41F0FE4141F4780170BD70B54FF0FD
:10072000FF0C4CF4E06C1CEA11541DBF1CEA13557D
:1007300094EA0C0F95EA0C0F00F0A7F8A4EB05045F
:1007400081EA030E52EA03354FEA013100F0888056
:100750004FEA03334FF0805545EA131343EA12631F
:100760004FEA022245EA111545EA10654FEA0026D4
:100770000EF000419D4208BF964244F1FD0404F58D
:10078000407402D25B084FEA3202B61A65EB0305E9
:100790005B084FEA32024FF480104FF4002CB6EBA6
:1007A000020E75EB030E22BFB61A754640EA0C0026
:1007B0005B084FEA3202B6EB020E75EB030E22BF66
:1007C000B61A754640EA5C005B084FEA3202B6EBA7
:1007D000020E75EB030E22BFB61A754640EA9C0066
:1007E0005B084FEA3202B6EB020E75EB030E22BF36
:1007F000B61A754640EADC0055EA060E18D04FEAF4
:10080000051545EA16754FEA06164FEAC30343EA93
:1008100052734FEAC2025FEA1C1CC0D111F4801F60
:100820000BD141EA00014FF000004FF0004CB6E759
:1008300011F4801F04BF01430020B4F1FD0C88BFF8
:10084000BCF5E06F3FF6AFAEB5EB030C04BFB6EB03
:10085000020C5FEA500C50F1000041EB045170BDF6
:100860000EF0004E4EEA113114EB5C04C2BFD4EB23
:100870000C0541EA045170BD41F480114FF0000EA7
:10088000013C90E645EA060E8DE60CEA135594EA23
:100890000C0F08BF95EA0C0F3FF43BAF94EA0C0F26
:1008A0000AD150EA01347FF434AF95EA0C0F7FF49B
:1008B00025AF104619462CE795EA0C0F06D152EAEF
:1008C00003353FF4FDAE1046194622E750EA4106D3
:1008D00018BF52EA43067FF4C5AE50EA41047FF4E4
:1008E0000DAF52EA43057FF4EBAE12E74FF0FF3C49
:1008F00006E000BF4FF0010C02E000BF4FF0010C1A
:100900004DF804CD4FEA410C7FEA6C5C4FEA430C92
:1009100018BF7FEA6C5C1BD001B050EA410C0CBFE1
:1009200052EA430C91EA030F02BF90EA020F002043
:10093000704710F1000F91EA030F58BF994208BFAA
:1009400090422CBFD8176FEAE37040F00100704767
:100950004FEA410C7FEA6C5C02D150EA013C07D1BE
:100960004FEA430C7FEA6C5CD6D152EA033CD3D009
:100970005DF8040B704700BF8446104662468C4603
:100980001946634600E000BF01B5FFF7B7FF002836
:1009900048BF10F1000F01BD4DF808EDFFF7F4FF5F
:1009A0000CBF012000205DF808FB00BF4DF808EDEA
:1009B000FFF7EAFF34BF012000205DF808FB00BF0D
:1009C0004DF808EDFFF7E0FF94BF012000205DF82F
:1009D00008FB00BF4DF808EDFFF7CEFF94BF0120E4
:1009E00000205DF808FB00BF4DF808EDFFF7C4FFDD
:1009F00034BF012000205DF808FB00BF4FEA410C26
:100A00007FEA6C5C02D150EA013C0AD14FEA430C08
:100A10007FEA6C5C02D152EA033C02D14FF0000045
:100A200070474FF0010070474FEA410212F5001283
:100A300015D211D56FF47873B3EB625212D94FEA25
:100A4000C12343F0004343EA505311F0004F23FA0F
:100A500002F018BF404270474FF00000704750EA64
:100A6000013005D111F0004008BF6FF00040704721
:100A70004FF00000704700BF80F0004002E000BF70
:100A800081F0004142001FBF5FEA410392EA030F79
:100A90007FEA226C7FEA236C6AD04FEA1262D2EBC3
:100AA0001363C1BFD218414048404140B8BF5B42C8
:100AB000192B88BF704710F0004F40F4000020F061
:100AC0007F4018BF404211F0004F41F4000121F077
:100AD0007F4118BF494292EA030F3FD0A2F10102C1
:100AE00041FA03FC10EB0C00C3F1200301FA03F1FF
:100AF00000F0004302D5494260EB4000B0F5000F22
:100B000013D3B0F1807F06D340084FEA310102F1E0
:100B10000102FE2A51D2B1F1004F40EBC25008BF92
:100B200020F0010040EA03007047490040EB00005C
:100B3000013A28BFB0F5000FEDD2B0FA80FCACF15D
:100B4000080CB2EB0C0200FA0CF0AABF00EBC2508A
:100B500052421843BCBFD0401843704792F0000F78
:100B600081F4000106BF80F400000132013BB5E7CB
:100B70004FEA41037FEA226C18BF7FEA236C21D041
:100B800092EA030F04D092F0000F08BF08467047A6
:100B900090EA010F1CBF0020704712F07F4F04D174
:100BA000400028BF40F00040704712F100723CBF87
:100BB00000F50000704700F0004343F0FE4040F4B1
:100BC000000070477FEA226216BF08467FEA23636F
:100BD0000146420206BF5FEA412390EA010F40F45A
:100BE000800070474FF0000304E000BF10F00043A6
:100BF00048BF40425FEA000C08BF704743F096438D
:100C000001464FF000001CE050EA010208BF7047A7
:100C10004FF000030AE000BF50EA010208BF70472E
:100C200011F0004302D5404261EB41015FEA010C43
:100C300002BF84460146002043F0B64308BFA3F13B
:100C40008053A3F50003BCFA8CF2083AA3EBC2531D
:100C500010DB01FA02FC634400FA02FCC2F120023C
:100C6000BCF1004F20FA02F243EB020008BF20F073
:100C70000100704702F1200201FA02FCC2F12002D9
:100C800050EA4C0021FA02F243EB020008BF20EACE
:100C9000DC7070474FF0FF0C1CEAD0521EBF1CEAFC
:100CA000D15392EA0C0F93EA0C0F6FD01A4480EAEA
:100CB000010C400218BF5FEA41211ED04FF00063D3
:100CC00043EA501043EA5111A0FB01310CF00040FF
:100CD000B1F5000F3EBF490041EAD3715B0040EA25
:100CE000010062F17F02FD2A1DD8B3F1004F40EBF5
:100CF000C25008BF20F00100704790F0000F0CF0C8
:100D0000004C08BF49024CEA502040EA51207F3A8B
:100D1000C2BFD2F1FF0340EAC250704740F4000066
:100D20004FF00003013A5DDC12F1190FDCBF00F057
:100D300000407047C2F10002410021FA02F1C2F105
:100D4000200200FA02FC5FEA310040F1000053EAA1
:100D50004C0308BF20EADC70704792F0000F00F0EF
:100D6000004C02BF400010F4000F013AF9D040EAF5
:100D70000C0093F0000F01F0004C02BF490011F489
:100D8000000F013BF9D041EA0C018FE70CEAD15387
:100D900092EA0C0F18BF93EA0C0F0AD030F0004C07
:100DA00018BF31F0004CD8D180EA010000F00040BB
:100DB000704790F0000F17BF90F0004F084691F079
:100DC000000F91F0004F14D092EA0C0F01D14202B3
:100DD0000FD193EA0C0F03D14B0218BF084608D17C
:100DE00080EA010000F0004040F0FE4040F40000C6
:100DF000704740F0FE4040F4400070474FF0FF0C59
:100E00001CEAD0521EBF1CEAD15392EA0C0F93EA9F
:100E10000C0F69D0A2EB030280EA010C49024FEAF1
:100E2000402037D04FF0805343EA111143EA1013AA
:100E30000CF000408B4238BF5B0042F17D024FF462
:100E4000000C8B4224BF5B1A40EA0C00B3EB510F3D
:100E500024BFA3EB510340EA5C00B3EB910F24BF26
:100E6000A3EB910340EA9C00B3EBD10F24BFA3EBAB
:100E7000D10340EADC001B0118BF5FEA1C1CE0D173
:100E8000FD2A3FF650AF8B4240EBC25008BF20F026
:100E9000010070470CF0004C4CEA50207F32C2BF7A
:100EA000D2F1FF0340EAC250704740F400004FF017
:100EB0000003013A37E792F0000F00F0004C02BF48
:100EC000400010F4000F013AF9D040EA0C0093F012
:100ED000000F01F0004C02BF490011F4000F013B6C
:100EE000F9D041EA0C0195E70CEAD15392EA0C0FD4
:100EF00008D142027FF47DAF93EA0C0F7FF470AF0C
:100F0000084676E793EA0C0F04D14B023FF44CAF4E
:100F100008466EE730F0004C18BF31F0004CCAD1E3
:100F200030F000427FF45CAF31F000437FF43CAF1F
:100F30005FE700BF4FF0FF3C06E000BF4FF0010C41
:100F400002E000BF4FF0010C4DF804CD4FEA400223
:100F50004FEA41037FEA226C18BF7FEA236C11D06D
:100F600001B052EA530C18BF90EA010F58BFB2EB20
:100F7000030088BFC81738BF6FEAE17018BF40F0A0
:100F8000010070477FEA226C02D15FEA402C05D154
:100F90007FEA236CE4D15FEA412CE1D05DF8040BD9
:100FA000704700BF844608466146FFE70FB5FFF76C
:100FB000C9FF002848BF10F1000F0FBD4DF808ED24
:100FC000FFF7F4FF0CBF012000205DF808FB00BF15
:100FD0004DF808EDFFF7EAFF34BF012000205DF86F
:100FE00008FB00BF4DF808EDFFF7E0FF94BF0120BC
:100FF00000205DF808FB00BF4DF808EDFFF7D2FFB9
:1010000094BF012000205DF808FB00BF4DF808EDFB
:10101000FFF7C8FF34BF012000205DF808FB00BFC8
:101020004FEA4002B2F1FE4F0FD34FF09E03B3EBF5
:1010300012620DD94FEA002343F0004310F0004F35
:1010400023FA02F018BF404270474FF0000070478B
:1010500012F1610F01D1420205D110F0004008BF2A
:101060006FF0004070474FF00000704742000ED212
:10107000B2F1FE4F0BD34FF09E03B3EB126209D4D3
:101080004FEA002343F0004323FA02F070474FF089
:101090000000704712F1610F01D1420202D14FF0FE
:1010A000FF3070474FF00000704700BF80B582B03E
:1010B00000AF78608021404804F0F4FA3F4B1B7881
:1010C0000133DAB23D4B1A703D4B1B889BB21A4676
:1010D0003C4B1B6813443B4A1360394B5B889BB203
:1010E0001A46394B1B681344374A1360344BDB886C
:1010F0009BB21A46354B1B681344344A1360304B7D
:101100009B889BB21A46324B1B681344304A1360CB
:101110002B4B1B899BB21A462E4B1B6813442D4A3E
:101120001360264B1B78092B41D9264B1B682A4A92
:10113000A2FB0323DB089AB2284B1A80224B1B68C0
:10114000254AA2FB0323DB089AB2254B1A801F4BCA
:101150001B68214AA2FB0323DB089AB2214B1A80A9
:101160001B4B1B681C4AA2FB0323DB089AB21E4BD5
:101170001A80184B1B68184AA2FB0323DB089AB29B
:101180001A4B1A801A4B01221A700E4B00221A6059
:101190000D4B00221A600D4B00221A600C4B0022EE
:1011A0001A600C4B00221A60044B00221A7000BF18
:1011B0000837BD4680BD00BF000801400401002083
:1011C000B4000020C0000020C4000020C80000209F
:1011D000CC000020D0000020CDCCCCCCD40000200E
:1011E000D6000020D8000020DA000020DC0000201B
:1011F000050100200000000080B582B000AF964BD2
:101200001B78002B00F01281944B1B881846FFF7C7
:10121000EDFC034692491846FFF7F0FD03461846D9
:10122000FFF724FF03469AB28E4B1A808D4B1B8822
:101230007B607B685B027B607B685B0A7B607B68B2
:101240009AB2894B1A80894B1B881846FFF7CEFC4F
:10125000034687491846FFF7D1FD03461846FFF7B6
:1012600005FF03469AB2834B1A80824B1B887B6032
:101270007B685B027B607B685B0A7B607B689AB201
:101280007D4B1A807D4B1B881846FFF7AFFC034649
:101290007B491846FFF7B2FD03461846FFF7E6FE06
:1012A00003469AB2774B1A80764B1B887B607B682B
:1012B0005B027B607B685B0A7B607B689AB2724BE7
:1012C0001A80724B1B881846FFF790FC0346704942
:1012D0001846FFF793FD03461846FFF7C7FE03467F
:1012E0009AB26C4B1A806B4B1B887B607B685B02ED
:1012F0007B607B685B0A7B607B689AB2664B1A8076
:10130000664B1B881846FFF771FC03466449184674
:10131000FFF7C0FC03461A46624B1A60614B1B681C
:1013200061491846FFF754FE0346002B02D05D4B7F
:101330005D4A1A605B4B1B6819465C48FFF75EFD0F
:1013400003465B491846FFF79BFB03461A46594B79
:101350001A60584B1B684FF000011846FFF742FE19
:101360000346002B03D0534B4FF07E521A60514B73
:101370001B6851491846FFF741FD03461846FFF721
:101380004BF802460B461046194609F053FC2AA3B7
:10139000D3E90023FFF798F802460B46104619469A
:1013A00027A3D3E90023FEF7D9FE02460B4626A168
:1013B000D1E90001FFF7B2F902460B461046194683
:1013C00023A3D3E90023FEF7C7FE02460B461046CF
:1013D0001946FFF729FB0346384A13602A4B1B883E
:1013E000214A128802FB03F39AB2354B1A802A4B2A
:1013F0001B88214A128802FB03F39AB2314B1A80F0
:101400001D4B1B881A46642302FB03F32E4A82FB02
:1014100003129211DB17D31A9AB22C4B1A800E4B7F
:1014200000221A702A4B01221A7000E000BF083710
:10143000BD4680BDAFF300800000006066A2724030
:101440000000000000DCAE40000000805CF831418C
:10145000000000606612714005010020D4000020E9
:101460009A991941E0000020EE000020D6000020EB
:1014700000001841DE000020EC000020D800002011
:10148000CDCC8041E4000020F2000020DA000020F2
:101490009A995141E2000020F0000020DC00002079
:1014A0006740533AE80000206F12833A00B0FD46CF
:1014B00000C019460001002000401C46F800002032
:1014C000F6000020F4000020398EE338FC000020F4
:1014D0003703002080B584B000AFF8607B600B4616
:1014E000FB721346BB72FB7A292B04D1BB7A1846D8
:1014F00002F0ACFF00BF012318461037BD4680BD87
:1015000080B588B002AFF8607B600B46FB72134673
:10151000BB72FB7A192B2ED0192B39DC172B02D07A
:10152000182B18D034E07B687B6110E01C4B1B78D3
:101530005A1CD1B21A4A11701A467B691978194B94
:1015400099547B6901337B61BB7A013BBB72BB7AE7
:10155000002BEBD11EE0124B00221A70104B1B78AF
:101560001A464FF47A73009313460E4A78210E48B8
:1015700004F0F6F90EE00A4B1B781A464FF47A7322
:1015800000931346074A7821074804F0E9F901E07F
:10159000002300E0012318461837BD4680BD00BF78
:1015A000180100201C010020B001002080B582B08D
:1015B00002AF354B354A3649364806F019FC0A2049
:1015C00002F044FF334808F0EAF80A2002F03EFF38
:1015D0000021304808F0F2F84023009380230022D5
:1015E00000212C4806F015FB01212A4807F05DF880
:1015F0002949284807F0B4F9284B0A220321254835
:1016000007F010F9264B14220321224807F00AF9AB
:101610002449204807F0A4F9234B1B6899B2234BB7
:101620003C221C4807F0FEF821491A4807F098F9B7
:10163000204B3A220321174807F0F4F8382300938F
:10164000252338221021134807F02EFB1A4B019353
:10165000182300931823002268210E4806F096FAFA
:101660000C4806F0A6FB40F2DC5002F0EFFE1349F6
:10167000084807F075F9124B39223B21054807F05D
:10168000D1F800BFBD4680BDD51400080115000883
:1016900090D4000894020020E8D00008A4B000080C
:1016A000B8B00008BCCC000800000020D0B0000892
:1016B0004CBE0008E0B00008C4B10008F0C8000843
:1016C000E4B0000880B584B002AF00237B603FE047
:1016D00000233B6036E0224806F0F8FA012120485A
:1016E00006F0B5F901211E4806F0DFFF1D4A3B68F0
:1016F00052F823300193402300934023002200211D
:10170000174806F043FA1849154807F029F9174B0E
:101710001B223D21124807F085F8154B26223D215A
:101720000F4807F07FF8134B30223D210C4807F09B
:1017300079F80B4806F03DFB192002F087FE3B6864
:1017400001333B603B68052BC5DD7B6801337B6063
:101750007B68032BBCDD00BF00BF0837BD4680BDE2
:101760009402002004000020F0C80008F0B0000837
:10177000F8B0000804B1000890B583B000AF04468B
:10178000084611461A462346FB710346BB710B46B9
:10179000BB801346FB70FB78042B61D801A252F882
:1017A00023F000BFB9170008E9170008191800084E
:1017B0002718000835180008BB88304AA2FB03230D
:1017C000DB089BB21846BA882C4BA3FB0213D9083E
:1017D0000B469B000B445B00D31A9BB20246284980
:1017E000284808F069F93CE0BB88244AA2FB03239F
:1017F000DB089BB21846BA88204BA3FB0213D9081A
:101800000B469B000B445B00D31A9BB202461E4959
:101810001C4808F051F924E0BA88B0231B49194844
:1018200008F04AF91DE0BB881A461949154808F026
:1018300043F916E0BB88174AA2FB03235B099BB25E
:101840001846BB88134AA2FB03125209642101FB0C
:1018500002F29B1A9BB202460F490A4808F02CF983
:1018600000BFFB7999B2BB799AB2064B0B4806F0E0
:10187000D9FF00BF0C37BD4690BD00BFCDCCCCCC4E
:1018800008B100080801002014B1000820B10008C8
:1018900028B100081F85EB5130B1000894020020E8
:1018A00080B582B002AF4D4806F010FA4023009395
:1018B000802300220021494806F0ABF9484B0193F0
:1018C0000C2300930F2302220A21444806F05EF9FC
:1018D000444B01930C2300931023022238213F48EC
:1018E00006F054F9404B01930C2300930F2302227E
:1018F00067213A4806F04AF93C49384807F030F881
:101900003B4B1A88002317210220FFF735FF394B84
:101910001A88002317216120FFF72EFF364B1A8803
:10192000012322210220FFF727FF344B1A880123CD
:1019300022216120FFF720FF314B1B689AB202235E
:1019400017213520FFF718FF2E4B1B689AB203238F
:1019500022213520FFF710FF2B4B1A8804232D215D
:101960000220FFF709FF294B1A8804232D215B2051
:10197000FFF702FF264B1A88032338216120FFF767
:10198000FBFE244B1B78002B06D0234B3822022170
:10199000124806F047FF1BE0204B1B78002B06D0B7
:1019A0001F4B382202210D4806F03CFF10E01D4B72
:1019B0001B78002B06D01C4B38220221074806F06A
:1019C00031FF05E0194B38220221044806F02AFFB6
:1019D000024806F0EEF900BFBD4680BD940200202B
:1019E0007CB1000894B10008ACB1000820C1000827
:1019F000EE000020EC000020F2000020F0000020AB
:101A0000F80000200C040020F6000020F400002064
:101A1000FC000020390300203CB100083A030020FC
:101A20004CB10008360300205CB100086CB100081E
:101A300080B500AF02F0A8FC00F086F800F086FA4E
:101A400000F06EFA00F060F900F0E6F800F01AFA23
:101A500000F088F900F0D3F802F0EEFC03461846D7
:101A600007F03AFFFFF7A2FDFFF72CFE01224FF42B
:101A700000512F4803F0FEFD2E4805F095F82E4842
:101A800005F092F808212C4805F030F904212A4885
:101A900005F02CF9294803F0BFF84FF4FA7002F072
:101AA000D5FC05222649254802F0CCFD4FF4FA70FA
:101AB00002F0CCFC00224FF400511D4803F0DAFD87
:101AC000204B1B78002B04D01E4B00221A70FFF70E
:101AD00093FB1C4B5B78002B02D01A4B00225A70F0
:101AE000184B9B78002B04D0164B00229A7001F003
:101AF000BBFD144BDB78002B04D0124B0022DA70B4
:101B0000FFF7CEFE0F4B1B79002B04D00D4B0022AC
:101B10001A7102F075FB0B4B5B79002BD0D0094B8F
:101B200000225A710421024803F0BCFDC8E700BF3F
:101B3000000C01404C020020040200203C01002067
:101B4000B40000203003002080B594B000AF07F14E
:101B5000280328220021184608F013F807F114037F
:101B600000221A605A609A60DA601A613B1D0022F6
:101B70001A605A609A60DA600123BB624FF48033C6
:101B8000FB6200233B630123BB6302237B644FF4AE
:101B90008033BB644FF4E013FB6407F1280318465D
:101BA00004F036FA0346002B01D000F0DDFA0F23D3
:101BB0007B610223BB610023FB614FF480633B62C6
:101BC00000237B6207F114030221184604F0A2FCF3
:101BD0000346002B01D000F0C7FA02237B604FF4CC
:101BE0000043FB603B1D184604F022FE0346002B19
:101BF00001D000F0B9FA00BF5037BD4680BD80B5B6
:101C000000AF022200210B2003F08BF90B2003F020
:101C1000A4F900BF80BD000080B584B000AF3B1DBB
:101C200000221A605A609A60354B364A1A60344B6B
:101C30004FF480729A60324B01221A73304B0022AB
:101C40001A752F4B4FF46022DA612D4B00225A6037
:101C50002B4B05221A612A4802F01CFC0346002B7C
:101C600001D000F081FA00237B600123BB600623D2
:101C7000FB603B1D1946224802F0D4FD0346002BB1
:101C800001D000F071FA01237B600223BB603B1D91
:101C900019461B4802F0C6FD0346002B01D000F098
:101CA00063FA04237B600323BB603B1D1946144881
:101CB00002F0B8FD0346002B01D000F055FA0823CE
:101CC0007B600423BB603B1D19460D4802F0AAFD52
:101CD0000346002B01D000F047FA09237B6005235F
:101CE000BB603B1D1946064802F09CFD0346002BD5
:101CF00001D000F039FA00BF1037BD4680BD00BFEB
:101D00003C0100200024014080B500AF124B134A73
:101D10001A60114B124A5A600F4B00229A600E4B08
:101D20000022DA600C4B4FF480421A610A4B002209
:101D30005A61094B00229A61074B0022DA61064B77
:101D400000221A62044803F0C7FC0346002B01D0AE
:101D500000F00AFA00BF80BDB0010020005400402E
:101D6000A086010080B592B000AF07F140030022C9
:101D70001A605A6007F1240300221A605A609A60C0
:101D8000DA601A615A619A613B1D202200211846CF
:101D900007F0F7FE394B3A4A1A60384B03225A6073
:101DA000364B00229A60354B40F22B12DA60334BEF
:101DB00000221A61314B00225A61304B00229A6195
:101DC0002E4804F043FF0346002B01D000F0CCF96D
:101DD00000233B6400237B6407F140031946274836
:101DE00005F074FD0346002B01D000F0BDF960231F
:101DF0007B620023BB620023FB6200233B6304235E
:101E00007B630023BB630023FB6307F124030422ED
:101E100019461A4805F0FCF80346002B01D000F0E3
:101E2000A3F907F1240308221946144805F0F0F835
:101E30000346002B01D000F097F900237B600023BC
:101E4000BB600023FB6000233B6100237B614FF4F8
:101E50000053BB614FF480433B623B1D194607486A
:101E600005F092FD0346002B01D000F07DF90348F8
:101E700002F080F800BF4837BD4680BD0402002054
:101E8000002C014080B586B000AF07F108030022A6
:101E90001A605A609A60DA603B4600221A605A6003
:101EA0001D4B1E4A1A601C4B47225A601A4B0022D7
:101EB0009A60194B40F2E732DA60174B00221A6140
:101EC000154B00229A61144804F01EFE0346002BB5
:101ED00001D000F049F94FF48053BB6007F10803CB
:101EE00019460D4805F056F90346002B01D000F0C5
:101EF0003BF900233B6000237B603B4619460648C4
:101F000005F0E4FC0346002B01D000F02DF900BFE2
:101F10001837BD4680BD00BF4C02002000080040BD
:101F200080B483B000AF084B5B69074A43F00103FC
:101F30005361054B5B6903F001037B607B6800BF65
:101F40000C37BD4680BC70470010024080B588B099
:101F500000AF07F1100300221A605A609A60DA603D
:101F60002E4B9B692D4A43F0200393612B4B9B69B9
:101F700003F02003FB60FB68284B9B69274A43F072
:101F800004039361254B9B6903F00403BB60BB68AA
:101F9000224B9B69214A43F0080393611F4B9B69C5
:101FA00003F008037B607B68002280211C4803F05B
:101FB00061FB00224EF204011A4803F05BFB802310
:101FC0003B6101237B610023BB610223FB6107F1BD
:101FD00010031946124803F0C9F904233B61012399
:101FE0007B610023BB610223FB6107F110031946EB
:101FF0000C4803F0BBF94FF460433B6101237B6164
:102000000023BB610323FB6107F110031946054858
:1020100003F0ACF900BF2037BD4680BD0010024080
:1020200000080140000C014080B582B000AF78602C
:102030007B68414A934224D1404B1B78002B15D03A
:102040003F4B1B780133DAB23D4B1A703C4B1B7887
:10205000022B02D93A4B01221A70394B1B78394AAC
:1020600012881146184601F097FD0AE0344B002211
:102070001A70354B00221A80324B00221A8001F070
:102080000BFE7B68314A934252D1314B01221A70C8
:10209000304B1B780133DAB22E4B1A702E4B1B7863
:1020A0000133DAB22C4B1A702A4B1B78042B05D95A
:1020B000274B01225A70274B00221A70264B1B789F
:1020C000092B0BD9224B01229A70244B1B78013328
:1020D000DAB2224B1A70204B00221A701F4B1B7869
:1020E000092B0BD91A4B0122DA701D4B1B780133D7
:1020F000DAB21B4B1A70194B00221A70184B1B785E
:10210000042B0BD9124B01221A71164B1B78013389
:10211000DAB2144B1A70124B00221A70114B1B7852
:10212000012B05D90A4B01225A710E4B00221A705D
:1021300000BF0837BD4680BD0402002038030020E0
:10214000050400200A040020060400204C020020A0
:102150003003002028030020290300202A03002048
:102160002B0300202C03002080B400AF72B600BF08
:1021700000BFFDE780B483B000AF0346FB800B4691
:10218000BB8013467B80FA88BB889A4201D2BB8809
:1021900006E0FA887B889A4201D97B8800E0FB88B8
:1021A00018460C37BD4680BC7047000080B500AFB4
:1021B0000C4B1B680C4A03FB02F20C4B1344094AFC
:1021C0001360084B1B6823F07F431846FEF70AFD97
:1021D00003464FF097411846FEF710FE0346184697
:1021E00080BD00BF2C0000200D6619005FF36E3C1F
:1021F00080B584B000AFFFF7D9FFF860FFF7D6FFD6
:10220000B860FFF7D3FF7860B968F868FEF73AFC6A
:10221000034679681846FEF735FC03464FF07F51B8
:102220001846FEF72DFC034604491846FEF732FD1A
:10223000034618461037BD4680BD00BF36CD933FDC
:1022400080B400AF244B00221A70244B01221A7074
:10225000234B00221A80234B00221A80224B00229B
:102260001A80224B00221A80214B00221A80214B17
:1022700000221A70204B00221A80204B00221A6084
:102280001F4B01221A701F4B01221A701E4B002295
:102290001A701E4B00221A801D4B01221A701D4B12
:1022A00000221A701C4B00221A701C4B00221A705C
:1022B0001B4B00221A601B4B4FF000021A601A4B96
:1022C0001A4A1A601A4B00221A801A4B00221A80EE
:1022D00000BFBD4680BC7047400300201C000020AA
:1022E000420300204403002046030020480300204E
:1022F0004A0300203B0300204C0300205003002031
:102300002800002029000020E0030020E203002034
:102310002A000020E4030020E5030020E60300205B
:10232000E8030020D803002020000020CDCCCC3DC5
:102330003C0300203E03002090B5B1B000AF6C4BD1
:102340001B78002B03D06B4B1B78002B03D1FFF7BE
:1023500077FF00F0F9BF684B1B88A7F85830674B30
:102360001B88A7F85630664B1B88A7F85430654B7E
:102370001B88A7F85230B7F85830B7F8562002FB40
:1023800003F3FB64B7F85830052B05D8B7F856307F
:10239000012B01D8012300E0002387F84B3097F888
:1023A0004B30002B0AD0584B1B88312B09D8564B89
:1023B0001B8801339AB2544B1A8002E0524B002220
:1023C0001A80514B1B88312B16D9504B00221A8092
:1023D0004F4B00221A804F4B00221A60FFF730FF4C
:1023E000494B00221A804C4AB7F8583013804B4AA8
:1023F000FB6C136000F0A8BF444B1A88444B1A8052
:10240000404B1B88162B25D9414B1B88002B05D030
:102410003F4B1B88013B9AB23D4B1A803C4B1A88BC
:102420003A4B1A80394B1B883D4A82FB0312DB175B
:10243000D31A384A13603B4B01221A703A4B0022E0
:102440001A80354AB7F858301380344AFB6C136051
:1024500000F07ABF2A4B1B88B3F5907F25D92C4B0F
:102460001B88002B05D02A4B1B88013B9AB2284BB6
:102470001A80274B1A88254B1A80244B1B88284A20
:1024800082FB0312DB17D31A224A1360254B012269
:102490001A70254B00221A801F4AB7F85830138053
:1024A0001E4AFB6C136000F04FBF204B1B78002BC3
:1024B00040F0A9803C23A7F848304FF4B473A7F844
:1024C0004630124B1B88B7F848209A4207D90F4A6A
:1024D000B7F8483013800E4AB7F8483013800B4BDA
:1024E0001A88134B1A800023C7F8BC304FE000BF96
:1024F0003803002039030020EE000020F200002005
:10250000EC000020F0000020420300200A0400201C
:10251000060400200C0400204C030020500300207F
:10252000ABAAAA2A1C00002044030020400300207C
:10253000EC030020FFF73AFE03464FF07C511846AB
:10254000FEF7A8FB034692491846FEF79BFA03469E
:102550001946904AD7F8BC3042F823108E4AD7F873
:10256000BC304FF0000142F823108C4AD7F8BC3041
:102570004FF0000142F82310894AD7F8BC301344C9
:1025800000221A70D7F8BC300133C7F8BC30D7F836
:10259000BC30092BCEDD834B1B881846FEF722FB8F
:1025A000034681491846FEF729FC03461A467F4B2D
:1025B0001A60F86CFEF716FB03467D4A13607D4BEC
:1025C00001221A707C4B01221A707C4B00221A7077
:1025D0007B4B00221A807B4B01221A707A4B00221F
:1025E0001A707A4B00221A70794B00221A70794BBC
:1025F00000221A60784B01221A70784B00221A8050
:10260000774B01221A70B7F85230002B14BF012308
:102610000023DBB287F8453097F84530002B0AD00D
:102620006E4B1B88092B09D86C4B1B8801339AB25F
:102630006A4B1A8002E0694B00221A80B7F85630C4
:10264000142B03D8B7F85230142B01D9012300E022
:10265000002387F84430634B1B88002B08D0B7F861
:10266000583008335F4A1288934201D2012300E0B8
:10267000002387F843305C4B1B68002B09D0B7F868
:102680005620FB6C1A44584B1B689A4201D8012310
:1026900000E0002387F8423097F84430002B16D032
:1026A00097F84330002B12D097F84230002B0ED011
:1026B0003C4B1B88002B0AD04C4B1B884F2B10D84F
:1026C0004A4B1B8801339AB2484B1A8009E0474BAA
:1026D0001B88002B05D0454B1B88013B9AB2434B0E
:1026E0001A80424B1B884F2B20D92E4B1A88404B07
:1026F0001A80404BC8221A803F4B01221A70294B86
:102700001B88002B05D0274B1B88013B9AB2254B19
:102710001A80244B1A88394B1A80224B1B88384A5E
:1027200082FB0312DB17D31A364A1360314B1B8826
:10273000002B69D02F4B1B88013B9AB22D4B1A807E
:102740002B4B1B88002B0DD0164B1A88284B1B884F
:102750009A4207D9264B1A88124B1A80114B1A88B5
:10276000264B1A8097F84430002B57D1B7F85830D1
:1027700005331C4A1288934250D91E4B00221A80FE
:102780001B4B00221A801C4B00221A7046E000BF2F
:10279000CDCCCC3D540300207C030020A4030020BA
:1027A000CC0300200A040020000016442000002072
:1027B000D80300202800002029000020E00300208A
:1027C000E20300202A000020E4030020E5030020AB
:1027D000E6030020E80300201C0000204403002042
:1027E000400300204C03002050030020460300203B
:1027F0004A030020480300203B0300200604002079
:10280000ABAAAA2A0C040020974B1B88002B05D1E9
:10281000964B00221A80964B00221A70954B1B781B
:10282000002B00F0BF8000F0BDFD934B1B88934A46
:1028300082FB0312DB17D31A914A1360914B1B885A
:10284000092B40F2A6808B4B00221A708A4B1B8802
:102850001846FEF7C7F903468B491846FEF7CEFA2D
:1028600003461A46894B1A60F86CFEF7BBF903461B
:10287000874A1360874B7B60844B1C684FF07C5108
:102880007868FEF707FA034619462046FEF7F8F87F
:102890000346C7F8B8304FF07C517868FEF7FAF974
:1028A00003461A46794B1B6819461046FEF7EAF8AC
:1028B0000346C7F8B4307849D7F8B800FEF788FB6C
:1028C0000346002B02D0744BC7F8B8307349D7F8D1
:1028D000B400FEF79BFB0346002B02D06F4BC7F8FA
:1028E000B4300023C7F8B03034E0D7F8B810D7F8C8
:1028F000B400FEF7C5F803461C46FFF757FC034635
:1029000019462046FEF7C6F90346D7F8B810184610
:10291000FEF7B8F803461946614AD7F8B03042F8D6
:102920002310604AD7F8B0304FF0000142F823106E
:102930005D4AD7F8B0304FF0000142F823105B4AEF
:10294000D7F8B030134400221A70D7F8B0300133F2
:10295000C7F8B030D7F8B030092BC6DD544B012290
:102960001A70544B01221A70534B00221A70534BA9
:1029700000221A80524B01221A70524B00221A7008
:10298000514B00221A70514B00221A70504B0022FA
:102990001A60504AB7F8583013804F4AFB6C1360E6
:1029A00000F0D2BC3C23A7F840304FF4B473FB874F
:1029B0003F4B1B78012B40F03781424B1B78002B9B
:1029C0004AD0414B1B78002B06D03F4B1B78013B74
:1029D000DAB23D4B1A7036E03D4B1A68FB6C13447B
:1029E0003B4A1360394B1B780133DAB2374B1A700C
:1029F000364B1B78022B26D9354B1B681846FEF741
:102A0000F1F8034635491846FEF7F8F903463B63EB
:102A1000294B1B78002B0AD0274B1B780A2B06D892
:102A2000254B1B78013B1F493A6B41F82320254B6E
:102A300000221A70264B00221A60244B00221A70C2
:102A40001D4B00221A70234AB7F858301380224ACF
:102A5000FB6C136000F078BC164B1B780A2B3FD937
:102A6000134B02221A70DFE0460300204A030020C5
:102A70003B0300201C0000200A040020ABAAAA2A65
:102A80000C04002044030020000016442000002015
:102A9000D8030020CDCC4C3ECDCCCC3D9A99193FEB
:102AA000540300207C030020A4030020CC0300205A
:102AB0002800002029000020E0030020E20300207D
:102AC0002A000020E4030020E5030020E6030020A4
:102AD000E80300204C030020500300200000404089
:102AE0009B4B1B78013B9B4A52F82330C7F8AC3014
:102AF0009949D7F8AC00FEF76BFA0346002B02D0D9
:102B0000954BC7F8AC309549D7F8AC00FEF77EFA84
:102B10000346002B02D0914BC7F8AC309049D7F850
:102B2000AC00FEF7B7F803464FF07C511846FDF7AE
:102B3000A9FF03461846FEF799FA0346A7F8AA30FC
:102B4000FA8FB7F84010B7F8AA301846FFF712FB13
:102B50000346A7F8AA30834B1B88002B0DD0824B6D
:102B60001B88002B09D0804B1B88B7F8AA209A42FB
:102B700003D97D4B1B88A7F8AA30B7F8AA307B4A47
:102B800012889B1ABB637A4B1B880E2B01D9012339
:102B900000E00623FB86FB8EBA6B9A4206DD734B80
:102BA0001A88FB8E1344A7F8AA300AE0FB8E5B421A
:102BB000BA6B9A4205DA6D4B1A88FB8ED31AA7F8C6
:102BC000AA306C4AB7F8AA3013806B4AB7F8AA301B
:102BD0001380684B1B88694A82FB0312DB17D31AE8
:102BE000674A1360614AB7F8AA301380584B1A78C5
:102BF000644B1A70564B1B780133DAB2544B1A707F
:102C0000614B01221A70614B01221A70604B002245
:102C10001A70604B00221A605F4AB7F85830138070
:102C20005E4AFB6C13608FE35D4B1B78022B40F018
:102C300081835C4B1B685C4A1360464B1B685B4A94
:102C400013600123C7F8A43020E0564AD7F8A43017
:102C500052F82330544A126811461846FEF7D6F946
:102C60000346002B0DD04F4AD7F8A43052F823303A
:102C70004D4A1360374AD7F8A43052F823304B4AF4
:102C80001360D7F8A4300133C7F8A430D7F8A430C4
:102C9000092BDADD464B1B684FF000011846FEF7A2
:102CA000B5F90346002B21D03F4B1B68404A126800
:102CB00011461846FDF7E4FE03461A463C4B1B68D6
:102CC00019461046FEF79AF80346FB623949F86A3E
:102CD000FEF79CF90346002B10D0334B1B68344A97
:102CE0001360324B1B68344A136007E02E4B1B689D
:102CF0002F4A13602D4B1B682F4A1360012387F85E
:102D0000A3300023C7F89C3015E02C4AD7F89C303C
:102D100052F823304FF000011846FEF74FF90346F2
:102D2000002B03D1002387F8A33008E0D7F89C30AC
:102D30000133C7F89C30D7F89C30092BE5DD97F8B4
:102D4000A330002B4FD00023C7F8983047E000BFD6
:102D50002900002054030020CDCCCC3D9A99193F86
:102D600000001644480300204A030020EC03002022
:102D7000E20300200A04002006040020ABAAAA2ACD
:102D80000C040020E0030020E4030020E503002001
:102D9000E6030020E80300204C030020500300203D
:102DA000280000207C030020DC03002024000020F9
:102DB000D80300200AD7A33C20000020A403002051
:102DC0005F4AD7F8983052F823205E49D7F89830F8
:102DD00041F82320D7F898300133C7F89830D7F856
:102DE0009830092BECDD584B1B68C7F89430564BD4
:102DF0001B68C7F890300123C7F88C302CE0524A8A
:102E0000D7F88C3052F823301946D7F89400FEF7E3
:102E1000DFF80346002B06D04B4AD7F88C3052F827
:102E20002330C7F89430484AD7F88C3052F8233012
:102E30001946D7F89000FEF7E9F80346002B06D0B4
:102E4000414AD7F88C3052F82330C7F89030D7F881
:102E50008C300133C7F88C30D7F88C30092BCEDD9D
:102E6000D7F89010D7F89400FDF70AFE0346BB622E
:102E70003649B86AFEF7ACF80346002B06D0344B4F
:102E80001B8801339AB2324B1A8002E0304B002289
:102E90001A802F4B1B880E2B8CBF01230023DBB223
:102EA00087F8273097F82730002B01D0294B00E016
:102EB000294B3B6297F82730002B01D0274B00E0CD
:102EC000274BFB6197F82730002B02D04FF000030F
:102ED00000E0244BBB61244B1B78042B01D8234B0F
:102EE00000E0234B7B614FF07C533B610023C7F82C
:102EF000883008E1124AD7F8883052F82320114967
:102F0000D7F8883051F8233019461046FEF760F89C
:102F10000346002B30D0174AD7F8883013441B786B
:102F2000092B2FD8134AD7F8883013441B78013364
:102F3000D9B2104AD7F8883013440A461A7021E0F3
:102F40007C030020A4030020540300208FC2F53D21
:102F5000E20300206F1283380AD7A33A90C2753D6E
:102F6000CDCCCC3D9A99193E2A0000206666E63EFB
:102F70006666663FCC030020924AD7F88830134437
:102F800000221A708F4AD7F8883013441B781846ED
:102F9000FDF728FE03468C491846FDF72FFF034630
:102FA000C7F884304FF07E51D7F88400FEF72EF832
:102FB0000346002B03D04FF07E53C7F884304FF008
:102FC0007C51D7F88400FDF765FE03461946F86981
:102FD000FDF758FD0346C7F880307C49D7F88000DC
:102FE000FEF714F80346002B02D0784BC7F8803068
:102FF000774AD7F8883052F82330FB67FFF7D6F8C6
:10300000034679691846FDF745FE03461C46714B99
:103010001B68F96F1846FDF733FD03461946204635
:10302000FDF738FE03461946F86FFDF72BFD034602
:10303000FB67FFF7DDF80346396A1846FDF72AFEFD
:10304000034639691846FDF725FE03461946F86F11
:10305000FDF718FD0346FB67FFF7A8F8034619467E
:10306000D7F88000FDF7D2FF0346002B2ED0FFF7E4
:103070009DF8034654491846FDF70CFE03461846D2
:10308000FDF7CEFF0346BB67BB6F092B01DD0923AC
:10309000BB67FFF78BF804464D4ABB6F52F82330ED
:1030A000F96F1846FDF7ECFC034619462046FDF77C
:1030B000F1FD03461946F86FFDF7E4FC0346FB6794
:1030C000404AD7F88830134400221A704249F86FFA
:1030D000FDF77EFF0346002B01D03F4BFB673F49C6
:1030E000F86FFDF793FF0346002B01D03B4BFB67C6
:1030F0003749D7F88830FA6F41F82320D7F888305D
:103100000133C7F88830D7F88830092B7FF7F2AE43
:103110004FF00001B869FDF779FF0346002B4ED050
:103120002949B869FDF7B6FD0346184607F0BAFD10
:1031300003461846FDF774FF03467B677B6F002B41
:1031400001DC01237B6700233B6734E00023FB663F
:10315000234B1B68BB6601237B6614E0204A7B6E11
:1031600052F823301946B86EFDF750FF0346002B86
:1031700006D01B4A7B6E52F82330BB667B6EFB6623
:103180007B6E01337B667B6E092BE7DDFFF70EF864
:10319000034639691846FDF77DFD03460E4918467A
:1031A000FDF770FC03461946094AFB6E42F82310EE
:1031B0003B6F01333B673A6F7B6F9A42C6DB00235C
:1031C0003B661AE0CC030020000020416666663FA3
:1031D0005403002020000020CDCCCC3D9A99193F0B
:1031E0007C0300205A4A3B6E52F8232059493B6E1B
:1031F00041F823203B6E01333B663B6E092BF1DD2A
:10320000554B1B780133DAB2534B1A70524B1B7873
:103210000A2B02D9504B01221A70504B01221A700E
:103220004F4B01221A704F4B00221A704E4B1B68F5
:10323000FB654E49F86DFDF7CBFE0346002B01D030
:103240004A4BFB654A49F86DFDF7E0FE0346002B4B
:1032500001D0474BFB654749F86DFDF71BFD034661
:103260004FF07C511846FDF70DFC03461846FDF75C
:10327000FDFE0346A7F85A30FA8FB7F84010B7F8AA
:103280005A301846FEF776FF0346A7F85A303A4BF5
:103290001B88002B0DD0394B1B88002B09D0374BD6
:1032A0001B88B7F85A209A4203D9344B1B88A7F8D9
:1032B0005A30B7F85A30324A12889B1AFB60314BA9
:1032C0001B880E2B01D9012300E006237B817B891B
:1032D000FA689A4206DD2A4B1A887B891344A7F8BC
:1032E0005A300AE07B895B42FA689A4205DA244B3D
:1032F0001A887B89D31AA7F85A30234AB7F85A306C
:103300001380224AB7F85A3013801F4B1B88204A7B
:1033100082FB0312DB17D31A1E4A1360184AB7F850
:103320005A3013801C4AB7F8583013801B4AFB6C84
:10333000136009E0184AB7F858301380174AFB6C3D
:103340001360174B01221A70C437BD4690BD00BFF1
:103350007C030020A40300202A0000202800002075
:1033600029000020E003002020000020CDCCCC3D2F
:103370009A99193F00001644480300204A03002090
:10338000EC030020E20300200A04002006040020D1
:10339000ABAAAA2A0C0400204C03002050030020F2
:1033A0001C00002080B400AF5C4B1B88162B0AD990
:1033B0005B4B1B88002B7DD0594B1B88013B9AB27D
:1033C000574B1A8076E0574B1B88B3F5907F0AD98C
:1033D000534B1B88002B6DD0514B1B88013B9AB27D
:1033E0004F4B1A8066E0504B1A88504B1B889A420C
:1033F00010D94F4B1A884F4B1B889A420AD9484B19
:103400001B88002B4ED0464B1B88013B9AB2444B85
:103410001A8047E0444B1A88444B1B889A420CD9C7
:10342000434B1A88434B1B889A4206D23C4B1B885D
:1034300001339AB23A4B1A8034E03B4B1A883B4B2B
:103440001B889A420CD23A4B1A883A4B1B889A42F4
:1034500006D9334B1B8801339AB2314B1A8021E0D5
:10346000314B1A88314B1B889A4210D2304B1A8844
:10347000304B1B889A420AD2294B1B88002B11D053
:10348000274B1B88013B9AB2254B1A800AE0254B3B
:103490001B88B3F5907F05D2214B1B8801339AB26C
:1034A0001F4B1A80204B1A88204B1A80204B1A88F9
:1034B000204B1A801A4B1B88B3F5167F04D3184B88
:1034C0004FF416721A8006E0154B1B88002B02D1B0
:1034D000134B00221A80184B1B88002B0DD0174B62
:1034E0001B88002B09D00E4B1A88144B1B889A425C
:1034F00003D9124B1A880A4B1A80094B1A88104BB1
:103500001A800F4B1B880F4A82FB0312DB17D31A5A
:103510000D4A136000BFBD4680BC7047F00000201C
:1035200006040020EC000020F60000203C030020F0
:10353000EE0000203E030020480300204A03002044
:103540000A040020ABAAAA2A0C04002080B483B08D
:1035500000AF0346FB800B467B7113467B807B7973
:10356000002B07D0FA887B889A4209D2FB88013366
:10357000FB8005E0FB88002B02D0FB88013BFB8031
:10358000FB8818460C37BD4680BC704780B582B0BA
:1035900000AFFEF755FE294B00221A70284B00227F
:1035A0001A70284B00221A70274B1B88FB80274B70
:1035B00000221A60264B00221A60FB88B3F58E7F2A
:1035C00017D31F4B01221A70204B1B68204A13602F
:1035D000204B1E221A801F4B1A881F4B1A801D4B2E
:1035E0001B881E4A82FB0312DB17D31A1C4A136086
:1035F0001CE0FB88B3F5897F0CD9124B01221A70AD
:10360000144B00221A80144B00221A80144B002203
:103610001A600BE0094B01221A700E4B00221A802F
:103620000D4B00221A800E4B00221A600D4B012216
:103630001A7000BF0837BD4680BD00BF39030020A7
:103640003A03002036030020EC000020FC03002099
:10365000000400200A04002006040020ABAAAA2AC5
:103660000C0400203803002080B584B000AF954BD7
:103670001B78002B18D1944B00221A80934B002208
:103680001A80934B00221A80924B00221A80924B90
:1036900000221A80914B00221A60914B00221A607E
:1036A000884B00221A7052E28E4B1B88FB818E4B96
:1036B0001B88BB81894B1B680133884A13608B4B85
:1036C0001B88052B05D88A4B1B88012B01D80123A9
:1036D00000E00023FB72FB7A002B32D0854B0022E6
:1036E0001A70854B00221A70844B00221A70844B8A
:1036F00000221A70834B00221A80834B00221A800A
:10370000824B00221A60FEF79BFD6F4B00221A804D
:103710006E4B00221A806E4B00221A806D4B0022E5
:103720001A806D4B00221A806C4B00221A606C4B81
:1037300000221A60764B01221A70624B00221A7026
:1037400005E2734B1B78002B09D06D4B1B78002BC7
:1037500005D16F4B00221A70FFF718FF02E06C4B87
:1037600000221A70664B1B78002B15D1564B002295
:103770001A80564B00221A80554B00221A80554B56
:1037800000221A80544B00221A80554B00221A60E6
:103790004C4B00221A70DAE1564B1B78002B00F0DC
:1037A000E180FEF7C9FDFB8940F21B1293428CBFFA
:1037B00001230023DBB2FB71FB79002B04D0BB8912
:1037C000022B01D9012300E00023BB713E4B1B8873
:1037D000B9794FF47A721846FFF7B8FE03461A46D5
:1037E000394B1A80384B1B88B3F57A7F1DD3414B78
:1037F00000221A70404B01221A70404B00221A70AE
:10380000314B00221A80314B00221A80304B0022AB
:103810001A80304B00221A803E4B00221A802F4B18
:103820001B682F4A1360FEF70BFDFB89B3F5897FF8
:1038300004D3BB89022B01D8012300E000237B7154
:10384000234B1B8879794FF496721846FFF77EFE5A
:1038500003461A461E4B1A80FB8940F2151293420A
:103860008CBF01230023DBB23B711B4B1B883979D2
:1038700040F6B8321846FFF769FE03461A46164B63
:103880001A80134B1B88B3F5967F45D3194B002242
:103890001A70194B00221A70184B01221A700C4B27
:1038A00000221A80084B00221A80084B00221A803E
:1038B000084B00221A80084B00221A80FEF7C0FC39
:1038C00042E100BF37030020EE030020F003002098
:1038D000F2030020F4030020F8030020FC03002082
:1038E00000040020EC000020F0000020EE0000208A
:1038F000F2000020390300203A03002036030020A4
:10390000380300200A040020060400200C040020D4
:1039100004040020F60300208E4B1B8840F6B732CB
:10392000934240F211818C4B00221A708B4B002283
:103930001A708B4B01221A70864B00221A80894B19
:1039400000221A80884B00221A80884B00221A809D
:10395000874B00221A80874B1B68874A1360FEF74B
:103960006FFCF1E07D4B1B78002B00F08180814BD8
:103970001B689AB2804B1B689BB2D31A9AB27F4BDA
:103980001A80FB89B3F58E7F0BD27D4B1B88B3F574
:10399000167F14D27A4B1B8801339AB2784B1A8067
:1039A0000DE0FB89B3F5927F09D9754B1B88002B7D
:1039B00005D0734B1B88013B9AB2714B1A80714B37
:1039C0001B88162B09D96E4B1B88002B05D06C4B1E
:1039D0001B88013B9AB26A4B1A80694B1A886A4B62
:1039E0001A80674B1B88694A82FB0312DB17D31AC4
:1039F000674A1360FB89B3F58E7F04D3BB89042B20
:103A000001D8012300E000237B725C4B1B8840F649
:103A1000B73293428CBF01230023DBB23B723B7A67
:103A2000002B0BD0514B1B88797A64221846FFF784
:103A30008DFD03461A464D4B1A8002E04B4B002287
:103A40001A804A4B1B88632B7ED9434B00221A7085
:103A5000424B00221A70424B01221A70434B002243
:103A60001A80434B00221A80444B00221A806BE0DC
:103A70003B4B1B78002B67D0FB89B3F5867F0BD8B7
:103A80003F4B1B88B3F5167F14D23D4B1B88013387
:103A90009AB23B4B1A800DE0FB89B3F58A7F09D3BC
:103AA000374B1B88002B05D0354B1B88013B9AB246
:103AB000334B1A80334B1B88162B09D9304B1B888C
:103AC000002B05D02E4B1B88013B9AB22C4B1A8041
:103AD0002B4B1A882C4B1A80294B1B882B4A82FBB4
:103AE0000312DB17D31A2A4A1360FB89FE2B94BFFB
:103AF00001230023DBB2BB721D4B1B88B97A4FF444
:103B0000FA721846FFF722FD03461A46184B1A8030
:103B1000174B1B88B3F5FA7F16D3114B00221A708E
:103B20000D4B01221A700D4B00221A70104B00220F
:103B30001A800D4B00221A800C4B00221A80094B70
:103B400000221A80FEF77CFB124B00221A701037FD
:103B5000BD4680BDF8030020390300203A03002051
:103B600036030020F2030020EE030020F0030020C3
:103B7000F4030020FC03002000040020F6030020D2
:103B80000A040020F000002006040020ABAAAA2AA4
:103B90000C0400203703002080B483B000AF03463C
:103BA0000A46FB711346BB80374B1B78002B15D19F
:103BB000354B01221A70354B00221A70344B1B68AA
:103BC0009A69334B1B6842F400629A61304B1B6860
:103BD000DA692F4B1B6842F00802DA61BB88B3F543
:103BE000167F02D34FF41673BB80FB79012B21D1D2
:103BF000BB88B3F5167F08D3264B4FF49672DA6371
:103C0000244B4FF496729A6338E0BB88B3F5967FE5
:103C100009D3204B4FF49672DA63BB88A3F59672F2
:103C20001C4B9A632AE01B4ABB88D363194B0022C2
:103C30009A6323E0FB79022B20D1BB88B3F5167F72
:103C400008D3144B4FF49672DA63124B4FF496720A
:103C50009A6313E0BB88B3F5967F09D3BB88A3F5BD
:103C600096720C4BDA630B4B4FF496729A6305E035
:103C7000084B0022DA63074ABB88936300BF0C3706
:103C8000BD4680BC704700BF090400200804002026
:103C900004020020002C014080B400AF114B1B78BF
:103CA000002B15D1104B00221A700E4B01221A70F6
:103CB0000E4B1B689A690D4B1B6822F400629A61D7
:103CC0000A4B1B68DA69094B1B6822F00802DA61AB
:103CD000074B00229A63064B0022DA6300BFBD4601
:103CE00080BC704708040020090400200402002062
:103CF000002C014080B584B000AF164B9B69154A7B
:103D000043F001039361134B9B6903F00103BB6014
:103D1000BB68104BDB690F4A43F08053D3610D4BF6
:103D2000DB6903F080537B607B68052001F0EEF8CF
:103D3000094B5B68FB60FB6823F0E063FB60FB689A
:103D400043F00073FB60044AFB68536000BF103708
:103D5000BD4680BD001002400000014080B58AB021
:103D600000AF786007F1180300221A605A609A6069
:103D7000DA607B681B68344A934260D1334B9B699D
:103D8000324A43F400739361304B9B6903F4007330
:103D90007B617B692D4B9B692C4A43F00403936143
:103DA0002A4B9B6903F004033B613B69274B9B69EA
:103DB000264A43F008039361244B9B6903F00803F0
:103DC000FB60FB681323BB610323FB6107F118034E
:103DD00019461F4801F0CAFA0323BB610323FB61A4
:103DE00007F1180319461B4801F0C0FA1A4B1B4A89
:103DF0001A60194B00225A60174B00229A60164B2A
:103E00008022DA60144B4FF480721A61124B4FF427
:103E100080625A61104B20229A610F4B4FF48052FE
:103E2000DA610D4801F0B4F80346002B01D0FEF72B
:103E30009BF97B68084A1A62074A7B68536200BF95
:103E40002837BD4680BD00BF00240140001002405D
:103E500000080140000C01406C01002008000240F5
:103E600080B588B000AF786007F1100300221A60B7
:103E70005A609A60DA607B681B68154A934223D1C6
:103E8000144B9B69134A43F008039361114B9B69E0
:103E900003F00803FB60FB68C0233B6112237B61D6
:103EA0000323FB6107F1100319460B4801F05EFA8A
:103EB000084BDB69074A43F40013D361054BDB6908
:103EC00003F40013BB60BB6800BF2037BD4680BD54
:103ED0000054004000100240000C014080B584B046
:103EE00000AF78607B681B680D4A934213D10D4B7D
:103EF0009B690C4A43F4006393610A4B9B6903F48A
:103F00000063FB60FB6800220021192001F009F822
:103F1000192001F022F800BF1037BD4680BD00BF58
:103F2000002C01400010024080B584B000AF7860E2
:103F30007B681B680D4A934213D10D4BDB690C4A19
:103F400043F00403D3610A4BDB6903F00403FB6015
:103F5000FB68012200211E2000F0E3FF1E2000F07C
:103F6000FCFF00BF1037BD4680BD00BF0008004009
:103F70000010024080B588B000AF786007F11003F0
:103F800000221A605A609A60DA607B681B68104AE7
:103F9000934218D10F4B9B690E4A43F0040393617F
:103FA0000C4B9B6903F00403FB60FB684FF4C06398
:103FB0003B6102237B610323FB6107F11003194678
:103FC000054801F0D3F900BF2037BD4680BD00BFD2
:103FD000002C0140001002400008014080B400AFF6
:103FE00000BFFDE780B400AF00BFFDE780B400AFC5
:103FF00000BFFDE780B400AF00BFFDE780B400AFB5
:1040000000BFFDE780B400AF00BFBD4680BC704775
:1040100080B400AF00BFBD4680BC704780B400AF25
:1040200000BFBD4680BC704780B500AF00F0F2F91C
:1040300000BF80BD80B500AF024801F063F800BF4B
:1040400080BD00BF6C01002080B500AF024802F0C7
:10405000EFFE00BF80BD00BF0402002080B500AFAE
:10406000024802F0E5FE00BF80BD00BF4C02002008
:1040700080B400AF01231846BD4680BC704780B5B0
:1040800082B000AF7860396005F0CAFD03461622A1
:104090001A604FF0FF3318460837BD4680BD80B523
:1040A00082B000AF78604FF0FF317868FFF7E7FF2C
:1040B00000BFFDE780B586B000AFF860B9607A60F8
:1040C00000237B610AE0AFF300800146BB685A1C05
:1040D000BA60CAB21A707B6901337B617A697B6806
:1040E0009A42F0DB7B6818461837BD4680BD80B524
:1040F00086B000AFF860B9607A6000237B6109E0A8
:10410000BB685A1CBA601B781846AFF300807B6905
:1041100001337B617A697B689A42F1DB7B681846E0
:104120001837BD4680BD80B483B000AF78604FF0D3
:10413000FF3318460C37BD4680BC704780B483B04F
:1041400000AF786039603B684FF400525A6000233A
:1041500018460C37BD4680BC704780B483B000AFB2
:104160007860012318460C37BD4680BC704780B488
:1041700085B000AFF860B9607A6000231846143744
:10418000BD4680BC7047000080B586B000AF786047
:10419000144A154BD31A7B617B693B61134B1B6837
:1041A000002B02D1114B124A1A60104B1A687B681F
:1041B00013443A699A4207D205F032FD03460C22B5
:1041C0001A604FF0FF3309E0084B1B68FB60074B98
:1041D0001A687B681344054A1360FB681846183751
:1041E000BD4680BD005000200004000010040020E7
:1041F0006809002080B400AF00BFBD4680BC704796
:1042000080B500AF424B1B68222B0DDD414B1B7864
:10421000002B09D101224FF400513F4801F02AFA46
:104220003C4B01221A7010E0394B1B68192B0CDC37
:10423000384B1B78002B08D000224FF40051364831
:1042400001F018FA334B00221A70344B1B88B3F577
:10425000967F03D9324B01221A7012E0314B1B8832
:10426000462B03D92E4B04221A700AE02E4B1B88D2
:10427000FA2B03D92A4B03221A7002E0284B0022A2
:104280001A70294B1B884F2B24D9244B1B88632B76
:1042900020D9234B1B78002B1CD101224FF48041E5
:1042A0001D4801F0E7F9214B1B780133DAB21F4BAF
:1042B0001A701E4B1B78052B27D901224FF40041A1
:1042C000154801F0D7F91A4B1B78002B1DD1FFF7C9
:1042D0005DF91AE000224FF480410F4801F0CAF95D
:1042E00000224FF400410C4801F0C4F9104B0022A9
:1042F0001A70104B00221A700F4B00221A700B4BD1
:1043000000221A70FDF79CFF00E000BF00BF80BDD7
:10431000F800002015040020000C0140EC000020F3
:1043200014040020F0000020EE00002016040020FD
:1043300038030020390300203A030020FFF75AFF1A
:104340000B480C490C4A002302E0D458C4500433F3
:10435000C4188C42F9D3094A094C002301E01360C8
:104360000432A242FBD305F061FCFDF761FB70470C
:104370000000002098000020E8D5000898000020E8
:1043800068090020FEE7000080B500AF084B1B68FD
:10439000074A43F010031360032000F0B7FD00202C
:1043A00000F008F8FFF7A6FC0023184680BD00BF08
:1043B0000020024080B582B000AF7860124B1A68CE
:1043C000124B1B7819464FF47A73B3FBF1F3B2FB2F
:1043D000F3F3184600F0CFFD0346002B01D0012374
:1043E0000EE07B680F2B0AD8002279684FF0FF306F
:1043F00000F097FD064A7B681360002300E001236C
:1044000018460837BD4680BD300000203800002027
:104410003400002080B400AF054B1B781A46054BD2
:104420001B681344034A136000BFBD4680BC70473D
:10443000380000201804002080B400AF024B1B6835
:104440001846BD4680BC70471804002080B584B073
:1044500000AF7860FFF7F0FFB8607B68FB60FB6837
:10446000B3F1FF3F05D00A4B1B781A46FB68134493
:10447000FB6000BFFFF7E0FF0246BB68D31AFA6893
:104480009A42F7D800BF00BF1037BD4680BD00BFBD
:104490003800002080B586B000AF78600023FB753F
:1044A00000233B610023BB600023FB607B68002B83
:1044B00001D10123BEE07B689B68002B7B689B6A6F
:1044C000002B09D17B680022DA627B68002283F826
:1044D00024207868FFF742FC786800F0F5FA03467C
:1044E000FB757B689B6A03F01003002B40F09980FA
:1044F000FB7D002B40F095807B689B6A23F48853FA
:1045000023F0020343F002027B689A627B685A68D8
:104510007B68DB691A437B681B7B5B001343BA68CB
:104520001343BB607B689B68B3F5807F03D07B68D7
:104530009B68012B02D14FF4807300E000233A699D
:1045400013433B617B681B7D012B19D17B681B7B6F
:10455000002B09D17B689B69013B5A033B691343DC
:1045600043F400633B610BE07B689B6A43F02002ED
:104570007B689A627B68DB6A43F001027B68DA62DF
:104580007B681B685B6823F469417B681B683A6938
:104590000A435A607B681B689A68284B13407A6804
:1045A0001268B9680B4393607B689B68B3F5807FA2
:1045B00003D07B689B68012B04D17B681B69013B9E
:1045C0001B05FB607B681B68DB6A23F470017B685A
:1045D0001B68FA680A43DA627B681B689A68184BA2
:1045E0001340BA689A420BD17B680022DA627B687A
:1045F0009B6A23F0030343F001027B689A6218E090
:104600007B689B6A23F0120343F010027B689A6276
:104610007B68DB6A43F001027B68DA620123FB7589
:1046200007E07B689B6A43F010027B689A62012373
:10463000FB75FB7D18461837BD4680BDFDF7E1FFD1
:10464000FE0E1FFF80B586B000AFF860B9607A60DB
:104650000023FB75FB681B68644A934204D0FB6827
:104660001B68634A934206D1604B5B6803F4702376
:10467000002B40F0B380FB6893F82430012B01D16C
:104680000223AEE0FB68012283F82420F86800F0E2
:10469000C1F90346FB75FB7D002B40F09A80FB6857
:1046A0009B6A23F4706323F0010343F48072FB6878
:1046B0009A62FB681B684E4A934205D14B4B5B687C
:1046C00003F47023002B15D1FB689B6A23F480123E
:1046D000FB689A62FB681B685B6803F48063002BCD
:1046E00026D0FB689B6A23F4405343F48052FB6856
:1046F0009A621DE0FB689B6A43F48012FB689A6231
:10470000FB681B68394A934204D0FB681B68384A2F
:1047100093420DD1354B5B6803F48063002B07D0C7
:10472000FB689B6A23F4405343F48052FB689A620F
:10473000FB689B6A03F48053002B06D0FB68DB6A9E
:1047400023F00602FB68DA6202E0FB680022DA620C
:10475000FB68002283F82420FB681B6A254A9A62C2
:10476000FB681B6A244ADA62FB681B6A234A1A63E5
:10477000FB681B686FF002021A60FB681B689A688E
:10478000FB681B6842F480729A60FB68186AFB68D9
:104790001B684C331946BA687B6800F053FCFB6811
:1047A0001B689B6803F46023B3F5602F08D1FB6896
:1047B0001B689A68FB681B6842F4A0029A600FE0CD
:1047C000FB681B689A68FB681B6842F480129A6059
:1047D00006E0FB68002283F8242001E00123FB753A
:1047E000FB7D18461837BD4680BD00BF0024014040
:1047F000002801404B4B0008C74B0008E34B000862
:1048000080B483B000AF786000BF0C37BD4680BC79
:10481000704780B483B000AF786000BF0C37BD46EE
:1048200080BC704780B485B000AF786039600023E9
:10483000FB730023BB607B6893F82430012B01D10C
:104840000223DCE07B68012283F824203B685B685C
:10485000062B1CD87B681B68596B3B685A6813464B
:104860009B001344053B1F2202FA03F3DB4319406C
:104870003B6818683B685A6813469B001344053B25
:1048800000FA03F27B681B680A435A633CE03B680A
:104890005B680C2B1CD87B681B68196B3B685A68DB
:1048A00013469B001344233B1F2202FA03F3DB430E
:1048B00019403B6818683B685A6813469B001344CC
:1048C000233B00FA03F27B681B680A431A631BE070
:1048D0007B681B68D96A3B685A6813469B0013447F
:1048E000413B1F2202FA03F3DB4319403B6818687F
:1048F0003B685A6813469B001344413B00FA03F29D
:104900007B681B680A43DA623B681B68092B1CD969
:104910007B681B68D9683B681A6813465B001344C0
:104920001E3B072202FA03F3DB4319403B689868F9
:104930003B681A6813465B0013441E3B00FA03F2FF
:104940007B681B680A43DA6019E07B681B68196999
:104950003B681A6813465B001344072202FA03F30C
:10496000DB4319403B6898683B681A6813465B0054
:10497000134400FA03F27B681B680A431A613B6820
:104980001B68102B03D03B681B68112B32D17B684E
:104990001B681D4A934225D17B681B689B6803F402
:1049A0000003002B26D17B681B689A687B681B6814
:1049B00042F400029A603B681B68102B1AD1134B1B
:1049C0001B68134AA2FB03239A0C13469B00134453
:1049D0005B00BB6002E0BB68013BBB60BB68002BB7
:1049E000F9D107E07B689B6A43F020027B689A62FA
:1049F0000123FB737B68002283F82420FB7B18468D
:104A00001437BD4680BC70470024014030000020B0
:104A100083DE1B4380B584B000AF78600023FB6069
:104A20000023BB607B681B689B6803F00103012BBC
:104A300040D07B681B689A687B681B6842F0010263
:104A40009A601F4B1B681F4AA2FB03239B0CBB6091
:104A500002E0BB68013BBB60BB68002BF9D1FFF7EC
:104A6000EBFCF8601FE0FFF7E7FC0246FB68D31A97
:104A7000022B18D97B681B689B6803F00103012B8C
:104A800011D07B689B6A43F010027B689A627B6856
:104A9000DB6A43F001027B68DA627B68002283F8FC
:104AA0002420012307E07B681B689B6803F0010357
:104AB000012BD8D1002318461037BD4680BD00BF5A
:104AC0003000002083DE1B4380B584B000AF7860E7
:104AD0000023FB607B681B689B6803F00103012BCC
:104AE0002ED17B681B689A687B681B6822F00102E4
:104AF0009A60FFF7A1FCF8601BE0FFF79DFC0246FF
:104B0000FB68D31A022B14D97B681B689B6803F0DF
:104B10000103012B0DD17B689B6A43F010027B6877
:104B20009A627B68DB6A43F001027B68DA620123E8
:104B300007E07B681B689B6803F00103012BDCD056
:104B4000002318461037BD4680BD80B584B000AF45
:104B500078607B685B6AFB60FB689B6A03F05003CC
:104B6000002B27D1FB689B6A43F40072FB689A62B2
:104B7000FB681B689B6803F46023B3F5602F15D1B5
:104B8000FB681B7B002B11D1FB689B6A23F48072AE
:104B9000FB689A62FB689B6A03F48053002B05D183
:104BA000FB689B6A43F00102FB689A62F868FCF7B5
:104BB0007DFA04E0FB681B6A1B6B7868984700BFAE
:104BC0001037BD4680BD80B584B000AF78607B688B
:104BD0005B6AFB60F868FFF713FE00BF1037BD4645
:104BE00080BD80B584B000AF78607B685B6AFB6095
:104BF000FB689B6A43F04002FB689A62FB68DB6AD1
:104C000043F00402FB68DA62F868FFF702FE00BFB7
:104C10001037BD4680BD000090B587B000AF78600A
:104C20000023FB750023FB607B6893F82430012B85
:104C300001D1022397E07B68012283F82420786861
:104C4000FFF742FF0346FB757868FFF7E3FE034674
:104C5000FB75FB7D002B40F081807B689B6A23F411
:104C6000885323F0020343F002027B689A62404BB0
:104C70001C68022001F092FE0346B4FBF3F35B00D4
:104C8000FB6002E0FB68013BFB60FB68002BF9D195
:104C90007B681B689A687B681B6842F008029A6010
:104CA000FFF7CAFB38611BE0FFF7C6FB02463B6912
:104CB000D31A0A2B14D97B681B689B6803F008037E
:104CC000002B0DD07B689B6A23F0120343F0100287
:104CD0007B689A627B68002283F82420012342E0EB
:104CE0007B681B689B6803F00803002BDCD17B68A2
:104CF0001B689A687B681B6842F004029A60FFF7A1
:104D00009BFB38611BE0FFF797FB02463B69D31A18
:104D10000A2B14D97B681B689B6803F00403002BE3
:104D20000DD07B689B6A23F0120343F010027B686E
:104D30009A627B68002283F82420012313E07B68B9
:104D40001B689B6803F00403002BDCD17B689B6A23
:104D500023F0030343F001027B689A627B68002220
:104D600083F82420FB7D18461C37BD4690BD00BF4C
:104D70003000002080B485B000AF78607B6803F01D
:104D80000703FB600C4BDB68BB60BA684FF6FF03A0
:104D90001340BB60FB681A02BB68134343F0BF6358
:104DA00043F40033BB60044ABB68D36000BF1437D0
:104DB000BD4680BC704700BF00ED00E080B400AF8E
:104DC000044BDB681B0A03F007031846BD4680BC92
:104DD000704700BF00ED00E080B483B000AF034631
:104DE000FB7197F90730002B0BDBFB7903F01F02F7
:104DF000064997F907305B09012000FA02F241F8F1
:104E0000232000BF0C37BD4680BC704700E100E0A6
:104E100080B483B000AF03463960FB7197F9073067
:104E2000002B0ADB3B68DAB20C4997F90730120114
:104E3000D2B20B4483F800230AE03B68DAB2084997
:104E4000FB7903F00F03043B1201D2B20B441A7634
:104E500000BF0C37BD4680BC704700BF00E100E0DA
:104E600000ED00E080B489B000AFF860B9607A600E
:104E7000FB6803F00703FB61FB69C3F10703042B25
:104E800028BF0423BB61FB690433062B02D9FB69ED
:104E9000033B00E000237B614FF0FF32BB6902FA65
:104EA00003F3DA43BB681A407B699A404FF0FF3145
:104EB0007B6901FA03F3D9437B680B40134318461F
:104EC0002437BD4680BC704780B582B000AF7860A3
:104ED0007B68013BB3F1807F01D301230FE00A4AD5
:104EE0007B68013B53600F214FF0FF30FFF790FFCD
:104EF000054B00229A60044B07221A6000231846D3
:104F00000837BD4680BD00BF10E000E080B582B02C
:104F100000AF78607868FFF72DFF00BF0837BD4607
:104F200080BD80B586B000AF0346B9607A60FB7380
:104F300000237B61FFF742FF78617A68B96878697E
:104F4000FFF790FF024697F90F3011461846FFF71A
:104F50005FFF00BF1837BD4680BD80B582B000AF8F
:104F60000346FB7197F907301846FFF735FF00BF7E
:104F70000837BD4680BD80B582B000AF78607868E4
:104F8000FFF7A2FF034618460837BD4680BD000064
:104F900080B485B000AF78600023FB607B68002B95
:104FA00001D1012343E07B681B681A46224B13445E
:104FB000224AA2FB03231B099A007B681A647B68C0
:104FC0001F4ADA637B68022283F821207B681B6812
:104FD0001B68FB60FB6823F47F5323F03003FB6006
:104FE0007B685A687B689B681A437B68DB681A4356
:104FF0007B681B691A437B685B691A437B689B6902
:105000001A437B68DB691343FA681343FB607B68D0
:105010001B68FA681A607B6800229A637B68012229
:1050200083F821207B68002283F820200023184683
:105030001437BD4680BC7047F8FFFDBFCDCCCCCC4B
:105040000000024080B586B000AFF860B9607A60B9
:105050003B600023FB75FB6893F82030012B01D1E6
:1050600002234BE0FB68012283F82020FB6893F8C1
:105070002130DBB2012B3AD1FB68022283F82120D8
:10508000FB6800229A63FB681B681A68FB681B6850
:1050900022F001021A603B687A68B968F86800F08B
:1050A00037F9FB68DB6A002B08D0FB681B681A68BD
:1050B000FB681B6842F00E021A600FE0FB681B6879
:1050C0001A68FB681B6822F004021A60FB681B6800
:1050D0001A68FB681B6842F00A021A60FB681B68CA
:1050E0001A68FB681B6842F001021A6005E0FB6861
:1050F000002283F820200223FB75FB7D1846183719
:10510000BD4680BD80B584B000AF78607B68DB6B46
:105110001B68FB607B681B681B68BB607B681B6C43
:1051200004229A40FB681340002B4FD0BB6803F069
:105130000403002B4AD07B681B681B6803F0200324
:10514000002B07D17B681B681A687B681B6822F0FC
:1051500004021A607B681B68664A934229D07B6808
:105160001B68654A934222D07B681B68634A93425E
:105170001AD07B681B68624A934212D07B681B6816
:10518000604A93420AD07B681B685F4A934202D10F
:105190004FF480030EE04FF080630BE04FF4802368
:1051A00008E04FF4804305E04FF4806302E04023C1
:1051B00000E00423554A53607B68DB6A002B00F053
:1051C00094807B68DB6A786898478EE07B681B6C0C
:1051D00002229A40FB681340002B56D0BB6803F0B4
:1051E0000203002B51D07B681B681B6803F020036F
:1051F000002B0BD17B681B681A687B681B6822F048
:105200000A021A607B68012283F821207B681B68F0
:10521000384A934229D07B681B68374A934222D090
:105220007B681B68354A93421AD07B681B68344AF6
:10523000934212D07B681B68324A93420AD07B6843
:105240001B68314A934202D14FF400130EE04FF035
:1052500000730BE04FF4003308E04FF4005305E017
:105260004FF4007302E0202300E00223274A53603A
:105270007B68002283F820207B689B6A002B34D057
:105280007B689B6A786898472FE07B681B6C0822D4
:105290009A40FB681340002B28D0BB6803F008033A
:1052A000002B23D07B681B681A687B681B6822F080
:1052B0000E021A607B681A6C7B68DB6B012101FAB5
:1052C00002F25A607B6801229A637B68012283F8AC
:1052D00021207B68002283F820207B681B6B002B39
:1052E00004D07B681B6B7868984700BF00BF1037FD
:1052F000BD4680BD080002401C0002403000024054
:1053000044000240580002406C000240000002408D
:1053100080B485B000AFF860B9607A603B60FB682C
:105320001A6CFB68DB6B012101FA02F25A60FB6820
:105330001B683A685A60FB685B68102B08D1FB68F1
:105340001B687A689A60FB681B68BA68DA6007E0D5
:10535000FB681B68BA689A60FB681B687A68DA6049
:1053600000BF1437BD4680BC7047000080B48BB0CE
:1053700000AF7860396000237B6200233B6269E103
:1053800001227B6A02FA03F3FB613B681B68FA693E
:105390001340BB61BA69FB699A4240F058813B688F
:1053A0005B689A4A93425ED0984A934275D8984A6D
:1053B000934258D0964A93426FD8964A934252D01D
:1053C000944A934269D8944A93424CD0924A934269
:1053D00063D8924A934246D0904A93425DD8122BAA
:1053E0002AD8122B59D801A252F823F0675400088A
:1053F0004154000853540008955400089B54000879
:105400009B5400089B5400089B5400089B540008C0
:105410009B5400089B5400089B5400089B540008B0
:105420009B5400089B5400089B5400089B540008A0
:10543000495400085D540008794A934213D02CE087
:105440003B68DB683B6229E03B68DB6804333B6216
:1054500024E03B68DB6808333B621FE03B68DB68A5
:105460000C333B621AE03B689B68002B02D104239B
:105470003B6213E03B689B68012B05D108233B622C
:105480007B68FA691A6109E008233B627B68FA6964
:105490005A6103E000233B6200E000BFBB69FF2BC1
:1054A00001D87B6801E07B6804337B61BB69FF2B1B
:1054B00002D87B6A9B0002E07B6A083B9B003B6151
:1054C0007B691A680F213B6901FA03F3DB431A4039
:1054D000396A3B6901FA03F31A437B691A603B6836
:1054E0005B6803F08053002B00F0B1804D4B9B694B
:1054F0004C4A43F0010393614A4B9B6903F001035B
:10550000BB60BB68484A7B6A9B08023352F8233071
:10551000FB607B6A03F003039B000F2202FA03F394
:10552000DB43FA681340FB607B68404A934213D028
:105530007B683F4A93420DD07B683E4A934207D036
:105540007B683D4A934201D1032306E0042304E033
:10555000022302E0012300E000237A6A02F0030242
:1055600092009340FA681343FB602F497B6A9B08C3
:105570000233FA6841F823203B685B6803F4801328
:10558000002B06D02D4B9A682C49BB6913438B60C6
:1055900006E02A4B9A68BB69DB43284913408B60BD
:1055A0003B685B6803F40013002B06D0234BDA68DA
:1055B0002249BB691343CB6006E0204BDA68BB6924
:1055C000DB431E491340CB603B685B6803F4003348
:1055D000002B06D0194B5A681849BB6913434B601E
:1055E00006E0164B5A68BB69DB43144913404B6015
:1055F0003B685B6803F48033002B21D00F4B1A68A3
:105600000E49BB6913430B6021E000BF000032105C
:1056100000003110000022100000211000001210C4
:10562000000011100010024000000140000801407D
:10563000000C014000100140001401400004014032
:105640000B4B1A68BB69DB43094913400B607B6A4B
:1056500001337B623B681A687B6A22FA03F3002BF2
:105660007FF48EAE00BF00BF2C37BD4680BC7047B4
:105670000004014080B483B000AF78600B467B80AB
:1056800013467B707B78002B03D07A887B681A6185
:1056900003E07B881A047B681A6100BF0C37BD46A3
:1056A00080BC704780B485B000AF78600B467B80CB
:1056B0007B68DB68FB607A88FB6813401A04FB6830
:1056C000D9437B880B401A437B681A6100BF1437AB
:1056D000BD4680BC7047000080B584B000AF7860E4
:1056E0007B68002B01D101232BE17B6893F83D30CF
:1056F000DBB2002B06D17B68002283F83C2078685F
:10570000FEF7AEFB7B68242283F83D207B681B6894
:105710001A687B681B6822F001021A607B681B68AC
:105720001A687B681B6842F400421A607B681B6839
:105730001A687B681B6822F400421A6001F032F894
:10574000F8607B685B68814A934207D8FB68804AAF
:10575000934294BF01230023DBB206E0FB687D4A3D
:10576000934294BF01230023DBB2002B01D001231D
:10577000E7E0FB68784AA2FB03239B0CBB607B68D5
:105780001B685B6823F03F017B681B68BA680A43AB
:105790005A607B681B681B6A23F03F017B685B686B
:1057A0006A4A934202D8BB68013309E0BB684FF4F0
:1057B000967202FB03F3694AA2FB03239B090133A0
:1057C0007A6812680B4313627B681B68DB6923F4F9
:1057D0004F4222F0FF027B685B685C498B4219D81C
:1057E000FB68591E7B685B685B00B1FBF3F3591CD7
:1057F00040F6FC730B40002B0AD0FB68591E7B68F7
:105800005B685B00B1FBF3F30133C3F30B0351E0BF
:1058100004234FE07B689B68002B11D1FB68581E66
:105820007B6859680B465B000B44B0FBF3F3013314
:10583000C3F30B03002B0CBF01230023DBB212E0E8
:10584000FB68581E7B6859680B469B000B44990007
:105850000B44B0FBF3F30133C3F30B03002B0CBF7A
:1058600001230023DBB2002B01D0012322E07B685F
:105870009B68002B0ED1FB68581E7B6859680B464D
:105880005B000B44B0FBF3F30133C3F30B0343F4AE
:1058900000430FE0FB68581E7B6859680B469B006D
:1058A0000B4499000B44B0FBF3F30133C3F30B0338
:1058B00043F44043796809681343CB617B681B68F4
:1058C0001B6823F0C0017B68DA697B681B6A1A4396
:1058D0007B681B680A431A607B681B689B6823F41B
:1058E000034323F0FF037A6811697A68D268114391
:1058F0007A6812680B4393607B681B68DB6823F04F
:10590000FF017B685A697B689B691A437B681B6847
:105910000A43DA607B681B681A687B681B6842F080
:1059200001021A607B6800221A647B68202283F8D7
:105930003D207B6800221A637B68002283F83E20AA
:10594000002318461037BD4680BD00BFA086010069
:105950007F841E00FF083D0083DE1B43D34D621091
:1059600080B588B002AFF8607A601A460B467B813A
:1059700013463B81FEF760FD7861FB6893F83D308C
:10598000DBB2202B40F0E0807B69009319230122D9
:105990007049F86800F064F90346002B01D0022337
:1059A000D3E0FB6893F83C30012B01D10223CCE01B
:1059B000FB68012283F83C20FB681B681B6803F02E
:1059C0000103012B07D0FB681B681A68FB681B6882
:1059D00042F001021A60FB681B681A68FB681B68CA
:1059E00022F400621A60FB68212283F83D20FB68E4
:1059F000102283F83E20FB6800221A64FB687A6854
:105A00005A62FB683A895A85FB685B8D9AB2FB68DB
:105A10001A85FB68504ADA6279897B693A6AF868C4
:105A200000F09CF80346002B01D001238DE00023F9
:105A30003B61FB681B685B693B61FB681B689B699A
:105A40003B613B6966E07A69396AF86800F022FADE
:105A50000346002B0DD0FB681B6C042B07D1FB68A1
:105A60001B681A68FB681B6842F400721A60012305
:105A70006BE0FB685B6A1A78FB681B681A61FB685D
:105A80005B6A5A1CFB685A62FB685B8D9BB2013BE8
:105A90009AB2FB685A85FB681B8D013B9AB2FB6882
:105AA0001A85FB681B685B6903F00403042B1BD198
:105AB000FB681B8D002B17D0FB685B6A1A78FB68AC
:105AC0001B681A61FB685B6A5A1CFB685A62FB68B8
:105AD0005B8D9BB2013B9AB2FB685A85FB681B8DBC
