:020000040800F2
:1000000000500020D92000087D1F00087F1F000835
:10001000811F0008831F0008851F000800000000E2
:10002000000000000000000000000000871F000822
:10003000891F0008000000008B1F00088D1F0008AA
:100040002121000821210008212100082121000888
:100050002121000821210008212100082121000878
:10006000212100082121000821210008911F0008FA
:100070002121000821210008212100082121000858
:100080002121000821210008212100082121000848
:100090002121000821210008212100082121000838
:1000A000212100089D1F00082121000821210008AE
:1000B0002121000821210008A91F00082121000892
:1000C0002121000821210008212100082121000808
:1000D00021210008212100082121000821210008F8
:1000E0002121000821210008212100080000000032
:1000F0000000000000000000000000000000000000
:0C01000000000000000000005FF808F1A3
:1001100010B5054C237833B9044B13B10448AFF341
:1001200000800123237010BD60000020000000004B
:10013000F45A000808B5034B1BB103490348AFF359
:10014000008008BD0000000064000020F45A000890
:1001500081F0004102E000BF83F0004330B54FEA78
:1001600041044FEA430594EA050F08BF90EA020FE5
:100170001FBF54EA000C55EA020C7FEA645C7FEA78
:10018000655C00F0E2804FEA5454D4EB5555B8BF9B
:100190006D420CDD2C4480EA020281EA030382EA0C
:1001A000000083EA010180EA020281EA0303362D9E
:1001B00088BF30BD11F0004F4FEA01314FF4801C71
:1001C0004CEA113102D0404261EB410113F0004F83
:1001D0004FEA03334CEA133302D0524263EB43033A
:1001E00094EA050F00F0A780A4F10104D5F1200ED8
:1001F0000DDB02FA0EFC22FA05F2801841F1000133
:1002000003FA0EF2801843FA05F359410EE0A5F106
:1002100020050EF1200E012A03FA0EFC28BF4CF037
:10022000020C43FA05F3C01851EBE37101F00045ED
:1002300007D54FF0000EDCF1000C7EEB00006EEBFA
:100240000101B1F5801F1BD3B1F5001F0CD3490884
:100250005FEA30004FEA3C0C04F101044FEA4452DB
:1002600012F5800F80F09A80BCF1004F08BF5FEA62
:10027000500C50F1000041EB045141EA050130BD42
:100280005FEA4C0C404141EB0101013C28BFB1F554
:10029000801FE9D291F0000F04BF01460020B1FA9F
:1002A00081F308BF2033A3F10B03B3F120020CDA72
:1002B0000C3208DD02F1140CC2F10C0201FA0CF050
:1002C00021FA02F10CE002F11402D8BFC2F1200CB5
:1002D00001FA02F120FA0CFCDCBF41EA0C0190406B
:1002E000E41AA2BF01EB0451294330BD6FEA0404B4
:1002F0001F3C1CDA0C340EDC04F11404C4F120029F
:1003000020FA04F001FA02F340EA030021FA04F3B0
:1003100045EA030130BDC4F10C04C4F1200220FA07
:1003200002F001FA04F340EA0300294630BD21FA45
:1003300004F0294630BD94F0000F83F4801306BF0B
:1003400081F480110134013D4EE77FEA645C18BFFF
:100350007FEA655C29D094EA050F08BF90EA020F96
:1003600005D054EA000C04BF1946104630BD91EA8E
:10037000030F1EBF0021002030BD5FEA545C05D191
:100380004000494128BF41F0004130BD14F58004D0
:100390003CBF01F5801130BD01F0004545F0FE4144
:1003A00041F470014FF0000030BD7FEA645C1ABF79
:1003B000194610467FEA655C1CBF0B46024650EAB0
:1003C000013406BF52EA033591EA030F41F40021DC
:1003D00030BD00BF90F0000F04BF0021704730B562
:1003E0004FF4806404F132044FF000054FF0000137
:1003F00050E700BF90F0000F04BF0021704730B5F8
:100400004FF4806404F1320410F0004548BF4042CC
:100410004FF000013EE700BF42004FEAE2014FEA21
:1004200031014FEA02701FBF12F07F4393F07F4FFC
:1004300081F06051704732F07F4208BF704793F0FF
:100440007F4F04BF41F40021704730B54FF4607412
:1004500001F0004521F000411CE700BF50EA010215
:1004600008BF704730B54FF000050AE050EA0102BE
:1004700008BF704730B511F0004502D5404261EB2E
:1004800041014FF4806404F132045FEA915C3FF46F
:10049000D8AE4FF003025FEADC0C18BF03325FEA0C
:1004A000DC0C18BF033202EBDC02C2F1200300FABD
:1004B00003FC20FA02F001FA03FE40EA0E0021FAE2
:1004C00002F11444BDE600BF70B54FF0FF0C4CF4D0
:1004D000E06C1CEA11541DBF1CEA135594EA0C0F82
:1004E00095EA0C0F00F0DEF82C4481EA030621EABD
:1004F0004C5123EA4C5350EA013518BF52EA0335F8
:1005000041F4801143F4801338D0A0FB02CE4FF0A9
:100510000005E1FB02E506F00042E0FB03E54FF0D9
:100520000006E1FB03569CF0000F18BF4EF0010ED1
:10053000A4F1FF04B6F5007F64F5407404D25FEACD
:100540004E0E6D4146EB060642EAC62141EA555180
:100550004FEAC52040EA5E504FEACE2EB4F1FD0CC2
:1005600088BFBCF5E06F1ED8BEF1004F08BF5FEA40
:10057000500E50F1000041EB045170BD06F00046F2
:1005800046EA010140EA020081EA0301B4EB5C049F
:10059000C2BFD4EB0C0541EA045170BD41F4801197
:1005A0004FF0000E013C00F3AB8014F1360FDEBFBC
:1005B000002001F0004170BDC4F10004203C35DA98
:1005C0000C341BDC04F11404C4F1200500FA05F31B
:1005D00020FA04F001FA05F240EA020001F00042BC
:1005E00021F0004110EBD37021FA04F642EB060132
:1005F0005EEA430E08BF20EAD37070BDC4F10C045C
:10060000C4F1200500FA04F320FA05F001FA04F21F
:1006100040EA020001F0004110EBD37041F100010B
:100620005EEA430E08BF20EAD37070BDC4F1200516
:1006300000FA05F24EEA020E20FA04F301FA05F27E
:1006400043EA020321FA04F001F0004121FA04F226
:1006500020EA020000EBD3705EEA430E08BF20EAF6
:10066000D37070BD94F0000F0FD101F00046400030
:1006700041EB010111F4801F08BF013CF7D041EAB2
:10068000060195F0000F18BF704703F000465200B6
:1006900043EB030313F4801F08BF013DF7D043EA87
:1006A0000603704794EA0C0F0CEA135518BF95EA3D
:1006B0000C0F0CD050EA410618BF52EA4306D1D1C4
:1006C00081EA030101F000414FF0000070BD50EAE3
:1006D000410606BF1046194652EA430619D094EA6D
:1006E0000C0F02D150EA013613D195EA0C0F05D157
:1006F00052EA03361CBF104619460AD181EA0301AB
:1007000001F0004141F0FE4141F470014FF0000062
:1007100070BD41F0FE4141F4780170BD70B54FF0FD
:10072000FF0C4CF4E06C1CEA11541DBF1CEA13557D
:1007300094EA0C0F95EA0C0F00F0A7F8A4EB05045F
:1007400081EA030E52EA03354FEA013100F0888056
:100750004FEA03334FF0805545EA131343EA12631F
:100760004FEA022245EA111545EA10654FEA0026D4
:100770000EF000419D4208BF964244F1FD0404F58D
:10078000407402D25B084FEA3202B61A65EB0305E9
:100790005B084FEA32024FF480104FF4002CB6EBA6
:1007A000020E75EB030E22BFB61A754640EA0C0026
:1007B0005B084FEA3202B6EB020E75EB030E22BF66
:1007C000B61A754640EA5C005B084FEA3202B6EBA7
:1007D000020E75EB030E22BFB61A754640EA9C0066
:1007E0005B084FEA3202B6EB020E75EB030E22BF36
:1007F000B61A754640EADC0055EA060E18D04FEAF4
:10080000051545EA16754FEA06164FEAC30343EA93
:1008100052734FEAC2025FEA1C1CC0D111F4801F60
:100820000BD141EA00014FF000004FF0004CB6E759
:1008300011F4801F04BF01430020B4F1FD0C88BFF8
:10084000BCF5E06F3FF6AFAEB5EB030C04BFB6EB03
:10085000020C5FEA500C50F1000041EB045170BDF6
:100860000EF0004E4EEA113114EB5C04C2BFD4EB23
:100870000C0541EA045170BD41F480114FF0000EA7
:10088000013C90E645EA060E8DE60CEA135594EA23
:100890000C0F08BF95EA0C0F3FF43BAF94EA0C0F26
:1008A0000AD150EA01347FF434AF95EA0C0F7FF49B
:1008B00025AF104619462CE795EA0C0F06D152EAEF
:1008C00003353FF4FDAE1046194622E750EA4106D3
:1008D00018BF52EA43067FF4C5AE50EA41047FF4E4
:1008E0000DAF52EA43057FF4EBAE12E74FF0FF3C49
:1008F00006E000BF4FF0010C02E000BF4FF0010C1A
:100900004DF804CD4FEA410C7FEA6C5C4FEA430C92
:1009100018BF7FEA6C5C1BD001B050EA410C0CBFE1
:1009200052EA430C91EA030F02BF90EA020F002043
:10093000704710F1000F91EA030F58BF994208BFAA
:1009400090422CBFD8176FEAE37040F00100704767
:100950004FEA410C7FEA6C5C02D150EA013C07D1BE
:100960004FEA430C7FEA6C5CD6D152EA033CD3D009
:100970005DF8040B704700BF8446104662468C4603
:100980001946634600E000BF01B5FFF7B7FF002836
:1009900048BF10F1000F01BD4DF808EDFFF7F4FF5F
:1009A0000CBF012000205DF808FB00BF4DF808EDEA
:1009B000FFF7EAFF34BF012000205DF808FB00BF0D
:1009C0004DF808EDFFF7E0FF94BF012000205DF82F
:1009D00008FB00BF4DF808EDFFF7CEFF94BF0120E4
:1009E00000205DF808FB00BF4DF808EDFFF7C4FFDD
:1009F00034BF012000205DF808FB00BF4FEA410C26
:100A00007FEA6C5C02D150EA013C0AD14FEA430C08
:100A10007FEA6C5C02D152EA033C02D14FF0000045
:100A200070474FF0010070474FEA410212F5001283
:100A300015D211D56FF47873B3EB625212D94FEA25
:100A4000C12343F0004343EA505311F0004F23FA0F
:100A500002F018BF404270474FF00000704750EA64
:100A6000013005D111F0004008BF6FF00040704721
:100A70004FF00000704700BF4FEA4102B2F1E0437F
:100A800024BFB3F5001CDCF1FE5C0DD901F0004C75
:100A90004FEAC0024CEA5070B2F1004F40EB8300C5
:100AA00008BF20F00100704711F0804F21D113F1F1
:100AB0003872BCBF01F00040704741F480114FEA2A
:100AC0005252C2F11802C2F1200C10FA0CF320FAB3
:100AD00002F018BF40F001004FEAC1234FEAD323D0
:100AE00003FA0CFC40EA0C0023FA02F34FEA43033A
:100AF000CCE77FEA625307D150EA01331EBF4FF0C3
:100B0000FE4040F44000704701F0004040F0FE40DD
:100B100040F40000704700BF80F0004002E000BFDA
:100B200081F0004142001FBF5FEA410392EA030FD8
:100B30007FEA226C7FEA236C6AD04FEA1262D2EB22
:100B40001363C1BFD218414048404140B8BF5B4227
:100B5000192B88BF704710F0004F40F4000020F0C0
:100B60007F4018BF404211F0004F41F4000121F0D6
:100B70007F4118BF494292EA030F3FD0A2F1010220
:100B800041FA03FC10EB0C00C3F1200301FA03F15E
:100B900000F0004302D5494260EB4000B0F5000F81
:100BA00013D3B0F1807F06D340084FEA310102F140
:100BB0000102FE2A51D2B1F1004F40EBC25008BFF2
:100BC00020F0010040EA03007047490040EB0000BC
:100BD000013A28BFB0F5000FEDD2B0FA80FCACF1BD
:100BE000080CB2EB0C0200FA0CF0AABF00EBC250EA
:100BF00052421843BCBFD0401843704792F0000FD8
:100C000081F4000106BF80F400000132013BB5E72A
:100C10004FEA41037FEA226C18BF7FEA236C21D0A0
:100C200092EA030F04D092F0000F08BF0846704705
:100C300090EA010F1CBF0020704712F07F4F04D1D3
:100C4000400028BF40F00040704712F100723CBFE6
:100C500000F50000704700F0004343F0FE4040F410
:100C6000000070477FEA226216BF08467FEA2363CE
:100C70000146420206BF5FEA412390EA010F40F4B9
:100C8000800070474FF0000304E000BF10F0004305
:100C900048BF40425FEA000C08BF704743F09643EC
:100CA00001464FF000001CE050EA010208BF704707
:100CB0004FF000030AE000BF50EA010208BF70478E
:100CC00011F0004302D5404261EB41015FEA010CA3
:100CD00002BF84460146002043F0B64308BFA3F19B
:100CE0008053A3F50003BCFA8CF2083AA3EBC2537D
:100CF00010DB01FA02FC634400FA02FCC2F120029C
:100D0000BCF1004F20FA02F243EB020008BF20F0D2
:100D10000100704702F1200201FA02FCC2F1200238
:100D200050EA4C0021FA02F243EB020008BF20EA2D
:100D3000DC7070474FF0FF0C1CEAD0521EBF1CEA5B
:100D4000D15392EA0C0F93EA0C0F6FD01A4480EA49
:100D5000010C400218BF5FEA41211ED04FF0006332
:100D600043EA501043EA5111A0FB01310CF000405E
:100D7000B1F5000F3EBF490041EAD3715B0040EA84
:100D8000010062F17F02FD2A1DD8B3F1004F40EB54
:100D9000C25008BF20F00100704790F0000F0CF027
:100DA000004C08BF49024CEA502040EA51207F3AEB
:100DB000C2BFD2F1FF0340EAC250704740F40000C6
:100DC0004FF00003013A5DDC12F1190FDCBF00F0B7
:100DD00000407047C2F10002410021FA02F1C2F165
:100DE000200200FA02FC5FEA310040F1000053EA01
:100DF0004C0308BF20EADC70704792F0000F00F04F
:100E0000004C02BF400010F4000F013AF9D040EA54
:100E10000C0093F0000F01F0004C02BF490011F4E8
:100E2000000F013BF9D041EA0C018FE70CEAD153E6
:100E300092EA0C0F18BF93EA0C0F0AD030F0004C66
:100E400018BF31F0004CD8D180EA010000F000401A
:100E5000704790F0000F17BF90F0004F084691F0D8
:100E6000000F91F0004F14D092EA0C0F01D1420212
:100E70000FD193EA0C0F03D14B0218BF084608D1DB
:100E800080EA010000F0004040F0FE4040F4000025
:100E9000704740F0FE4040F4400070474FF0FF0CB8
:100EA0001CEAD0521EBF1CEAD15392EA0C0F93EAFF
:100EB0000C0F69D0A2EB030280EA010C49024FEA51
:100EC000402037D04FF0805343EA111143EA10130A
:100ED0000CF000408B4238BF5B0042F17D024FF4C2
:100EE000000C8B4224BF5B1A40EA0C00B3EB510F9D
:100EF00024BFA3EB510340EA5C00B3EB910F24BF86
:100F0000A3EB910340EA9C00B3EBD10F24BFA3EB0A
:100F1000D10340EADC001B0118BF5FEA1C1CE0D1D2
:100F2000FD2A3FF650AF8B4240EBC25008BF20F085
:100F3000010070470CF0004C4CEA50207F32C2BFD9
:100F4000D2F1FF0340EAC250704740F400004FF076
:100F50000003013A37E792F0000F00F0004C02BFA7
:100F6000400010F4000F013AF9D040EA0C0093F071
:100F7000000F01F0004C02BF490011F4000F013BCB
:100F8000F9D041EA0C0195E70CEAD15392EA0C0F33
:100F900008D142027FF47DAF93EA0C0F7FF470AF6B
:100FA000084676E793EA0C0F04D14B023FF44CAFAE
:100FB00008466EE730F0004C18BF31F0004CCAD143
:100FC00030F000427FF45CAF31F000437FF43CAF7F
:100FD0005FE700BF42000ED2B2F1FE4F0BD34FF0DD
:100FE0009E03B3EB126209D44FEA002343F000439F
:100FF00023FA02F070474FF00000704712F1610FC2
:1010000001D1420202D14FF0FF3070474FF0000093
:10101000704700BF2DE9F04780212E4801F0B1FD57
:101020002D4BDFF8B8801C88D8F80020DFF8B0E03E
:101030005888A4B2DFF8ACC01444DEF80020D98888
:1010400080B21044DCF80020274F89B211449A88FE
:10105000D7F80090254E92B235784A44DFF8909048
:101060001B89D9F800A00135EDB29BB25344092D7C
:101070003570C8F80040CEF80000CCF800103A6097
:10108000C9F8003024D90A25B4FBF5F4B0FBF5F01B
:10109000B1FBF5F1B2FBF5F2B3FBF5F3DFF854A0C9
:1010A000AAF80040144C20801448018014490A809A
:1010B000144A13800122144B1A700023C8F8003020
:1010C000CEF80030CCF800303B60C9F80030337007
:1010D000BDE8F08700080140C4000020C0000020E7
:1010E000BC000020B8000020B40000207D000020DB
:1010F000B0000020AC000020AA000020A8000020C2
:10110000A6000020A40000207C00002000000000B9
:101110002DE9F843524F3B78002B00F08980514B6A
:101120001888FFF7B3FD5049FFF7B8FEFFF752FFED
:101130004E4B85B21D804E4B1D804E4B1888FFF7DD
:10114000A5FD4D49FFF7AAFEFFF744FF4B4B84B2C4
:101150001C804B4B1FFA84F9A3F80090494B188868
:10116000FFF794FD4849FFF799FEFFF733FF474B20
:1011700086B21E80464B75431E80464B1888FFF78B
:1011800085FD4549FFF78AFEFFF724FF434B1FFA11
:1011900080F8A3F80080424BA3F80080414B1888E8
:1011A000FFF728F924A3D3E90023FFF78DF9FFF710
:1011B00063FC3D4B014618603C48FFF76FFE3C491D
:1011C000FFF7AEFC3B4B3C491860FFF767FEFFF7AB
:1011D00023F904F0A5FA1AA3D3E90023FFF774F961
:1011E00019A3D3E90023FEF7B9FF02460B4618A165
:1011F000D1E90001FFF792FA17A3D3E90023FEF724
:10120000ABFFFFF711FC2D4B012218602C4B08FBA4
:1012100009F01D802B4B188064235C434FF49073BE
:10122000B4FBF3F4284B1C8000233B70274B1A704F
:10123000BDE8F883AFF30080B4D934E70C684A3FC7
:101240000000006066A272400000000000DCAE40BA
:10125000000000805CF831410000006066127140BF
:101260007C000020AC0000209A991941A0000020C9
:1012700094000020AA00002000001841A2000020D5
:1012800096000020A8000020CDCC80419C000020CA
:1012900090000020A60000209A9951419E00002055
:1012A00092000020A40000209800002000B0FD461D
:1012B00000C019468000002000401C468800002025
:1012C0008C0000208E0000208400002001030020FC
:1012D0002929104608B501D100F06CFF012008BD96
:1012E000182973B517D0192921D0172925D1002421
:1012F0001348144D01780A44D2B28A4204D104B191
:101300000270012002B070BD13F8016B4C1C6E54CA
:10131000E1B20124F1E70023094A13704FF47A7215
:1013200000927821074A084801F0CCFDE9E74FF424
:101330007A730093024B1B78F3E70020E2E700BFCB
:10134000EE000020CE0000203002002013B5314C0A
:10135000314B324A3249204602F0D4FE0A2000F0D6
:1013600029FF204603F0E9FC0A2000F023FF204675
:10137000002103F0EAFC002240231146204600939E
:10138000802302F0F0FD2046012103F08AF8204678
:10139000244903F027F90A2203212046224B03F0B7
:1013A000E7F81422214B0321204603F0E1F8204600
:1013B0001F4903F017F91F493C221F4B204609889B
:1013C00003F0D6F820461D4903F00CF93A22032118
:1013D00020461B4B03F0CCF83822204600922523F0
:1013E000102103F0C2F9174B002201931823682142
:1013F0000093204602F090FD204602F02BFE40F6BE
:10140000B83000F0D7FE204602B0BDE8104002F030
:1014100063BE00BF0C010020D1120008E1120008D9
:10142000046F00088E5C00080C5B00081D5B000860
:101430003560000800000020345B00082E6C0008B6
:10144000435B0008C25B000870B505460E461446B3
:10145000042B20D8DFE803F0030E161A27000A2316
:10146000B4FBF3F203FB124313499BB2134803F09E
:10147000A7FC10E00A23B4FBF3F203FB124310496C
:101480009BB2F3E7B02322460E49EFE722460E490E
:101490000A4803F095FC32462946BDE87040074BE8
:1014A0000A4803F065B86423B4FBF3F203FB12436C
:1014B00007499BB2DAE700BF475B0008EF00002056
:1014C000515B00085B5B0008625B00080C010020B8
:1014D000675B000813B5404802F0B2FD00224023CC
:1014E0000C2411463C480093802302F03CFD3B4B0A
:1014F00002220A213848019300940F2302F00CFDC8
:10150000374B02223821CDE900433348102302F043
:1015100003FD344B02226721CDE900432E480F23FF
:1015200002F0FAFC30492C4803F05CF82F4A002303
:10153000172102201288FFF787FF2D4A0023172169
:1015400061201288FFF780FF2A4A0123222102200E
:101550001288FFF779FF284A01232221612012888F
:10156000FFF772FF254A0223172135201288FFF763
:101570006BFF234A0323222135201288FFF764FFE3
:10158000204A04232D2102201288FFF75DFF1E4A06
:1015900004232D215B201288FFF756FF1B4A0323EB
:1015A000382161201288FFF74FFF194B1B785BB180
:1015B000184B38220221084802F0DAFF064802B030
:1015C000BDE8104002F046BD134B1B780BB1134B26
:1015D000EFE7134BEDE700BF0C0100203A5C000879
:1015E000225C00080A5C00085E6400089400002089
:1015F000960000209000002092000020880000202B
:10160000040300208C0000208E00002084000020B5
:10161000FF020020715B0008FE0200207C5B0008D6
:10162000875B000810B594B0142200210CA803F0C9
:1016300003FC142200210DEB020003F0FDFB10223D
:10164000002101A803F0F8FB02244FF480330122AB
:10165000CDE91143CDE90A234FF4E0130AA80E9215
:10166000139301F009FD08B172B6FEE70F23CDE92F
:1016700005344FF480630790CDE90830214605A872
:1016800001F0BCFE08B172B6FEE74FF4004301A8BA
:101690000194039301F06EFF08B172B6FEE714B037
:1016A00010BD000080B59C4C96B000F05FFDFFF7C8
:1016B000B9FF102200210EA803F0BEFBA36900228F
:1016C00043F02003A361A369802103F02003029368
:1016D000029BA369914843F00403A361A369002519
:1016E00003F004030393039BA369012643F008035B
:1016F000A361A3694FF0020803F008030493049B5D
:1017000001F03AFA00224EF20401854801F034FA61
:101710008023042781480EA9CDE90E36CDE9105863
:1017200001F056F97E480EA94FF00309CDE90E7677
:10173000CDE9105801F04CF94FF4604378480EA9F8
:10174000CDE90E361095CDF8449001F041F963696A
:101750007448334363616369DFF8CCC1334001935C
:10176000019B724BC0E90255C0E900C34FF48043AE
:10177000C0E90655C0E90435056201F0FBFA08B17D
:1017800072B6FEE76A4C6B4B052523604FF48073FD
:10179000A3604FF46023CDE90E00109020756060C7
:1017A00020462673E361256100F0C0FE08B172B6E1
:1017B000FEE70623CDE90E060EA92046109300F0A1
:1017C00047FD08B172B6FEE720460EA9CDE90E68C6
:1017D00000F03EFD08B172B6FEE720460EA9CDE945
:1017E0000E7900F035FD08B172B6FEE708232046F9
:1017F0000EA9CDE90E3700F02BFD08B172B6FEE759
:10180000092320460EA9CDE90E3500F021FD05463D
:1018100008B172B6FEE7014610220EA803F00CFBD9
:101820004723454C45492046C4E9001340F2E733BD
:10183000CDE90755C4E90335A560A56102F0DAF8E2
:1018400008B172B6FEE74FF4805320460EA90E93FE
:1018500002F0B6F908B172B6FEE7CDE9070007A9B4
:10186000204602F0A5FA08B172B6FEE700251C2258
:1018700029460DEB0200CDE9055503F0DDFA2022E3
:1018800029460EA803F0D8FA03232D4C2D4A2046F2
:10189000C4E9002340F22B13C4E90555C4E903351C
:1018A000A56002F0D3F808B172B6FEE7CDE90500F5
:1018B00005A9204602F07CFA08B172B6FEE70427BB
:1018C0006023CDE90900CDE90730CDE90B700D901B
:1018D0003A46204607A902F011F908B172B6FEE7B0
:1018E0000822204607A902F009F908B172B6FEE7FE
:1018F0004FF480434FF40056CDE90E00CDE91000BF
:1019000012900EA920461396159302F07FFA054611
:10191000D0B172B6FEE700BF0010024000080140DF
:10192000000C01403002002000540040A08601005D
:10193000C802002000240140A0010020000800404F
:10194000E8010020002C0140204600F0EFFA0222BE
:1019500029460B2000F0EAFE0B2000F017FFFFF7EE
:10196000F5FC01223146254801F006F9244801F032
:101970004DFF204601F04AFF0821204602F016FAEA
:101980003946204602F012FA1E4800F04DFE4FF490
:10199000FA7000F00FFC05221B491A4800F012FDF6
:1019A0004FF4FA7000F006FC2A463146134801F065
:1019B000E3F8164C237813B12570FFF7A9FB637881
:1019C00003B16570A37803B1A570E37813B1E57036
:1019D00000F0EEF8237913B1257100F00DFB637967
:1019E00033B104210548657101F0CBF8FFF772FDB2
:1019F000A379002BDED0A571DCE700BF000C01400D
:101A0000A0010020C8020020C4000020FF00002028
:101A1000324B30B4984216D1314B324A1B7832499E
:101A200053B1107809880130C0B2032828BF0120C3
:101A3000107030BC00F01AB913702C4A30BC1380FF
:101A40000B8000F05DB92A4B984244D10125294C06
:101A50002948217802782944C9B20429217088BF15
:101A60000021264B2A44D2B284BF21705D70092A1E
:101A700023491D70027006D901240A789C70224403
:101A80000A70002202700A78092A1E4A06D9012427
:101A90001078DC7020441070002008701178042940
:101AA000194906D9012408781C71204408700020C7
:101AB00010700A78012A154A06D9012410785C7141
:101AC00020441070002008701178012981BF012185
:101AD00099710023137030BC704700BFE8010020EB
:101AE000000300200E030020080300200C03002048
:101AF000A00100200B0100200A010020FF000020AF
:101B00000901002008010020070100200601002033
:101B100072B6FEE71D4AF0B512881D4C322A2388A2
:101B200011D9013B238023881A4AB3F5167F24BFBD
:101B30004FF416732380238813800622B3FBF2F33D
:101B4000154A1360F0BD154A1188B1F5907FE8D8A9
:101B5000134A144E17883288134897420588134A4F
:101B600008D91088A84202D2013B23800AE006D996
:101B70000133FAE703D21088A842F9D3F4D8B1F5BB
:101B8000907FF5D137801580CDE700BF920000200F
:101B90000C0300200803002004030020960000200E
:101BA0008C000020FA02002094000020F80200209F
:101BB00070B5264E3378002B40D0254B1B78002B78
:101BC0003CD0244C244D2378002B32D0FFF7A2FFC9
:101BD000224B234A1B88322B03D81388B3F5907FFE
:101BE00003D920490B88013B0B8013881E4AB3F5AB
:101BF000907F1CD3138801339BB2B3F5FA6F138027
:101C000017D900230121237029701380144B154A22
:101C100019881388B1F5907F11D80133B1F58E7F03
:101C200013800ED20123237000232B7004E00023C5
:101C300013802B78002BE9D10023337070BD013B5A
:101C40001380064B1B88092BECD8F5E70103002015
:101C500000030020FF020020FE020020920000206E
:101C60009600002008030020FC02002010B5204A46
:101C700013786BB9012414701E4A13701E4B1B6835
:101C80009A6942F400629A61DA6942F00802DA6104
:101C9000B1F5167F0B4628BF4FF41673012814D1F7
:101CA000B1F5167F154A03D34FF49673D3630AE058
:101CB000B1F5967F2DBF4FF49671D3630023D163A6
:101CC00028BFA3F59673936310BD0228FCD1B1F52C
:101CD000167F0A4AE8D2B1F5967F33BF0021A3F5FB
:101CE0009673D363D16328BF4FF49673EBE700BFBD
:101CF0000A0300200B030020E8010020002C014013
:101D00000A4B1A786AB90A490A7001221A70094BFB
:101D10001B689A6922F400629A61DA6922F008026B
:101D2000DA610022044B9A63DA6370470B030020E8
:101D30000A030020E8010020002C0140104B07B5E9
:101D40009A69052042F001029A619A6902F0010243
:101D50000092009ADA6942F08052DA61DB6903F09E
:101D600080530193019B00F0CFFC064A536823F097
:101D7000E06343F00073536003B05DF804FB00BF01
:101D80000010024000000140102230B5054689B025
:101D90000DEB0200002103F04FF82A68254B9A4210
:101DA00045D103F56C439A69032442F400729A61A9
:101DB0009A69214802F400720192019A9A6904A971
:101DC00042F004029A619A6902F004020292029AB5
:101DD0009A6942F008029A619B6903F00803039331
:101DE000039B1323CDE9043400F0F2FD134804A94A
:101DF000CDE9044400F0ECFD0023114C114A802190
:101E0000C4E90023A3604FF480734FF48060C4E9F9
:101E100003132023C4E905034FF480532046E361F4
:101E200000F0D6FC08B1FFF773FE2C62656209B0C2
:101E300030BD00BF0024014000080140000C0140FB
:101E4000840200200800024010B5044686B010222B
:101E5000002102A802F0F0FF2268114B9A421CD127
:101E6000104CC022A369104843F00803A361A36982
:101E700002A903F008030093009B1223CDE902237B
:101E80000323059300F0A4FDE36943F40013E36129
:101E9000E36903F400130193019B06B010BD00BF7A
:101EA0000054004000100240000C014007B50E4BEA
:101EB00002689A4215D103F564439A69192042F4E5
:101EC00000629A6100229B69114603F4006301934A
:101ED000019B00F02BFC192003B05DF804EB00F02F
:101EE00055BC03B05DF804FB002C014007B50E4B58
:101EF00002689A4215D103F50233DA69002142F0F3
:101F00000402DA61DB69012203F0040301931E205D
:101F1000019B00F00BFC1E2003B05DF804EB00F009
:101F200035BC03B05DF804FB0008004010B5044662
:101F300086B01022002102A802F07EFF22680D4B1D
:101F40009A4215D103F564439A690B4842F00402A2
:101F50009A619B694FF4C06203F004030193019BF3
:101F60000223CDE90223032302A9059300F030FDEB
:101F700006B010BD002C014000080140FEE7FEE75E
:101F8000FEE7FEE7FEE770477047704700F000B9D4
:101F9000014800F089BC00BF84020020014801F024
:101FA00063BC00BFE8010020014801F05DBC00BF38
:101FB000A00100200B4A0346116810B509B90A496F
:101FC0001160106809490A4C0344091B8B4206D969
:101FD00002F03AFF0C2303604FF0FF3010BD136096
:101FE000FCE700BF1003002068080020005000201C
:101FF00000040000704700002D4B10B51B68262B15
:1020000029DD01224FF400512A4800F0B5FD2A4B8A
:1020100019882A4BB1F5967F1888294B1FD8294A71
:102020001288462A3FD8FA283FD903221A70002284
:102030004FF480411F4800F09FFD00224FF4004103
:102040001C4800F099FD00231F4A13701F4A1370AB
:102050001F4A137026E0222BD9DC0022D2E701228E
:102060004F281A70E3D96329E1D9D4B2002CDED10C
:1020700001224FF480410F4800F07EFD154A13788D
:102080000133DBB2052B13700CD901224FF4004150
:10209000084800F071FD01230B4A13700B4A1370BE
:1020A0000B4B1C7010BD0422DAE70022D8E700BFFA
:1020B00088000020000C01409600002094000020C1
:1020C000150300209200002000030020FF020020E2
:1020D000FE02002014030020FFF78CFF0B480C4980
:1020E0000C4A002302E0D458C4500433C4188C4274
:1020F000F9D3094A094C002301E013600432A242DB
:10210000FBD302F0A7FEFFF7CDFA704700000020D6
:1021100060000020746F0008600000206408002048
:10212000FEE7000038B50E4B05461A784FF47A7377
:10213000B3FBF2F30B4A1068B0FBF3F000F034FB92
:10214000044658B90F2D09D8024629464FF0FF30F2
:1021500000F0ECFA2046044B1D6038BD0120FCE77E
:1021600008000020040000200C000020074A08B5E9
:102170001368032043F01003136000F0C5FA002039
:10218000FFF7D0FFFFF7DAFD002008BD0020024076
:10219000034A044B11681B780B441360704700BF5F
:1021A0001803002008000020014B1868704700BF8A
:1021B0001803002038B50446FFF7F6FF0546631CF8
:1021C0001EBF044B1B78E418FFF7EEFF431BA3422E
:1021D000FAD338BD08000020436A10B59A6A12F09D
:1021E000500F1BD19A6A42F400729A621A68926880
:1021F00002F46022B2F5602F0CD11A7B52B99A6AB0
:1022000022F480729A629A6AD2045EBF9A6A42F09D
:1022100001029A621846FEF7FDFE10BD1B6ABDE87A
:1022200010401B6B1847704708B5406AFFF7FBFF6B
:1022300008BD7047406A08B5836A43F04003836273
:10224000C36A43F00403C362FFF7F3FF08BD000055
:10225000002373B5019390F824300446012B6CD011
:10226000012380F824304D680268062D086805EBCC
:10227000850322D81F26556B053B9E4025EA06059F
:1022800000FA03F32B43536309288B6800EB4005E6
:102290004FF0070129D9D6681E3DA94026EA010161
:1022A000AB400B43D360A0F11003012B25D90020D4
:1022B000002384F8243002B070BD0C2D4FF01F05B0
:1022C00009D8166B233B9D4026EA050500FA03F367
:1022D0002B431363D8E7D66A413B9D4026EA0505A8
:1022E00000FA03F32B43D362CEE71069A94020EA3A
:1022F0000101AB400B431361D9E7114B9A4216D150
:1023000093681B02D3D49368102843F400039360AE
:10231000CDD10C4B0C4A1B68B3FBF2F30A2253439A
:102320000193019B002BC2D0019B013BF8E7A36AFC
:10233000012043F02003A362BAE70220BBE700BFFD
:10234000002401400400002040420F00002337B564
:102350000193036804469A68D20702D5002003B0AF
:1023600030BD9A6842F001029A60144B144A1B680F
:10237000B3FBF2F30193019BE3B9FFF715FF0546A9
:1023800023689B68DB07E9D4FFF70EFF401B022898
:10239000F6D923689B6813F00103F1D1A26A0120EA
:1023A00042F01002A262E26A84F8243042F0010294
:1023B000E262D4E7019B013BDCE700BF04000020A0
:1023C00040420F002DE9F041404B90460268044620
:1023D0009A420F4602D03E498A4203D15B6813F409
:1023E000702F6ED194F82430012B6CD0012320463D
:1023F00084F82430FFF7AAFF064600285DD1A56ABD
:102400002168334B25F4706525F0010545F480758E
:102410009942A56204D12D4A536813F4702F3ED11E
:10242000A36A23F48013A3624B685A0505D5A36AF7
:1024300023F4405343F48053A362A36A206A13F445
:10244000805318BFE36A3A4618BF23F00603E362DD
:10245000002384F824301F4B4C3183621E4BC3622F
:102460001E4B03636FF0020341F84C3C51F8443CAF
:1024700043F4807341F8443C434600F0D9F92368A3
:102480009A6802F46022B2F5602F9A680CBF42F499
:10249000A00242F480129A603046BDE8F081A36A3F
:1024A00043F48013A36253685B0541BFA06A20F424
:1024B000405040F48050A062BFE7002384F82430ED
:1024C000EAE70126E8E70226E6E700BF002401402C
:1024D00000280140D92100082922000835220008DF
:1024E00038B5036804469A68D10701D4002038BD86
:1024F0009A6822F001029A60FFF756FE05462368AB
:102500009B68DB07F2D5FFF74FFE401B0228F6D988
:1025100023689B68DA07F2D5A36A012043F0100311
:10252000A362E36A43F00103E362E0E7F8B504461F
:1025300000286DD0836A23B9C36280F82430FFF786
:1025400023FC2046FFF7CCFFA36A13F0100361D1F0
:1025500000285FD1A26A616822F4885222F0020248
:1025600042F00202E569A668A262227B2943B6F521
:10257000807F41EA420136D0771E7D427D412D02A7
:10258000277D012F06D182BBA269013A45EA42327A
:1025900042F400652268B6F5807F576827F46947E2
:1025A00045EA0705556097681D4D05EA070545EAA8
:1025B0000105956001D0012E02D12369013B1B0565
:1025C000D56A25F470052B43D3629268154B1340EE
:1025D000994213D10023E362A36A23F0030343F07B
:1025E0000103A362F8BD3546CAE7A26A42F02002A1
:1025F000A262E26A42F00102E262CBE7A36A23F040
:10260000120343F01003A362E36A43F00103E362A1
:102610000120E7E7A36A43F01003A362F8E700BFD5
:10262000FDF7E1FFFE0E1FFF002373B5019390F845
:1026300024300446012B62D0012380F82430FFF7B8
:102640004FFF2046FFF782FE054600282FD1A36AE0
:10265000022023F4885323F0020343F00203A36211
:10266000284B1E6801F000F8B6FBF0F676000196E4
:10267000019B03BB2268936843F008039360FFF754
:1026800093FD064623689A68110718D49A6842F0A9
:1026900004029A60FFF788FD064623689B685B0783
:1026A00023D4A36A23F0030343F00103A3620023AE
:1026B00084F8243016E0019B013B0193D8E7FFF733
:1026C00073FD801B0A28DDD923689B681807D9D5BC
:1026D000A36A012523F0120343F01003A362002331
:1026E00084F82430284602B070BDFFF75DFD801BE2
:1026F0000A28D2D923689B685A07CED5E8E7022575
:10270000F0E700BF0400002007490302CA6803F491
:10271000E06322F4E0621204120C134343F0BF633F
:1027200043F40033CB60704700ED00E0154B30B54B
:10273000DC68C4F30224C4F10703251D042B28BF61
:102740000423062D4FF0FF3594BF0024033C05FA07
:1027500003F321EA0303A54022EA0502A34000286F
:1027600043EA0203ACBF00F16040074A4FEA03139B
:10277000DBB2ABBF00F5614000F00F0080F8003322
:10278000135430BD00ED00E014ED00E0002807DB3D
:1027900001234109034A00F01F00834042F8213021
:1027A000704700BF00E100E00138B0F1807F0BD23C
:1027B0004FF0E023F021054A586182F823100020F1
:1027C000072298611A6170470120704700ED00E010
:1027D000034610B530B301681420134A0A44B2FB13
:1027E000F0F292001A64114ADA63022283F821207F
:1027F000D3E901242243DC68086822431C696FF393
:102800000D1022435C6922439C692243DC69224308
:1028100002430A6000200122986383F8200083F8B5
:10282000212010BD0120FCE7F8FFFDBF00000240A1
:10283000F0B590F82040012C34D0012480F82040DD
:1028400090F82140012CE5B24FF0000428D1022677
:1028500080F8216084630468266826F001062660FB
:10286000D0E90F67BD40756063604368102BC36A91
:102870000BBFA260A160E160E2604BB1236843F04E
:102880000E0300202360236843F001032360F0BDA2
:10289000236823F004032360236843F00A03F0E76E
:1028A00080F820400220F2E770B40425C66B026C69
:1028B0003468036895402542196832D04D0730D5F9
:1028C0001A6896065EBF1A6822F004021A603E4A31
:1028D000934219D01432934218D01432934217D035
:1028E0001432934217D01432934217D014329342C9
:1028F00014BF4FF080634FF48003344A5360C36ABF
:10290000002B5ED070BC18470423F6E74023F4E7A1
:102910004FF48063F1E74FF48043EEE74FF48023F8
:10292000EBE702259540254235D08D0733D51A684F
:10293000940606D41A6822F00A021A60012280F86E
:102940002120214A934219D01432934218D01432D4
:10295000934217D01432934217D01432934217D0B7
:102960001432934214BF4FF000734FF40013174A10
:102970005360002380F82030836AC1E70223F6E722
:102980002023F4E74FF40073F1E74FF40053EEE730
:102990004FF40033EBE708259540254211D0090795
:1029A0000FD5196821F00E011960012303FA02F214
:1029B0007260836380F82130002380F82030036B3D
:1029C0009EE770BC704700BF080002400000024054
:1029D0002DE9F74F00244FF00F0E2646DFF884C193
:1029E000614B00F104080A6832FA06F502D103B01F
:1029F000BDE8F08F012505FA06F702EA070537EA78
:102A0000020276D14A68032A07D8013A022A00F264
:102A10008380DFE802F091969C00122A00F09480F7
:102A200069D8112A00F08A80FF2D94BF8146C146E3
:102A30004FEA8602D9F8007088BF203A0EFA02FAEF
:102A400027EA0A0704FA02F21743C9F80070D1F81E
:102A5000049019F0805F4CD0DCF8182026F00307B2
:102A600042F00102CCF81820DCF8182007F180476A
:102A700002F00102019207F5803706F0030A019A7D
:102A80004FEA8A0ABA680EFA0AFB22EA0B0B374AA7
:102A9000904260D002F5806290425ED002F5806282
:102AA00090425CD002F58062904214BF042203225F
:102AB00002FA0AF242EA0B02BA609A6819F4801F1D
:102AC00014BF2A43AA439A60DA6819F4001F14BF9E
:102AD0002A43AA43DA605A6819F4003F14BF2A4314
:102AE000AA435A601A6819F4803F14BF2A43AA43C4
:102AF0001A60013677E7DFF878904A450CD014D891
:102B0000A9F580194A4507D009F570294A4503D02F
:102B1000A9F580194A4587D18A68D2B1012A4FF0B8
:102B200008040CBF076147617EE7DFF848904A451B
:102B3000F2D009F58039EDE7CC6875E7CC6804344C
:102B400072E7CC6808346FE7CC680C346CE700247B
:102B50006AE7042468E70022AAE70122A8E7022224
:102B6000A6E700BF00100240000401400008014039
:102B700000002210000031100AB101617047090401
:102B8000FBE7C36801EA030221EA030141EA0241CB
:102B900001617047016800224B6913F4806310D013
:102BA0006FF480634B612023026380F83D3080F82E
:102BB0003E20036C80F83C2043F0040303640120B2
:102BC0007047184670472DE9F84606460F4691466D
:102BD0001D464FEA114A3368BAF1010F0CBF5C6918
:102BE0009C6927EA0404A4B2B4FA84F46409A145F8
:102BF00001D0002025E06A1CEED0FFF7D5FA089B33
:102C0000C01AA84201D8002DE5D13368BAF1010FEE
:102C10000CBF5B699B6927EA03039BB2B3FA83F39A
:102C20005B099945D7D1002320220120336386F820
:102C30003D2086F83E30326C86F83C3042F020026F
:102C40003264BDE8F8862DE9F04104460F46164689
:102C500098462568686927EA000080B2C0B16B69B0
:102C60005A0517D52B68202243F400732B606FF4AC
:102C700080636B610023236384F83D2084F83E3039
:102C8000236C43F0040323640023012084F83C30C8
:102C9000BDE8F081731CDDD0FFF786FAA0EB0800D9
:102CA000B04201D8002ED4D123685A6927EA020223
:102CB00092B2002ACDD000232022236384F83D2045
:102CC00084F83E30236C1343DDE770B504460D46AF
:102CD000164623685B691B0601D500201EE02046CE
:102CE000FFF758FFC8B96A1CF3D0FFF75DFA801BE5
:102CF000A84201D8002DECD123685B6913F0800352
:102D0000E7D12022236384F83D2084F83E30226CF2
:102D100084F83C3042F020022264012070BD70B57E
:102D200004460D46164623685B695B0701D5002003
:102D30001EE02046FFF72EFFC8B96A1CF3D0FFF74C
:102D400033FA801BA84201D8002DECD123685B69BF
:102D500013F00403E7D12022236384F83D2084F894
:102D60003E30226C84F83C3042F020022264012084
:102D700070BD000070B5044608B9012070BD90F820
:102D80003D3003F0FF021BB980F83C20FFF75CF8F0
:102D9000242384F83D3023681A6822F001021A6067
:102DA0001A6842F400421A601A6822F400421A605B
:102DB00000F0C0FB3F4B65689D4294BF3E4B3F4BCC
:102DC00098428CBF00230123002BD6D1394E3C4BB7
:102DD000B542B0FBF3F388BF4FF496762268516892
:102DE00021F03F0141EA030182BF73434FF47A7639
:102DF000B3FBF6F35160116A013321F03F010B433D
:102E00001362D169431E2B4821F44F41854221F0C2
:102E1000FF0132D86D00B3FBF5F340F6FC700133CF
:102E2000034242D0C3F30B031943D1611168D4E9C3
:102E3000073021F0C00103430B4313609168D4E9CC
:102E4000030321F40341034321F0FF010B4393608B
:102E5000D168D4E9053021F0FF0103430B43D3606F
:102E60001368002043F0010313602023206484F8DA
:102E70003D30206384F83E0080E7A06850B905EB40
:102E80004505B3FBF5F30133C3F30B037BB143F407
:102E90000043C9E719206843B3FBF0F30133C3F3E0
:102EA0000B0323B143F44043BEE70423BCE70123F3
:102EB000BAE700BFA08601007F841E00FF083D0026
:102EC00040420F002DE9F043044685B098460D4678
:102ED00091460C9FFFF768F994F83D300646202B89
:102EE00004D00225284605B0BDE8F08300901923E0
:102EF000012220465C49FFF766FE0028F1D194F8D4
:102F00003C30012BEDD00123216884F83C300B6864
:102F1000DA075EBF0B6843F001030B600B6823F414
:102F200000630B60212384F83D30102384F83E3089
:102F300000232364A4F82A80638DC4F82490238599
:102F40004A4BE362E36A082B04D0012B02D013F54D
:102F5000803F04D10B6843F480730B6002E0236B65
:102F6000122BF7D000223B464FF00111204600966D
:102F7000FFF729FE226840B11368DB0501D4012563
:102F8000B0E74FF400732364F9E72369B3F5804F8A
:102F900021D105F0FE05156133463A4620463449F5
:102FA000FFF751FE05460028E9D1236803905A69CE
:102FB00003929B690393039B238DF3B921680A68ED
:102FC00042F400720A60202284F83C3084F83D20EC
:102FD00084F83E3086E7EB1103F0060343F0F0037C
:102FE0001361204633463A462249FFF72CFE00285B
:102FF000C5D12368EDB21D61CEE732463946204681
:10300000FFF763FE40B1236C042BB8D1226813682C
:1030100043F400731360B2E7636A20681A4612F83B
:10302000011B01616262628D013A92B26285228D5A
:10303000D0F814C0511E89B21CF0040F21850AD0AB
:1030400049B15978023301616362638D023A013BF1
:103050009BB263852285324639462046FFF75FFEE4
:103060000028A9D0CFE700BF020010000000FFFF3A
:1030700002000100080001002DE9F341054638B3C4
:103080000368DB0710D42B689F075ED42B681907F1
:1030900000F195802B685A0700F1C180EB69002B85
:1030A00040F02C81002029E0904C636803F00C0371
:1030B000042B07D0636803F00C03082B0AD1636864
:1030C000DE0307D523689C03DDD56B68002BDAD1BE
:1030D000012013E06B68B3F5803F12D1236843F4FD
:1030E00080332360FFF760F8064623689803CAD44C
:1030F000FFF75AF8801B6428F7D9032002B0BDE817
:10310000F0819BB9236823F480332360236823F480
:1031100080232360FFF748F8064623689903B2D559
:10312000FFF742F8801B6428F7D9E6E7B3F5A02F34
:10313000236803D143F480232360CFE723F4803353
:103140002360236823F48023CBE7684C636813F083
:103150000C0F07D0636803F00C03082B10D16368D1
:10316000DA030DD423689B0702D52B69012BAFD15D
:1031700023686A6923F0F80343EAC203236085E702
:103180002A695B4B6AB101221A60FFF70DF8064607
:1031900023689F07ECD4FFF707F8801B0228F7D9B4
:1031A000ABE71A60FFF700F80646236898077FF53B
:1031B0006DAFFEF7F9FF801B0228F6D99DE7AA69DB
:1031C0004A4E4B4BE2B10122C3F88024FEF7ECFFDC
:1031D0000446736A9B070DD54FF4FA52454B1B68A2
:1031E000B3FBF2F3019300BF019B5A1E0192002B27
:1031F000F9D14FE7FEF7D8FF001B0228E9D97CE799
:10320000C3F88024FEF7D0FF0446736A9F077FF55A
:1032100041AFFEF7C9FF001B0228F6D96DE7334C1A
:10322000E369D80024D40127E36943F08053E361C4
:10323000E36903F080530093009B2F4E3368D90558
:1032400018D5EB68012B26D1236A43F001032362D2
:10325000FEF7AAFF41F288380646236A9B073FD54E
:10326000002F3FF41BAFE36923F08053E36115E7C0
:103270000027E2E7336843F480733360FEF794FF7E
:1032800080463368DA05DCD4FEF78EFFA0EB080039
:103290006428F6D931E7ABB9236A41F2883823F0C4
:1032A00001032362236A23F004032362FEF77CFFF9
:1032B0000646236A9807D3D5FEF776FF801B404564
:1032C000F7D91AE7052B236A03D143F004032362DD
:1032D000BAE723F001032362236A23F00403B6E76D
:1032E000FEF762FF801B4045B7D906E70010024099
:1032F0000000424204000020007000402A4C626836
:1033000002F00C02082A3ED00022022B274B1A663C
:103310002CD1FEF749FF06462368990120D42B6A79
:10332000B3F5803F05D16268A96822F400320A43F0
:103330006260696A62680B4322F4741213430122CB
:1033400063601A4B1A66FEF72FFF054623689A0141
:103350003FF5A8AEFEF728FF401B0228F6D9CCE6C1
:10336000FEF722FF801B0228D6D9C6E6FEF71CFF17
:10337000054623689B017FF595AEFEF715FF401BC0
:103380000228F6D9B9E6012B3FF4A2AE60682B6A99
:1033900000F480329A427FF49BAE6B6A00F47010A6
:1033A000C01A18BF0120A9E60010024000004242E6
:1033B0000D4A536803F00C01082912D10B48C3F3DE
:1033C0008341DB03405C09D55368094AC3F340439A
:1033D0005043084AD35CB0FBF3F07047064B5843A8
:1033E00070470348704700BF001002406C5C000843
:1033F00000127A006A5C000800093D002DE9F041E6
:103400000D46044610B90120BDE8F081444A136816
:1034100003F007038B4228D321688E0730D4CA07F4
:1034200043D43F4A136803F00703AB4265D82268D0
:103430003C4D12F0040F6CD1130706D56B6822695E
:1034400023F4605343EAC2036B60FFF7B1FF6B687C
:10345000354AC3F30313D35CD840344B1860344B64
:103460001868FEF75FFE0020CEE7136823F007031D
:103470000B431360136803F007038B42C3D1CBE700
:10348000284B11F0040F1EBF5A6842F4E0625A60E4
:10349000080742BF5A6842F460525A605A68A068EE
:1034A00022F0F00202435A60B9E762681D4E012A19
:1034B00033681AD113F4003FA5D0736841F28838FD
:1034C00023F0030313437360FEF76EFE0746736831
:1034D000626803F00C03B3EB820FA2D0FEF764FE28
:1034E000C01B4045F3D903208EE7022A02D113F016
:1034F000007FE1E713F0020FDEE7136823F0070314
:103500002B431360136803F00703AB427FF47BAFD8
:103510008DE76B68E16823F4E0630B436B608BE736
:1035200000200240001002405A5C00080400002005
:103530000C000020044B054A5B68C3F30223D35CF4
:10354000034A1068D840704700100240525C0008DF
:1035500004000020044B054A5B68C3F3C223D35C1C
:10356000034A1068D840704700100240525C0008BF
:103570000400002003682DE9F3410546D80721D552
:10358000364CE369D9002BD40126E36943F080531C
:10359000E361E36903F080530193019B304F3B6883
:1035A000DA051FD5236A6A6813F440732ED1236AA3
:1035B0006A6823F44073134323621EB1E36923F066
:1035C0008053E3612A68910706D52449A8684B68AF
:1035D00023F4404303434B60D30636D4002012E06B
:1035E0000026DBE73B6843F480733B60FEF7DCFDBD
:1035F00080463B68DB05D5D4FEF7D6FDA0EB08007E
:103600006428F6D9032002B0BDE8F08102F44072CC
:103610009A42CCD00120134A236AC2F84004002009
:1036200023F44071DF07C2F840042162BFD5FEF7E2
:10363000BBFD41F288380746236A9807B7D4FEF7E6
:10364000B3FDC01B4045F7D9DCE7044AE96853687D
:1036500023F480030B435360C0E700BF0010024017
:103660000070004000004242022808B544D01028F3
:1036700003D0012822D0002034E0254B5A68186876
:1036800010F080702ED0C2F383412248D20348BF8D
:103690005A68405C41BF2049C2F34042895C1F4ADE
:1036A0005B684CBFB2FBF1F21D4A5B0202FB00F00B
:1036B00018D403234000B0FBF3F013E040F20231D2
:1036C000134A136A1940B1F5817F1ED003F4407389
:1036D000B3F5007F07D149F64040536A13F0020F5B
:1036E00008BF002008BDB3F5407FC4D113684FF276
:1036F000244013F4003FF3E7FFF72CFF044B5B6813
:10370000C3F3813301335B00D5E74FF40040E9E7B1
:10371000001002407E5C00087C5C000800127A0009
:1037200000093D00036A026A70B522F001020262DC
:10373000446882690D6822F073022A438D6823F081
:1037400002032B430A4DA8420BD1CD6823F0080396
:103750002B4324F44074D1E90556354323F0040388
:103760002C43446082614A684263036270BD00BFBB
:10377000002C0140036A026A70B522F48072026272
:103780004468C2690D6822F073022A438D6823F4ED
:10379000007343EA05230B4DA8420DD1CD6823F4F5
:1037A000006343EA052324F44054D1E90556354328
:1037B00023F4806344EA05144460C2614A68C2632A
:1037C000036270BD002C0140036A026A30B522F426
:1037D000805202624468C2690D6822F4E64242EAFD
:1037E00005228D6823F4005343EA0533064DA842B1
:1037F00002BF4D6924F4804444EA85144460C261E8
:103800004A680264036230BD002C014090F83D30EC
:10381000012B20D1022380F83D300368DA6842F0A2
:103820000102DA600D4A93420AD0B3F1804F07D00B
:10383000A2F59432934203D002F58062934204D100
:103840009A6802F00702062A03D01A6842F00102C1
:103850001A60002070470120704700BF002C014013
:103860007047704770477047036870B5DD681E6920
:103870000446B1070DD5AA070BD56FF002021A61F5
:10388000012202779B699B0769D0FFF7EAFF0023BB
:103890002377710710D56A070ED56FF004022368ED
:1038A00020461A61022222779B6913F4407F5CD084
:1038B000FFF7D7FF0023237733070FD528070DD550
:1038C0006FF00802236820461A6104222277DB6920
:1038D000990750D0FFF7C5FF00232377F20610D5D4
:1038E000EB060ED56FF01002236820461A610822FD
:1038F0002277DB6913F4407F43D0FFF7B2FF002348
:103900002377F00708D5E90706D56FF00102236891
:1039100020461A61FEF77CF8320608D52B0606D53C
:103920006FF08002236820461A6100F096FA700654
:1039300008D5690606D56FF04002236820461A6153
:10394000FFF791FFB20622D5AB0620D56FF020021B
:1039500023682046BDE870401A6100F07DBAFFF789
:103960007FFF2046FFF77EFF91E7FFF779FF2046B4
:10397000FFF778FF9EE7FFF773FF2046FFF772FF20
:10398000AAE7FFF76DFF2046FFF76CFFB7E770BDB2
:10399000174A036890420AD0B0F1804F07D0A2F5D1
:1039A0009432904203D002F58062904207D14A6877
:1039B00023F070031343CA6823F4407313434A6926
:1039C00023F08003134303608B68C3620B68836238
:1039D000074B984204BF0B690363012343610369EA
:1039E000DB0742BF036923F001030361704700BF97
:1039F000002C014010B5044630B390F83D3003F080
:103A0000FF021BB980F83C20FEF770FA0223206801
:103A100084F83D30211DFFF7BBFF0123002084F80F
:103A2000463084F83E3084F83F3084F8403084F8E3
:103A3000413084F8423084F8433084F8443084F8CC
:103A4000453084F83D3010BD0120FCE710B5044638
:103A500030B390F83D3003F0FF021BB980F83C20F2
:103A6000FEF724FA0223206884F83D30211DFFF779
:103A70008FFF0123002084F8463084F83E3084F81C
:103A80003F3084F8403084F8413084F8423084F884
:103A9000433084F8443084F8453084F83D3010BD1C
:103AA0000120FCE7036A026A70B522F0100202628C
:103AB000446882690D6822F4E64242EA05228D6874
:103AC00023F0200343EA05130B4DA8420DD1CD6826
:103AD00023F0800343EA051324F44064D1E905563A
:103AE000354323F0400344EA8504446082614A6818
:103AF0008263036270BD00BF002C014038B590F8AE
:103B00003C300446012B4FD00120082A84F83C00A9
:103B10003AD006D8BAB1042A26D0002384F83C3023
:103B200038BD0C2AF9D12068FFF74EFEC3690A6937
:103B300043F40063C361C36923F48063C361C36951
:103B400043EA02232EE02068FFF7ECFD83690A694F
:103B500043F008038361836923F00403836183696D
:103B6000134383610020D8E72068FFF79BFF836938
:103B70000A6943F400638361836923F4806383618A
:103B8000836943EA0223ECE72068FFF7F3FDC3698A
:103B90000A6943F00803C361C36923F00403C361E6
:103BA000C3691343C361DDE70220B9E710B5846838
:103BB0000A4324F47F4442EA03222243826010BD78
:103BC00038B590F83C300446012B4FF0020000F06D
:103BD0008E80012284F83D00206884F83C208368B0
:103BE00023F47F4323F0770383600B68602B4FD06F
:103BF00032D8402B64D016D8202B0DD00AD833F001
:103C0000100109D0012384F83D30002384F83C30B2
:103C1000104638BD302BF5D1826822F07002134374
:103C200043F0070328E0502BECD14A68CD68016AC5
:103C3000036A21F00A0123F00103036283690A4346
:103C400023F0F00343EA051383610262836823F0E3
:103C5000700343F057030FE0B3F5805F0DD0B3F569
:103C6000005F0CD0702BCDD1CB68D1E90121FFF7DB
:103C70009DFF836843F0770383600022C2E7CB682F
:103C8000D1E90121FFF792FF836843F48043F3E712
:103C9000036A026A4D6822F01002C96802628269F2
:103CA00023F0A00322F4704243EA051342EA0132F2
:103CB00082610362836823F0700343F06703DBE7EC
:103CC0004A68CD68016A036A21F00A0123F0010302
:103CD000036283690A4323F0F00343EA0513836117
:103CE0000262836823F0700343F04703C4E702468F
:103CF0008EE710B50124036A01F01F018C4023EA0E
:103D000004030362036A8A401A43026210BD000082
:103D100008B529B990F83E30012B1DD001202EE0C6
:103D2000042907D190F83F30012BF7D1022380F806
:103D30003F3014E0082907D190F84030012BEDD135
:103D4000022380F840300AE090F84130012BE5D1A1
:103D5000022380F8413002E0022380F83E30006800
:103D60000122FFF7C6FF0F4B984209D0B0F1804FF8
:103D70000BD1836803F00703062B0DD1002008BD8B
:103D8000436C43F400434364F3E7074B9842F0D09D
:103D900003F580639842ECD0036843F001030360AD
:103DA000ECE700BF002C014000040040FFF7B0BF6B
:103DB00030B590F83C300246012B4FF0020022D083
:103DC000136882F83D005C680D6824F070042C4391
:103DD00098685C600C4CA3420AD0B3F1804F07D0C6
:103DE000A4F59434A34203D004F58064A34204D123
:103DF000496820F08000014399600123002082F887
:103E00003D3082F83C0030BD002C014090F83C3041
:103E10000246012B1ED0CB68886823F4407303430D
:103E2000486823F480630343086823F40063034372
:103E3000086923F480530343486923F40053034380
:103E40000020C96923F480430B4311684B6482F856
:103E50003C00704702207047704770472DE9F04FD3
:103E60001646013685B01D46B6B2CB1890F892A022
:103E70009BB2009604460F46039200F05EFC38B1F8
:103E8000BAFA8AFB01264FEA5B1B25B984F892A097
:103E900005B0BDE8F08F0E9B1A78002332400E99D2
:103EA000A5EB0309097807EB03081FFA89F91FFA44
:103EB00088F83140F2B939B194F891203ABB84F8CE
:103EC00092B0A8EB03011CE0760016F0FF0608BFD5
:103ED0000E9903F1010308BF01319BB204BF012613
:103EE0000E919D42DBD11F441FFA87F892B14FF02B
:103EF000000901E00029E7D1002284F892A0A8EB94
:103F0000030100922046039A89B200F085FB4D46DA
:103F10004746BAE79146CFE72DE9F347BDF8285069
:103F20001E461544ADB20B4400959BB281460F4628
:103F30001446DDF82CA000F000FC28B106F10708BB
:103F4000C8F3CC08A54202D102B0BDE8F0872246F2
:103F5000CDF800A03346394648460134FFF77EFFCE
:103F6000C244A4B2EEE72DE9F347BDF8285001EBB7
:103F70000309984653199BB21FFA89F900934B46DF
:103F800006460F46144600F0D8FB78B300232246BD
:103F9000009339464346304600F03EFB012D25D9BB
:103FA000023D0134ADB2A4B2ADB14FF0010A2246D8
:103FB0002B4639463046CDF800A000F02DFB09F124
:103FC000FF3122462B463046CDF800A089B200F0E2
:103FD00023FB2C44A4B2002322460A9339464346CD
:103FE000304602B0BDE8F04700F016BB02B0BDE8B5
:103FF000F0872DE9F74304460026036890F83890CF
:1040000090F8397093F811802368606B1B7CF5B2CF
:1040100006FB03F1C90089B208447A190135009002
:1040200000212046D2B2EDB200F06FFEA94504D9BE
:104030000136BB19DBB29845E6D803B0BDE8F08382
:10404000036800211A7C90F83830406B5A43D20044
:1040500000F0F2BE10B50446FFF7CBFF2046BDE8E6
:10406000104000F07ABE10B50446036B80F839109A
:104070001B689847236B2046BDE810405B681847D3
:1040800010B590F8933004460BB1FFF7D9FF2046E6
:10409000BDE810400021FFF7E6BF38B50446FFF742
:1040A000A8FF94F8383094F839501D442368EDB2D5
:1040B0005B7CAB4204D8204600F04FFE002038BDA8
:1040C00094F8933013B12046FFF7BAFF20462946F3
:1040D000FFF7C9FF0120F2E710B50446FFF7D0FF54
:1040E0002046FFF7DAFF01460028F9D12046BDE857
:1040F0001040FFF7B8BF0000082303700048704766
:104100001C03002030B585B00D46009309491346C5
:10411000094A044600F046FE0DF10F00FFF7ECFFE0
:10412000064B01469DF80F202046009500F03AFC12
:1041300005B030BD354C0008214B0008354800085B
:10414000405A40BA80B27047002070470A4608B50E
:104150000978034601705178417091788170D17867
:10416000C170117901715179417191798171D17960
:10417000C171117A0172517A4172917A8172D17A48
:10418000C172117B0173517B4173917B8173D17B30
:10419000C173117C017411211046FFF7D1FF132167
:1041A00058821046FFF7CCFF152198821046FFF782
:1041B000C7FFD88208BD70B5047B036862181D78FC
:1041C000D2B2072A45FA04F507D8EBB202734FF0D2
:1041D000FF30884023EA000070BD5E1C06605B78FB
:1041E000C4F10804E4B2A3402B43083ADBB2D2B2D4
:1041F000ECE738B5002300F16005044680F86C3028
:10420000016690F878102846FFF7D5FF94F87910EA
:1042100084F86A002846FFF7CEFF94F8923084F8BD
:104220006B0084F86E30B3FA83F35B0984F86F3067
:1042300038BD10B5FFF7BFFF01234C1EE4B2A34009
:10424000C01A40B210BD012B05D0022B05D033B9E6
:10425000104480B270470844FBE7801AF9E7401A1F
:10426000F7E7012B05D0022B05D033B9084480B203
:104270007047801AFBE7401AF9E71044F7E72DE989
:10428000F04F04460E4687B090F8685090F8697079
:10429000059294F86AA0B4F86630AAEB05085FFAB4
:1042A00088F84FFA87F94A46464569B20493B4F84C
:1042B000640094F87030B34628BFC346FFF7D1FFBF
:1042C00003900498FFF7BFFF05990246A1B194F847
:1042D0006E1084F892102046009303995B4600F01C
:1042E0009BF935444645EDB20DD3A5EB0A050137E0
:1042F000EEB2FFB20025CCE794F86D100029F0D1A2
:1043000094F86F10E5E784F8685084F8699007B076
:10431000BDE8F08F2DE9F347044600F16008FFF790
:1043200068FF94F87A10404694F96B70FFF781FFAC
:1043300094F87B1082464046FFF77BFF94F87C1090
:1043400006464046FFF775FF94F96A508146002DF6
:104350004ADDBA19524252B2514694F87030B4F85C
:104360006400FFF77EFFA4F864000646B4F8660018
:10437000FFF769FF0246A4F86600032B57D8DFE871
:1043800003F00237404D3544C119ABB289B20091F8
:104390002046314600F0D1F930B30023A4F868304C
:1043A00094F876104046FFF706FF94F8771006461B
:1043B0004046FFF700FF0546002231462046FFF742
:1043C0005EFF294620460122FFF759FF01214046A2
:1043D000FFF7F1FE0028EFD194F96930BB42DFDB33
:1043E00094F86E3084F89230484602B0BDE8F08709
:1043F000C7F10100731C304451199BB289B286B2D7
:10440000C5E7C5F10105C7F10100731C511C354416
:1044100010449BB289B282B2AEB2B8E7C5F10105D1
:10442000F3190544411C9BB289B2AAB2AFE7014619
:104430003346ACE7836DFF290A4610B503F1170335
:1044400012D8602909D9B0F888100B44587818B1EF
:104450001978914206D1981C10BD4029F6D9B0F8C0
:104460008610F2E70344F1E7B0F88A100B441C46CB
:1044700000212046FFF764FE022103442046FFF797
:104480005FFE824204F10404F2D8188841BA89B26E
:104490000028E1D08A4201D1D81CDDE799780B448D
:1044A000F3E780F86D107047F8B51F4690F870304C
:1044B00004460E461546032B07D8DFE803F0021525
:1044C0001A1EC36D9847284485B239462046A4F881
:1044D0006460A4F86650FFF7ADFF014618B12046AE
:1044E000FFF718FF80B2F8BDC36D9847301A86B247
:1044F000EBE7C36D9847281AE6E7C36D9847304449
:10450000F5E72DE9F0471E4607460C4615464FF0E5
:10451000000A00F070FA4FF6FF784FF6FE79013E80
:104520007B68384616F8011F9847404503461BD064
:104530004845F5D02A4621463846FFF7B5FF97F89B
:104540007030032B05D8DFE803F002080B0D04449C
:10455000A4B250441FFA80FAE2E70544ADB2F8E78E
:10456000241AF5E72D1AF9E75046BDE8F087000058
:1045700010B4024C446010BCFFF7C3BFE749000809
:10458000836D10B5CBB190F9814090F9821090F80D
:104590008D3080F88E4080F88F1073B1012B0DD1D3
:1045A00090F98330A342B8BF234680F88E3090F94B
:1045B0008430994201DD80F88F3010BD90F9802061
:1045C00090F97E3013449C42B8BF80F88E309142FF
:1045D000C8BF80F88F20F0E7014BC365704700BF6C
:1045E00049410008826D10B58A42044608D08165B1
:1045F0007430FFF7ABFD2046BDE81040FFF7C0BFA9
:1046000010BD70B4C68F9DF80C50C46A921BA446AE
:10461000039592B270BC604770B490F88C509DF8CE
:104620000C40002D5CD0002B5AD0012B52D0022C14
:1046300029D10131C91A89B2B0F84C4094424FD8FF
:10464000B0F84E4094424BD90B449CB28C42B0F827
:104650004860B0F84A5041D28D423ED96C1EA4B297
:10466000A6423DD2B14238BF3146A54294BFC1EB0C
:104670000503C1EB040300249BB2056B0394AC68F3
:10468000A44670BC6047032C24D10132D21A92B2E6
:10469000B0F848408C4223D8B0F84A408C421FD929
:1046A00013449CB29442B0F84C60B0F84E501AD209
:1046B000954217D96C1EA4B2A64211D2B24238BF9D
:1046C0003246A54294BFC2EB0503C2EB04030124AA
:1046D0009BB2D2E7E407DBD4AEE731468D42BFD8C8
:1046E00070BC704732469542FAD9E5E773B5B0F829
:1046F0004C60964210D8B0F84E6096420CD9B0F893
:1047000048508D4208D8B0F84A308B4204D9002373
:1047100000930123FFF780FF02B070BD8A4206D2EA
:10472000834208D89A4294BF0020012070478342F8
:10473000F8D8002070470120704770B504460D4638
:104740001E46B0F84E10BDF81030B0F84C00FFF720
:10475000E5FF48B133462A46B4F84A10B4F8480099
:10476000BDE87040FFF7DABF70BD2DE9F74FBDF827
:10477000306099428CBFA1EB0309A3EB0109B2425F
:1047800083460D461C461FFA89F912D9A2EB06088A
:104790001FFA88F8C14519D34346A542C846994631
:1047A00005D8334616461A4623462C461D46002792
:1047B00012E0A6EB02081FFA88F8C145ECD2334696
:1047C0001D4623460E4614461A4604E02346154667
:1047D00034460A461E46012796422CBF4FF0FF334F
:1047E00001234FF6FE72954228BF154648F34F0A43
:1047F0000193ADB2A54202D203B0BDE8F08FB7B9C4
:1048000032462146AAEB090A5846FFF76FFF1FFA06
:104810008AF20FFA8AFABAF1000F05DA019B4244D4
:104820001E44B6B20FFA82FA0134A4B2E2E722467D
:104830003146E7E7F0B501248C4690F8921002F07B
:104840000707BC4001299DF81460E4B216D825463C
:1048500000D1002422F007010268127C5143426B10
:1048600089B2614411445EB90A78013B2A4362402F
:104870009BB201F8012B002BF6D1F0BD0025E9E732
:104880000A7801372A436240013B17F007070A7094
:104890009BB20AD1428F114490F89220012A09D884
:1048A0000AD11546002BEBD1E7E76D006400EDB2AD
:1048B000E4B2F7E70124F5E701242546F2E770B5F5
:1048C00090F838100268CB008387137C90F8395039
:1048D000DB004387EB00C387547C4E19A642C4BF5C
:1048E000641BA1B2A0F8403003EBC103A0F8423032
:1048F000938AA0F84430D38AA0F8463070BDFFF701
:10490000DEBF10B49DF80440019410BCFFF779BEDF
:1049100013B5B0F8563004460093B0F85230B0F8F2
:104920005420B0F85010FFF708FF18B984F88C0035
:1049300002B010BD0123B4F8482084F88C30B4F8DC
:1049400050309A4238BFA4F84830B4F84A20B4F83E
:1049500052309A4288BFA4F84A30B4F84C20B4F8D8
:1049600054309A4238BFA4F84C30B4F84E20B4F812
:1049700056309A4288BFA4F84E30D9E70022A0F8FA
:104980004820B0F84420A0F84A20026CC264FFF727
:10499000BFBF0000024A036BC0E914225B681847DE
:1049A0000000FFFF70B50025C36240F2011304460A
:1049B000049E80F8382080F8395080F86D5080F8D7
:1049C0008D5080F89150A0F892304163336885652E
:1049D000066398472046FFF7DDFF2046FFF7FCFD02
:1049E00084F8705070BD4FF6FF7019B10A2918BFD6
:1049F000084670477047002380F82630704710B48F
:104A000004691346A4460A4610BC1721604707B53F
:104A10008DF807100DF107020121FFF7F0FF03B039
:104A20005DF804FB002310B404691A46A44618215B
:104A300010BC6047002310B404691A46A44619212B
:104A400010BC6047F8B5044616460D46FFF7EAFF6E
:104A500040212046FFF7DBFF33462A4620462769E0
:104A60001721B8472046BDE8F840FFF7E3BF10B470
:104A7000C4680A46A4460023152110BC604710B440
:104A8000C4680A46A4460023162110BC604710B42F
:104A9000C4681346A4460A4610BC17216047002389
:104AA00010B4C4681A46A446182110BC60470023FD
:104AB00010B4C4681A46A446192110BC604773B5E7
:104AC00005460C462178192906D8172921D816D071
:104AD00014290BD802B070BDFE29FBD162782921C0
:104AE00028468DF8072000F040F906E062780023A0
:104AF0002846EE688DF80720B0470234E2E7637875
:104B0000012128460DF107028DF80730FFF7BFFF9E
:104B1000F3E7002328461A46EE680134B047D1E790
:104B200014392DE9F041044615461E46052931D8B1
:104B3000DFE801F02203031A1010FFF773FF0021D2
:104B40002046FFF764FF29462046FFF760FF204616
:104B5000FFF770FF0120BDE8F08118212046FFF724
:104B600071FF183DEDB21836182D3246F5D829469A
:104B70002046FFF767FFEDE790F824300769FF2B29
:104B800004BF782380F82430BC463346BDE8F041AA
:104B9000142160470020DEE70E29F8B504461546CB
:104BA0001E4638D00F2903D00B292DD00020F8BD88
:104BB000FFF775FF737994F82210204601EBC301CB
:104BC00001F0FF07C1F3031141F01001FFF74FFFA0
:104BD00007F00F012046FFF74AFFB179204641F068
:104BE000B001FFF744FF31792046C900326801F077
:104BF000F801013DFFF74BFF15F0FF05F3D120460B
:104C0000FFF755FF0120D2E71AB90849FFF757FF10
:104C1000F8E70749FAE7FFF742FF81212046FFF74F
:104C200026FF29462046FFF72AFFE8E7646F0008C1
:104C30005F6F000870B504460D461646FFF7ACFFDF
:104C400078B90A2D16D00D2D02D0092D1AD070BDBD
:104C50004EB920460E49FFF732FF23689B7C84F84B
:104C600022300120F3E720460A49FFF728FF236896
:104C7000DB7CF4E7204600F018F820460649FFF7F1
:104C80001EFFEEE72046054900F00AF8E9E700BFFD
:104C9000586F0008516F0008286F0008106F000857
:104CA00001608B7C80F82230704738B500232821C2
:104CB0001A4645690446A847002314211A4620468F
:104CC000E568A847204601224B2100F04EF82368F2
:104CD00020461A79292100F048F8204600224B216D
:104CE00000F043F8236820461A79292100F03DF8A6
:104CF000204601224B2100F038F8236820465A79DB
:104D00002921BDE8384000F030B813B58DF80430E3
:104D1000049B8DF805108DF80620009301226B4648
:104D20000F218468A04702B010BD002310B484682E
:104D30001A46A446092110BC6047002310B48468B9
:104D40001A46A4460A2110BC604710B484680A467B
:104D5000A44600230B2110BC6047002310B48468D4
:104D60001A46A446102110BC604710B444690023C1
:104D7000A44610BC60470020704700000023036079
:104D800080F8233080F826308361FF23044A80F8BE
:104D90002430C0E90222C0E9042280F8283070479C
:104DA000774D0008F8B516461D46069FFFF7E6FF4B
:104DB000C0E90216C0E90457BDE8F840FFF7B5BFE7
:104DC0000EB46FF0004110B500249DB01FAB0290EF
:104DD0000690079104910948094953F8042B05915D
:104DE000006802A901931B9400F0BAF9029B1C70A1
:104DF0001DB0BDE8104003B0704700BF1000002098
:104E00000802FFFF884210B501EB020402D9844278
:104E1000234607D8431EA14208D011F8012B03F8FE
:104E2000012FF8E7014602448A4200D110BD13F871
:104E3000014D02F8014DF7E703460244934200D1C9
:104E4000704703F8011BF9E7014B1868704700BF72
:104E50001000002070B500260C4D0D4C641BA410F2
:104E6000A64209D100F046FE00260A4D0A4C641BFA
:104E7000A410A64205D170BD55F8043B98470136F1
:104E8000EEE755F8043B98470136F2E76C6F0008EF
:104E90006C6F00086C6F0008706F000870477047F7
:104EA0000A44914200F1FF3300D1704710B511F868
:104EB000014B914203F8014FF9D110BD38B50546B9
:104EC000002940D051F8043C0C1F002BB8BFE41857
:104ED00000F0DEF81C4A136833B96360146028469A
:104EE000BDE8384000F0DAB8A34208D9206821189C
:104EF0008B4201BF19685B6809182160EDE71A460B
:104F00005B680BB1A342FAD911685018A0420BD1CB
:104F100020680144501883421160E0D118685B6832
:104F2000084410605360DAE702D90C232B60D6E7FF
:104F3000206821188B4201BF19685B68091821603D
:104F400063605460CBE738BD6008002070B50F4E39
:104F50000C463168054611B900F08EFB30602146E1
:104F6000284600F089FB431C03D14FF0FF34204654
:104F700070BDC41C24F00304A042F8D0211A2846B6
:104F800000F07AFB0130F2D1EFE700BF5C080020AF
:104F90002DE9F843CD1C25F0030508350C2D38BF4D
:104FA0000C25002D064601DBA94204D90C233360F1
:104FB0000020BDE8F883DFF8D48000F069F8D8F865
:104FC00000301C4644BB29463046FFF7BFFF431C58
:104FD000044658D1D8F800402746002F43D1002C72
:104FE0004BD023683946304604EB030900F044FBFC
:104FF000814542D1216830466D1A2946FFF7A6FF48
:1050000001303AD023682B442360D8F800305A6826
:1050100062BBC8F800700FE02268521B20D40B2A34
:1050200017D96119A342256018BF5960636808BF8A
:10503000C8F8001062514B60304600F02FF804F1C0
:105040000B00231D20F00700C21A1CBF1B1AA3501F
:10505000AFE76268A3420CBFC8F800205A60EBE7D4
:1050600023466468AEE73C467F68B6E71A465B684D
:10507000A342FBD100235360DEE70C2330463360AC
:1050800000F00CF894E70560D6E700BF6008002048
:105090000148FFF703BF00BF580800200148FFF791
:1050A000FEBE00BF580800202DE9F0471F468E685D
:1050B0008246BE420C4690460B682DD8B1F90C20B2
:1050C00012F4906F26D06569096905EB4505A3EBDD
:1050D000010905EBD5757B1C4B446D109D4238BF13
:1050E0001D46530527D52946FFF752FF064660B3F4
:1050F0004A462169FFF7D4FEA38923F4906343F065
:105100008003A38126614E4426603E466561A5EB7F
:105110000905A560BE4200D93E4632464146206898
:10512000FFF770FE0020A3689B1BA3602368334435
:105130002360BDE8F0872A4600F0BCFA0646002846
:10514000E0D150462169FFF7B9FE0C23CAF80030C0
:10515000A3894FF0FF3043F04003A381E9E700004B
:105160002DE9F04F98468B8907461B060D461446DD
:105170009DB010D50B6973B94021FFF709FF286076
:10518000286130B90C233B604FF0FF301DB0BDE803
:10519000F08F40236B610023099320238DF8293081
:1051A00030234FF00109CDF80C80DFF898818DF89D
:1051B0002A3023469A4613F8012B0AB1252AF9D141
:1051C000BAEB040B0BD05B46224629463846FFF764
:1051D0006BFF013000F0A780099A5A4409929AF8AF
:1051E0000030002B00F09F8000234FF0FF32CDE90C
:1051F00005230AF1010A049307938DF853301A939B
:105200005446052214F8011B4E4800F045FA049A52
:10521000D8B9D00644BF20238DF85330110744BFBE
:105220002B238DF853309AF800302A2B15D0544692
:1052300000204FF00A0C079A214611F8013B303B41
:10524000092B4BD9B0B1079214E0A0EB080309FA7F
:1052500003F31343A2460493D2E7039B191D1B6873
:105260000391002BBBBF5B4242F0020207930793FE
:10527000B8BF049223782E2B0AD163782A2B32D11F
:10528000039B02341A1D1B68039243EAE3730593E0
:10529000DFF8B4A003225046217800F0FDF938B1C0
:1052A0004022049BA0EB0A00824013430134049384
:1052B00014F8011B062225488DF8281000F0ECF99F
:1052C000002836D0224B1BBB039B073323F0070378
:1052D00008330393099B334409936AE70C46012082
:1052E0000CFB0232A8E700234FF00A0C19460134E8
:1052F0000593204610F8012B303A092A03D9002BD8
:10530000C6D00591C4E7044601230CFB0121F0E758
:1053100003AB00932A4638460E4B04A9AFF3008036
:10532000421C0646D6D1AB895B063FF52DAF0998E6
:105330002CE703AB00932A463846064B04A900F03D
:105340007DF8EDE78F5B0008955B0008995B00082E
:1053500000000000A95000082DE9F04716469846C5
:105360008A680B6907469342B8BF1346336091F8C9
:1053700043200C46DDF820900AB1013333602368E6
:10538000990642BF336802333360256815F006057D
:1053900006D104F1190AE36832689B1AAB422BDC90
:1053A00094F843302268003B18BF0123920630D4A2
:1053B0004146384604F14302C847013023D02368F0
:1053C000226903F00603042B14BF002533684FF055
:1053D000000608BFE56804F11A0408BFED1A54F886
:1053E000123C08BF25EAE5759342C4BF9B1AED182D
:1053F000B5421AD1002008E0012352464146384602
:10540000C847013003D14FF0FF30BDE8F0870135C8
:10541000C1E73020E11881F843005A1C94F8451088
:105420002244023382F84310C2E701232246414658
:105430003846C8470130E6D00136D9E72DE9FF47A5
:105440000F7E9146782F80460C469A460C9E01F1BD
:10545000430207D8622F0AD8002F00F0D180582FBE
:1054600000F0B88004F1420684F842703AE0A7F1F7
:105470006303152BF6D801A151F823F0D554000889
:10548000E954000865540008655400086554000894
:1054900065540008E9540008655400086554000884
:1054A0006554000865540008E755000813550008C6
:1054B000A155000865540008655400080956000805
:1054C0006554000813550008655400086554000829
:1054D000A955000833681A1D1B68326004F14206A2
:1054E00084F8423001239CE033682068191D316044
:1054F000060601D51D6803E04506FBD5B3F900504B
:10550000002D03DA2D236D4284F843300A235848D6
:1055100011E021683368080653F8045B02D4490699
:1055200048BFADB26F2F336014BF0A230823504821
:10553000002184F843106668002EA66005DB216810
:105540002E4321F0040121604BD01646B5FBF3F148
:1055500003FB1157C75D06F8017D2F46BB420D4680
:10556000F4D9082B0BD12368DF0708D523696168BC
:105570009942DEBF302306F8013C06F1FF36921B4C
:1055800022614B4621464046CDF800A003AAFFF712
:10559000E3FE01304AD14FF0FF3004B0BDE8F087A0
:1055A000236843F0200323607827324884F845704D
:1055B000236831681F0651F8045B02D45F0648BFB8
:1055C000ADB23160D90744BF43F0200323601DB161
:1055D0001023ADE72648E9E7236823F02003236082
:1055E000F6E71646BDE733682568181D6169306027
:1055F0002E061B6801D5196002E06806FBD51980EC
:10560000002316462361BCE7336800211A1D32606F
:105610001E686268304600F03FF808B1801B606089
:1056200063682361002384F84330AAE73246494681
:1056300040462369D0470130ADD023689B0713D47F
:10564000E068039B9842B8BF1846A6E7012332469C
:1056500049464046D04701309DD00135E368039963
:105660005B1AAB42F2DCEBE7002504F11906F5E723
:10567000A05B0008B15B000838B50023054D044667
:1056800008462B60FCF796FC431C02D12B6803B143
:10569000236038BD54080020034610B5C9B2024447
:1056A0009342184601D1002003E0047801338C4274
:1056B000F6D110BD2DE9F041074614460D4621B93B
:1056C0001146BDE8F041FFF763BC2AB9FFF7F6FBCE
:1056D00025462846BDE8F08100F01AF884420646C7
:1056E00002D8B4EB500FF4D821463846FFF750FCEF
:1056F000804608B94546ECE7B4422246294628BF11
:105700003246FFF7CDFB29463846FFF7D7FBF1E7D6
:1057100051F8043C181F002BBCBF0B58C018704731
:10572000F8B504460D4600F033F8224606460F460B
:105730002B4620462946FBF761F998B90022002341
:1057400020462946FBF750F960B900220023204685
:105750002946FBF721F940B1FFF776FB222300260B
:10576000064F036030463946F8BDFFF76DFB212335
:1057700003600348BDE8F84000F004B80000F0FF03
:10578000945B000800200149704700BF0000F87FCB
:105790002DE9F04FB1F5801F02460B460D4687B04C
:1057A00024DA21F00044044308D100220023002021
:1057B000CB49FAF7B3FF07B0BDE8F08F002904DA50
:1057C000FAF7CAFC00220023F3E70022C54BFAF7E0
:1057D0007BFE0B460D4602466FF03501C2488542FE
:1057E00006DD10461946FAF7B9FCE4E70021F5E7B3
:1057F0002C15A4F2FF34C5F313050C4405F515214F
:1058000001F6647101F4801686F07F5181F4401135
:1058100041EA0503104619460022B44BFAF79CFCF6
:10582000AB1CC3F31303022B82468B464FF00002DE
:1058300004EB165453DC0023FBF7AEF8D0B1002C78
:1058400000F020812046FAF7D5FD91A3D3E900238B
:1058500006460F46FAF738FE8FA3D3E90023044625
:105860000D4630463946FAF72FFE02460B462046D3
:105870002946B8E78AA3D3E9002350465946FAF7E8
:1058800023FE02460B4600209949FAF765FC524672
:1058900006460F465B4650465946FAF715FE024645
:1058A0000B4630463946FAF70FFE06460F4614B946
:1058B00032463B46A0E02046FAF79CFD74A3D3E9AC
:1058C000002380468946FAF7FFFD73A3D3E900233E
:1058D00004460D4640464946FAF7F6FDA5E04FF06E
:1058E0008043FAF73BFC02460B4650465946FAF70E
:1058F00015FFCDE900012046FAF77CFDDDE9002324
:10590000CDE9020110461946FAF7DEFD02460B46C4
:10591000CDE90423FAF7D8FD63A3D3E90023804639
:105920008946FAF7D1FD62A3D3E90023FAF716FC02
:1059300042464B46FAF7C8FD5FA3D3E90023FAF7C6
:105940000DFC42464B46FAF7BFFD5DA3D3E90023A9
:10595000FAF704FCDDE90423FAF7B6FD5AA3D3E90C
:105960000023CDE9040140464946FAF7ADFD58A3AE
:10597000D3E90023FAF7F2FB42464B46FAF7A4FDBF
:1059800055A3D3E90023FAF7E9FB42464B46FAF761
:105990009BFD02460B46DDE90401FAF7DFFBA5F5A6
:1059A000C226C5F5D725A6F27A4651353543002DD6
:1059B0008046894648DD00224D4B50465946FAF74D
:1059C00083FD52465B46FAF77FFD02460B460646CC
:1059D0000F4640464946FAF7C1FBDDE90023FAF7D6
:1059E00073FD8046894664B902460B463046394607
:1059F000FAF7B2FB02460B4650465946FAF7ACFBA3
:105A0000D9E623A3D3E90023DDE90201FAF75CFD1F
:105A100021A3D3E9002304460D46DDE90201FAF78C
:105A200053FD42464B46FAF799FB02460B46304679
:105A30003946FAF791FB52465B46FAF78DFB024670
:105A40000B4620462946D9E702460B4650465946A2
:105A5000FAF782FBDDE90023FAF736FD06460F462A
:105A6000002C3FF425AF0AA3D3E90023DDE90201AE
:105A7000FAF72AFD08A3D3E9002304460D46DDE921
:105A8000020129E70020002195E600BFAFF3008066
:105A90000000E0FE422EE63F763C7935EF39EA3DE4
:105AA000555555555555D53F44523EDF12F1C23F2D
:105AB000DE03CB966446C73F599322942449D23FD4
:105AC000935555555555E53F9FC678D0099AC33F24
:105AD000AF788E1DC571CC3F04FA97999999D93F3B
